:020000040000FA
:10000000D0080020010200001502000017020000C5
:10001000190200001902000019020000000000008F
:1000200000000000000000000000000019020000B5
:10003000190200000000000019020000190200006F
:100040001902000019020000190200001902000044
:100050001902000019020000190200001902000034
:100060001902000019020000190200001902000024
:100070001902000019020000190200001902000014
:100080001902000019020000190200001902000004
:1000900019020000190200001902000019020000F4
:1000A00019020000190200001902000019020000E4
:1000B00019020000190200001902000019020000D4
:1000C00019020000190200001902000019020000C4
:1000D00019020000190200001902000019020000B4
:1000E00019020000190200001902000019020000A4
:1000F0001902000019020000190200001902000094
:100100001902000019020000190200001902000083
:100110001902000019020000190200001902000073
:100120001902000019020000190200001902000063
:100130001902000019020000190200001902000053
:100140001902000019020000190200001902000043
:100150000000000000000000190200001902000069
:10016000190200001902000000000000190200003E
:100170001902000019020000190200001902000013
:100180001902000019020000190200001902000003
:1001900019020000190200001902000019020000F3
:1001A00019020000190200001902000019020000E3
:1001B00019020000190200001902000019020000D3
:1001C00019020000190200001902000019020000C3
:1001D00019020000190200001902000019020000B3
:1001E00019020000190200001902000019020000A3
:1001F0001902000019020000190200001902000093
:100200004EF68850CEF20000016841F470010160A2
:1002100000F004B8FEE7FEE7FEE7000000F002F899
:1002200000F04CF80AA090E8000C82448344AAF144
:100230000107DA4501D100F041F8AFF2090EBAE842
:100240000F0013F0010F18BFFB1A43F0010318470A
:10025000E80A0000080B00000A4410F8014B14F0F3
:100260000F0508BF10F8015B240908BF10F8014B07
:100270006D1E05D010F8013B6D1E01F8013BF9D150
:10028000641E03D0641E01F8015BFBD19142E4D3EC
:10029000704700000023002400250026103A28BFE4
:1002A00078C1FBD8520728BF30C148BF0B607047E8
:1002B0001FB500F011FC1FBD10B510BD00F01DF8FA
:1002C0001146FFF7F5FF00F041FB00F03BF803B4E7
:1002D000FFF7F2FF03BC00F043F8000002480349B7
:1002E000014A034B70470000D0060020D0080020D0
:1002F000D0060020704770477047754600F02CF814
:10030000AE4605006946534620F00700854618B002
:1003100020B5FFF7E3FFBDE820404FF000064FF0A7
:1003200000074FF000084FF0000B21F00701AC462A
:10033000ACE8C009ACE8C009ACE8C009ACE8C00949
:100340008D46704710B50446AFF300802046BDE8E7
:100350001040FFF7BCBF0000004870476C0600204B
:1003600001491820ABBEFEE7260002007047D0F816
:10037000003412F0010F14BF0B438B43C0F800345C
:1003800012F0020FD0F8202414BF114322EA010119
:10039000C0F82014704700002DE9F04F574ED6F8F2
:1003A00000C0574FDFF85C810CEA070CC44524D02D
:1003B0004FF0000C4FF001094FF0030AC2F3411552
:1003C00009FA0CF40C4211D0D0F8C4BF4FEA4C0427
:1003D0000AFA04FE2BEA0E0BC0F8C4BFD0F8C4BF63
:1003E00005FA04F44BEA0404C0F8C44F0CF1010C04
:1003F0000CF0FF0CBCF1080FE2D3D0F800C512F0EE
:10040000010F14BF4CEA010C2CEA010CC0F800C526
:10041000D0F804C512F0020F14BF4CEA010C2CEA0C
:10042000010CC0F804C5D0F808C512F0040F14BFC1
:100430004CEA010C2CEA010CC0F808C5D0F818C52C
:1004400012F0080F14BF4CEA010C2CEA010CC0F8A2
:1004500018C5D6F800C00CEA070CC44508D012F045
:10046000100FD0F83C250CBF8A430A43C0F83C2546
:10047000D0F80C2513F0010F14BF0A438A43C0F8CB
:100480000C25D0F8102513F0020F14BF0A438A433D
:10049000C0F81025D0F8142513F0040F14BF0A4338
:1004A0008A43C0F81425D0F81C2513F0080F14BF98
:1004B0000A438A43C0F81C2532683A40424511D0AD
:1004C000D0F8442513F4007F0CBF8A430A43C0F8D8
:1004D0004425D0F8402513F4407F14BF0A438A43D3
:1004E000C0F84025D0F82825002B0CBF114322EA84
:1004F0000101C0F82815BDE8F08F000000E00F40B2
:100500000000FF700000051050F82100704730B562
:100510000C4605460022FFF72AFF21462846BDE883
:10052000304008230122FFF737BF30B50C4605469F
:1005300008230122FFF730FF21462846BDE830405E
:100540000122FFF714BF40F82120704730B40A4D54
:100550002A680A4B9A421CBFD5F800C0002207D077
:100560005CF8224043F82240521C9B2AF8D32B60AF
:1005700043F8201030BC704708ED00E00004002074
:1005800010B500200749086000F0B0F946F2951058
:1005900000F0D6F9044800F0C7F900F0B5F900F012
:1005A000ACF910BD00000020190900002DE9F0038E
:1005B000AF4D02462868AF4B1840A0F18053B3F509
:1005C000A02359D002F03809DFF8AC82C2F38414BA
:1005D000B9F1100F25D0B9F1300F04BF47F23050F8
:1005E0004FF400130DD04FF03800904304BF4FF488
:1005F0000040C30105D012F0380F1CBF0020034695
:1006000013D09E4F12F4605F4FF0000618BF002217
:100610002CD057F8324044457DD307EBC2025268D4
:10062000E1E0002340461524EBE7A4F1090012287D
:1006300022D29348D5F87CC04FF04C7350F8240078
:100640002CF01C0C072CA8BF4CF0100CC5F87CC07B
:100650002E6D4FF4002C16F4807FD2D1BCF1010C2A
:100660000AD02E6D16F4807FF8D0CAE712F0380F4A
:1006700018BFB9F1100F04D0BDE8F0034FF000002F
:100680007047C2F30268DFF8FCC14FF0000257F870
:100690003290E14503D307EBC202526803E0521CDB
:1006A000062AF4D33246C5F8C020D5F8B020DFF8CA
:1006B000D8C102EA0C0242F00042C5F8B020DFF8CF
:1006C000CCC1A4F109024C1E5CF828C0A444BCFBB8
:1006D000F1FCD5F8B0101943C5F8B01008EBC8010B
:1006E00001EB41046A4902EB420201EBC40101EB58
:1006F00082046468C5F86441D5F864416FF0FF086E
:1007000008EB0C2C44EA0C0CC5F864C151F822101B
:10071000D5F8602100E061E002F400021143C5F861
:100720006011D5F86011D5F86021C1F38921C2F3B9
:100730000904D5F86421C2F3042202F1010CD5F8B2
:10074000642102F01F02521CB0FBF2F04A09C2F110
:1007500000084443424301EB481104EB5212484362
:1007600002EB9020B0FBFCF041080846002257F84D
:1007700032C0844503D307EBC200466802E0521C36
:10078000062AF4D3C5F8C060D5F8600110F4000F54
:100790001DBFD5F8B00040F08040C5F8B000D5F8D6
:1007A000600104BF40F40000C5F860014FF4004050
:1007B000D5F8682112F0010F02D1401E0028F7DCA5
:1007C000002808BF002148D0D5F8B000184340F0F9
:1007D000010040F01040C5F8B0003EE0521C062A6F
:1007E000FFF417AF3246C5F8C020D5F8602122F4D7
:1007F0000002C5F86021D5F8B020DFF898C002EA01
:100800000C0242F00042C5F8B020002908BF4FF0AA
:10081000000C0AD0B0FBF1FCBCF1000F18BFACF12A
:10082000010C0CF10101B0FBF1F10846002257F870
:100830003240844203D307EBC200466802E0521CF8
:10084000062AF4D3C5F8C060D5F8B00043EA8C227C
:10085000104340F00040C5F8B000D5F8B00020F4D7
:100860007000C5F8B000BDE8F0030846704700000E
:1008700000E00F400000FF700024F400080D0000AD
:10088000EC0A000040787D0100FC0FE0E40A000063
:10089000580B0000FF0300EFC0F307230749C0B265
:1008A000194401F07043C1F3130143EA411141EAD5
:1008B000800040F0007001220260704700E60F40A7
:1008C000C0F307220849C0B2114401F07042C1F3DD
:1008D000130142EA411141EA800040F000700068D3
:1008E000002818BF0120704700EA0F404FF0E020B9
:1008F000016921F00101016170474FF0E0200169B9
:1009000041F00501016170474FF0E020016941F0BD
:10091000020101617047000002480068401C014963
:10092000086070470000002010B501460F20FFF757
:100930000DFE4FF0E020016941F00201016110BDA0
:100940004FF0E021401E4861704700001CB50024B4
:10095000002500260027A246A34600200190009013
:100960008046814656494FF47A50FFF71FFEFFF745
:1009700007FE5448FFF790FF00BF5248FFF7A0FF63
:100980000028FAD04F48C01FFFF786FF00BF4D4830
:10099000C01FFFF795FF0028F9D04A48001FFFF756
:1009A0007BFF00BF4748001FFFF78AFF0028F9D0F0
:1009B00003214548FFF7B9FD11214448FFF7B5FD74
:1009C00003214348FFF7A3FD0A23012203214048E6
:1009D000FFF7E2FC73E03F480168019881420BD3C6
:1009E0003C48006800F57A70019084F001046200D0
:1009F00002213548FFF7A7FD36480168009881427B
:100A00000BD33448006800F5FA70009085F00105BA
:100A10002A4601212C48FFF796FDBAF1000F0FD0AE
:100A200001212B48FFF770FD00B32A4800684045BC
:100A30001CD34FF0000A2748006800F1370815E082
:100A400001212348FFF760FD80B922480068404536
:100A50000CD34FF0010A1F48006800F1370886F0F8
:100A60000106320110211948FFF76DFDBBF1000F9F
:100A70000FD002211648FFF747FD00B31548006864
:100A800048451CD34FF0000B1248006800F13709AD
:100A900015E002210E48FFF737FD80B90D480068C8
:100AA00048450CD34FF0010B0A48006800F13709A4
:100AB00087F001073A4601210448FFF744FD8AE721
:100AC00040787D010C0800F00040064000500240D4
:100AD00000D00340000000204FF04070E1EE100A0B
:100AE0007047000000688909001C4E0E40420F004C
:100AF00000201C0080841E0000802500999E360086
:100B00000040380000093D0000803E0000004B001E
:100B1000404B4C0000204E00808D5B0000C05D000B
:100B20000080700000127A0000007D00809698001E
:100B3000001BB7000080BB00C0E8CE00647ADA007A
:100B40000024F4000000FA0080A81201002D3101F9
:100B500000366E0140787D0140000000000000007A
:100B6000000100003E00080000000000000100003D
:100B7000A000000002000000000100003454010049
:100B800000000000000100002B70060000000000C3
:100B9000000100002800000000000000000100002B
:100BA00027000100000000000001000020000000FC
:100BB00000000000000100005000000002000000E2
:100BC000000100001AAC000000000000000100005D
:100BD00017940900000000000001000016980500AD
:100BE00000000000000100001400000000000000F0
:100BF0000001000013800800000000000001000058
:100C0000A00000000800000000010000100000002B
:100C100000000000000100002800000002000000A9
:100C2000000100004000000004000000000100007E
:100C30006000000000000000000100005D000C00EA
:100C40000000000000010000500000000000000053
:100C5000000100004E000200000000000001000042
:100C600041AC010000000000000100003C00000059
:100C700000000000000100003A80090000000000B0
:100C80000001000030000000000000000001000032
:100C90002800000000000000000100002700010003
:100CA00000000000000100002360060000000000BA
:100CB00000010000216008000000000000010000A9
:100CC0001E00000000000000000100001DC0040024
:100CD00000000000000100005000000002000000C1
:100CE00000010000180000000000000000010000EA
:100CF000140000000000000000010000600000007F
:100D000004000000000100000024F4003000300066
:100D1000005A62029100910000879303D200D20032
:100D200000B4C4041301130100E1F505540154019A
:100D3000000E270795019501580D000000000020C6
:100D40006C06000058020000680D00006C060020D0
:100D5000640200009402000001FF01FF01FF01FF97
:080D600001FF01FF0179000011
:0400000500000201F4
:00000001FF
