:020000040000FA
:10000000D00C0020010200001502000017020000C1
:10001000190200001902000019020000000000008F
:1000200000000000000000000000000019020000B5
:10003000190200000000000019020000190200006F
:100040001902000019020000190200001902000044
:100050001902000019020000190200001902000034
:100060001902000019020000190200001902000024
:100070001902000019020000190200001902000014
:100080001902000019020000190200001902000004
:1000900019020000190200001902000019020000F4
:1000A00019020000190200001902000019020000E4
:1000B00019020000190200001902000019020000D4
:1000C00019020000190200001902000019020000C4
:1000D00019020000190200001902000019020000B4
:1000E00019020000190200001902000019020000A4
:1000F0001902000019020000190200001902000094
:100100001902000019020000190200001902000083
:100110001902000019020000190200001902000073
:100120001902000019020000190200001902000063
:100130001902000019020000190200001902000053
:100140001902000019020000190200001902000043
:100150000000000000000000190200001902000069
:10016000190200001902000000000000190200003E
:100170001902000019020000190200001902000013
:100180001902000019020000190200001902000003
:1001900019020000190200001902000019020000F3
:1001A00019020000190200001902000019020000E3
:1001B00019020000190200001902000019020000D3
:1001C00019020000190200001902000019020000C3
:1001D00019020000190200001902000019020000B3
:1001E00019020000190200001902000019020000A3
:1001F0001902000019020000190200001902000093
:100200004EF68850CEF20000016841F470010160A2
:1002100000F004B8FEE7FEE7FEE7000000F002F899
:1002200000F04CF80AA090E8000C82448344AAF144
:100230000107DA4501D100F041F8AFF2090EBAE842
:100240000F0013F0010F18BFFB1A43F0010318470A
:10025000A8210000C82100000A4410F8014B14F046
:100260000F0508BF10F8015B240908BF10F8014B07
:100270006D1E05D010F8013B6D1E01F8013BF9D150
:10028000641E03D0641E01F8015BFBD19142E4D3EC
:10029000704700000023002400250026103A28BFE4
:1002A00078C1FBD8520728BF30C148BF0B607047E8
:1002B0001FB501F09FFC1FBD10B510BD00F01DF86B
:1002C0001146FFF7F5FF01F05BFA00F03BF803B4CD
:1002D000FFF7F2FF03BC00F043F8000002480349B7
:1002E000014A034B70470000D00A0020D00C0020C8
:1002F000D00A0020704770477047754600F02CF810
:10030000AE4605006946534620F00700854618B002
:1003100020B5FFF7E3FFBDE820404FF000064FF0A7
:1003200000074FF000084FF0000B21F00701AC462A
:10033000ACE8C009ACE8C009ACE8C009ACE8C00949
:100340008D46704710B50446AFF300802046BDE8E7
:100350001040FFF7BCBF0000004870476C0A002047
:1003600001491820ABBEFEE7260002007047D0F816
:10037000003412F0010F14BF0B438B43C0F800345C
:1003800012F0020FD0F8202414BF114322EA010119
:10039000C0F82014704700002DE9F04F574ED6F8F2
:1003A00000C0574FDFF85C810CEA070CC44524D02D
:1003B0004FF0000C4FF001094FF0030AC2F3411552
:1003C00009FA0CF40C4211D0D0F8C4BF4FEA4C0427
:1003D0000AFA04FE2BEA0E0BC0F8C4BFD0F8C4BF63
:1003E00005FA04F44BEA0404C0F8C44F0CF1010C04
:1003F0000CF0FF0CBCF1080FE2D3D0F800C512F0EE
:10040000010F14BF4CEA010C2CEA010CC0F800C526
:10041000D0F804C512F0020F14BF4CEA010C2CEA0C
:10042000010CC0F804C5D0F808C512F0040F14BFC1
:100430004CEA010C2CEA010CC0F808C5D0F818C52C
:1004400012F0080F14BF4CEA010C2CEA010CC0F8A2
:1004500018C5D6F800C00CEA070CC44508D012F045
:10046000100FD0F83C250CBF8A430A43C0F83C2546
:10047000D0F80C2513F0010F14BF0A438A43C0F8CB
:100480000C25D0F8102513F0020F14BF0A438A433D
:10049000C0F81025D0F8142513F0040F14BF0A4338
:1004A0008A43C0F81425D0F81C2513F0080F14BF98
:1004B0000A438A43C0F81C2532683A40424511D0AD
:1004C000D0F8442513F4007F0CBF8A430A43C0F8D8
:1004D0004425D0F8402513F4407F14BF0A438A43D3
:1004E000C0F84025D0F82825002B0CBF114322EA84
:1004F0000101C0F82815BDE8F08F000000E00F40B2
:100500000000FF70000005100E4AC0F30741D26ED4
:1005100001238B401A420C4A1ABF02EBC101496801
:1005200052F83110020AD1F82C354FF00F0C0CFAAA
:1005300002FC00F00F0023EA0C0390401843C1F8BE
:100540002C05704700E00F40881F000050F8210084
:10055000704730B50C4605460022FFF708FF2146DC
:100560002846BDE8304008230122FFF715BF30B50B
:100570000C46054608230122FFF70EFF21462846B8
:10058000BDE830400122FFF7F2BE30B50C4605460B
:100590000222FFF7ECFE21462846BDE83040092341
:1005A0000122FFF7F9BE30B50C4605460222FFF7DF
:1005B000DEFE21462846BDE8304008230122FFF731
:1005C000EBBE30B50C4605460222FFF7D0FE2146B1
:1005D0002846BDE8304008230122FFF7DDBE30B5D4
:1005E0000C4605460222FFF7C2FE21462846BDE81A
:1005F000304008230122FFF7CFBE40F8212070478A
:100600002DE9F04107460E461446002239461B48A4
:1006100000F0AAF82178194800F07AF80321174869
:1006200000F074F800BF154800F06AF80028FAD10D
:1006300001250FE0615D114800F06AF801210F48C3
:1006400000F064F800BF0D4800F05AF80028FAD115
:10065000681CC5B2701EA842ECDC215C074800F0A3
:1006600057F80521054800F051F800BF034800F095
:1006700047F80028FAD1BDE8F081000000000240F0
:100680002DE9F04107460E461446002239461B4824
:1006900000F06AF82178194800F03AF80321174869
:1006A00000F034F800BF154800F02AF80028FAD10D
:1006B00001250FE0615D114800F02AF801210F4883
:1006C00000F024F800BF0D4800F01AF80028FAD115
:1006D000681CC5B2701EA842ECDC215C074800F023
:1006E00017F80521054800F011F800BF034800F095
:1006F00007F80028FAD1BDE8F081000000300C4076
:10070000406810F0010018BF012070474160704739
:1007100081607047036A43F010030362002A14BF2C
:100720000E4A0F4A02EB820301EB830302EB8202C3
:1007300092005B1EB3FBF2F2521EC260D0F8C02FD3
:1007400012F0010F08BF7047064A1144521CB1FB5A
:10075000F2F1491E41F08001C1607047801A060025
:10076000A08601007F47370142EA410101607047DE
:100770001649042804BF086840F4803018D00528C2
:1007800004BF086840F4003012D0062812D00F28A9
:1007900015D0102838BF7047103800F01F01012213
:1007A00002FA01F142090A4850F82200016070473C
:1007B00008607047086840F48020086070474FF078
:1007C000E020016941F002010161704724ED00E081
:1007D000A823000030B40A4D2A680A4B9A421CBF75
:1007E000D5F800C0002207D05CF8224043F8224030
:1007F000521C9B2AF8D32B6043F8201030BC704762
:1008000008ED00E00004002010B5AE2000F055F81F
:10081000202000F052F8102000F04FF8B02000F037
:100820004CF8C82000F049F8002000F046F81020ED
:1008300000F043F8402000F040F8812000F03DF83F
:10084000FF2000F03AF8A12000F037F8A62000F0D1
:1008500034F8A82000F031F83F2000F02EF8A42052
:1008600000F02BF8D32000F028F8002000F025F845
:10087000D52000F022F8F02000F01FF8D92000F079
:100880001CF8222000F019F8DA2000F016F81220E7
:1008900000F013F8DB2000F010F8202000F00DF835
:1008A0008D2000F00AF8142000F007F8AF2000F0C7
:1008B00004F82E2000F001F810BD38B504460025DC
:1008C0008DF800508DF801406A4602213C20FFF768
:1008D00097FE38BD38B5044605A0006800908DF835
:1008E00001406A4602213C20FFF78AFE38BD000025
:1008F000400000002DE9FC4105460E461746F9B2BE
:10090000F0B200F02EF840208DF8000000240AE03C
:10091000A5F1200000EB800007490844015D601C40
:100920000DF80010C4B2052CF2DB6A4606213C200B
:10093000FFF766FEBDE8FC81101C00002DE9F041C8
:1009400004460F461646002506E03246761C605DDA
:100950003946FFF7CFFF6D1C605D0028F5D1BDE87B
:10096000F08170B505460C4605F1B001C8B2FFF73D
:10097000A4FFE107080FFFF7A0FFE100C1F3031197
:1009800001F11000FFF799FF70BD10B5AE2000F027
:1009900058F8D52000F055F8802000F052F8A82033
:1009A00000F04FF81F2000F04CF8D32000F049F879
:1009B000002000F046F8402000F043F88D2000F0C1
:1009C00040F8142000F03DF8DA2000F03AF8022058
:1009D00000F037F8812000F034F87F2000F031F883
:1009E000D92000F02EF8222000F02BF8DB2000F0B8
:1009F00028F8402000F025F8A42000F022F820205C
:100A000000F01FF8002000F01CF8A62000F019F8F4
:100A1000AF2000F016F810BD70B500240EE00021E4
:100A2000204600F0CEF8002504E0002000F034F865
:100A3000681CC5B2802DF8DB601CC4B2082CEEDB4C
:100A400070BD38B5044600258DF800508DF8014082
:100A50006A4602213C20FFF713FE38BD2DE9F04124
:100A600004460E4615460A2094FBF0F03030C7B21B
:100A70000A2094FBF0F100FB1140303000F0FF0839
:100A80002A463146384600F017F86A1C314640467F
:100A900000F012F8BDE8F08138B5044605A0006802
:100AA00000908DF801406A4602213C20FFF7E8FDE6
:100AB00038BD0000400000002DE9FC4105460F460E
:100AC0009046C8F10F02D1B2C7F10302D0B200F0D4
:100AD00078F840208DF80000042453E00026A5F1AA
:100AE000200000EB80002C490844005D06EBD01686
:100AF000A5F1200000EB80000844005D00F04000FC
:100B000006EB6016A5F1200000EB80000844005DB4
:100B100000F0200006EBE006A5F1200000EB8000CD
:100B20000844005D00F0100006EB6006A5F120000F
:100B300000EB80000844005D00F0080006EB400672
:100B4000A5F1200000EB80000844005D00F00400E7
:100B500006EBC006A5F1200000EB80000844005D14
:100B600000F0020006EB4016A5F1200000EB80002B
:100B70000844005D06EBC010C6B2C4F105000DF8D4
:100B80000060641E002CA9DA6A4606213C20FFF7AB
:100B900077FDBDE8FC810000101C00002DE9F0414C
:100BA00004460F461646002506E03246761C605D78
:100BB0003946FFF781FF6D1C605D0028F5D1BDE867
:100BC000F08170B505460C4605F1B001C8B2FFF7DB
:100BD00038FFE107080FFFF734FFE100C1F303110D
:100BE00001F11000FFF72DFF70BDD0F8C82F22F0E3
:100BF000070222F480721143C0F8C81F70470844EE
:100C000001686FF352011143016012F0020F14BF2B
:100C1000B0218C21016214BF4FF4306140F60C0109
:100C200041627047425842F0010242507047084406
:100C3000016811F0020F14BF5108511E0161704785
:100C4000002A826814BF114322EA010181607047C3
:100C500021F03F031844036813F0020F18BF520835
:100C600003699A1A11F0010F14BFC26182617047C3
:100C700070B5002419E004F1B001C8B2FFF71DFE01
:100C80000020FFF71AFE1020FFF717FE002508E0EE
:100C9000802101FB0451064A505CFFF71BFE681CD3
:100CA000C5B2802DF4DB601CC4B2082CE3DB70BD40
:100CB0006C060020002004E00021044A1154411C6D
:100CC00088B2B0F5806FF7DB704700006C0600203B
:100CD0002DE9F003AF4D02462868AF4B1840A0F154
:100CE0008053B3F5A02359D002F03809DFF8AC8265
:100CF000C2F38414B9F1100F25D0B9F1300F04BF3D
:100D000047F230504FF400130DD04FF038009043AD
:100D100004BF4FF40040C30105D012F0380F1CBFD0
:100D20000020034613D09E4F12F4605F4FF0000680
:100D300018BF00222CD057F8324044457DD307EB32
:100D4000C2025268E1E0002340461524EBE7A4F11B
:100D50000900122822D29348D5F87CC04FF04C737A
:100D600050F824002CF01C0C072CA8BF4CF0100CE1
:100D7000C5F87CC02E6D4FF4002C16F4807FD2D1C4
:100D8000BCF1010C0AD02E6D16F4807FF8D0CAE7B2
:100D900012F0380F18BFB9F1100F04D0BDE8F003FE
:100DA0004FF000007047C2F30268DFF8FCC14FF05B
:100DB000000257F83290E14503D307EBC2025268B4
:100DC00003E0521C062AF4D33246C5F8C020D5F8F9
:100DD000B020DFF8D8C102EA0C0242F00042C5F8A8
:100DE000B020DFF8CCC1A4F109024C1E5CF828C089
:100DF000A444BCFBF1FCD5F8B0101943C5F8B01001
:100E000008EBC80101EB41046A4902EB420201EB25
:100E1000C40101EB82046468C5F86441D5F86441FB
:100E20006FF0FF0808EB0C2C44EA0C0CC5F864C109
:100E300051F82210D5F8602100E061E002F40002D0
:100E40001143C5F86011D5F86011D5F86021C1F3E0
:100E50008921C2F30904D5F86421C2F3042202F106
:100E6000010CD5F8642102F01F02521CB0FBF2F015
:100E70004A09C2F100084443424301EB481104EB24
:100E80005212484302EB9020B0FBFCF041080846A8
:100E9000002257F832C0844503D307EBC2004668EE
:100EA00002E0521C062AF4D3C5F8C060D5F86001F0
:100EB00010F4000F1DBFD5F8B00040F08040C5F819
:100EC000B000D5F8600104BF40F40000C5F860012F
:100ED0004FF40040D5F8682112F0010F02D1401EF6
:100EE0000028F7DC002808BF002148D0D5F8B00062
:100EF000184340F0010040F01040C5F8B0003EE05B
:100F0000521C062AFFF417AF3246C5F8C020D5F8A8
:100F1000602122F40002C5F86021D5F8B020DFF886
:100F200098C002EA0C0242F00042C5F8B020002945
:100F300008BF4FF0000C0AD0B0FBF1FCBCF1000F71
:100F400018BFACF1010C0CF10101B0FBF1F1084646
:100F5000002257F83240844203D307EBC2004668B0
:100F600002E0521C062AF4D3C5F8C060D5F8B000E0
:100F700043EA8C22104340F00040C5F8B000D5F899
:100F8000B00020F47000C5F8B000BDE8F0030846DA
:100F90007047000000E00F400000FF700024F400E4
:100FA0003C2200002020000040787D0100FC0FE082
:100FB000182000008C200000FF0300EF70B44B4DA0
:100FC0002A6E296F11F0004F14BF01F0700002F07B
:100FD0003000202808BF464818D005DC88B110280A
:100FE00008BF444812D009E0302808BF47F230500B
:100FF0000CD0702808BF4FF4004007D070BC002010
:1010000070477C203C4B00EA121018584FF0FF3319
:1010100011F0004F02D011F4006F06D001F0004C27
:1010200002F400645CEA040C36D1D5F860C1D5F84E
:10103000644104F01F06C4F30424641C761C16FBF0
:1010400004F46400B0FBF4F0CCF309044443CCF3A3
:10105000892C00FB0CF0D5F810C004EB902042F472
:1010600080020CF4704CBCF5804F08BF234B13D0AA
:1010700009DCBCF5005F08BF214B0DD0BCF5405F1B
:1010800008BF204B08E0BCF5E04F08BF1E4B03D063
:10109000BCF5104F08BF1D4B12F4800F21D011F08A
:1010A000004F19D011F0804F09D011F4006F0CD00F
:1010B00001F0004C02F400625CEA020205D0C1F3C8
:1010C000C551491CB0FBF1F00BE04000C1F3865163
:1010D000491CB0FBF1F004E0C2F3C351491CB0FB62
:1010E000F1F0834238BF184670BC704700E00F40F3
:1010F00000093D000024F40020200000005A620294
:1011000000B4C40480F0FA0240787D01002D310162
:10111000C0F307230749C0B2194401F07043C1F37B
:10112000130143EA411141EA800040F000700122BE
:101130000260704700E60F40C0F307220849C0B2C2
:10114000114401F07042C1F3130142EA411141EA36
:10115000800040F000700068002818BF0120704730
:1011600000EA0F404FF0E020016921F00101016128
:1011700070474FF0E020016941F0050101617047BF
:101180004FF0E020016941F002010161704710B5A4
:1011900001460F20FFF71EFB4FF0E020016941F0F0
:1011A0000201016110BD4FF0E021401E486170470F
:1011B000816911F0100F0CBF00684FF0FF307047CD
:1011C000826912F0200FFBD101607047D0F818C07F
:1011D0001CF0080FFAD1D0F82CC02CF0100CC0F87D
:1011E0002CC0D0F830C02CF0010C2CF4407CC0F89E
:1011F00030C0D0F830C0B1EB021F34BF4CF0200C2F
:101200002CF0200CC0F830C038BF5208C900B1FB28
:10121000F2F1491C49088A09426201F03F018162EA
:10122000C36200218161C16A41F01001C162016B9A
:1012300040F20132114301637047C16A21F010018D
:10124000C162704741647047826B1143816370478C
:10125000124A10B5104B12684FF0080C104C224087
:10126000A2F18054B4F5202408BF0E4B002253F89D
:101270003240844203D103EBC200446803E0521CB5
:101280006245F4D300242046FFF7A4FA2046BDE8C7
:101290001040FFF76DBA00006C22000000E00F4024
:1012A0000000FF70AC220000002914BF006CC06B6E
:1012B0007047000010B5044621464FF4D060FFF798
:1012C00007FD0149086010BD140000202DE9FC4114
:1012D0004048077846788478C578232F03D03EA00D
:1012E00000F024FC73E0522E05D0542E03D03FA012
:1012F00000F01CFC6BE0302C0DD0312C0BD0322CCC
:1013000009D0332C07D0582C05D0532C03D040A043
:1013100000F00CFC5BE0302D07D0312D05D0542DB2
:1013200003D042A000F002FC51E0522E22D1A4F1E1
:10133000300000F0FF08302D0CD1404600F05EFB7D
:1013400042A103C9CDE900018DF80240684600F0D2
:10135000EDFB0EE0312D0CD1404600F081FB3DA1AC
:1013600003C9CDE900018DF80240684600F0DEFBBC
:1013700000BF2CE0542E2AD1582C17D1302D09D182
:1013800000F062FB35A103C9CDE90001684600F019
:10139000CDFB1CE0312D1AD100F088FB31A103C92F
:1013A000CDE90001684600F0C1FB10E0532C0ED1DE
:1013B00000F0AAF8403000F0FF082CA103C9CDE9E5
:1013C00000018DF80380684600F0B0FB00BFBDE867
:1013D000FC8100000C0000204D697373696E67206A
:1013E000737461727420627974650A00496E636F68
:1013F00072726563742068617264776172652073CC
:10140000656C656374696F6E20627974650A0000AB
:10141000496E636F7272656374206861726477618C
:10142000726520494420627974650A00496E636FD1
:10143000727265637420686172647761726520738B
:10144000746174757320627974650A0040520030CB
:101450000A000000405200310A0000004054583099
:101460000A000000405458310A0000004054530064
:101470000A00000000B5B0EE401ADFED040A61EE8C
:10148000200AB0EE600A00F003F800BD00007A44C4
:101490000A4908680BE009490968814207D00749F1
:1014A0000868F7EE000A70EE600AB0EE600AB5EE6A
:1014B000C00AF1EE10FAEED17047000018000020CB
:1014C00010B502210348FFF741F808B1012010BD13
:1014D0000020FCE70040064010B501210348FFF75B
:1014E00035F808B1012010BD0020FCE7004006409F
:1014F00010B510210348FFF729F808B1012010BDED
:101500000020FCE7005002402DE9F0410221134881
:10151000FFF71CF8C7B207B1012701210F48FFF7F9
:1015200015F8C4B204B1012410210D48FFF70EF8DC
:10153000C5B205B1012501210948FFF707F8C6B278
:1015400006B10126F80000EB840000EB45003044B2
:1015500000F0FF084046BDE8F08100000040064072
:101560000050024010B53E48FFF7D2FD00BF3C4896
:10157000FFF7E2FD0028FAD03A48FEF7C5FF3A48E7
:10158000FEF7C2FF04213948FFF70DF8082137485C
:10159000FEF7FBFF3248801CFFF7BAFD00BF304862
:1015A000801CFFF7C9FD0028F9D03148FEF7ACFFD9
:1015B0003048FEF7A9FF01212F48FEF7F4FF022172
:1015C0002D48FEF7E2FF2648001DFFF7A1FD00BFF2
:1015D0002348001DFFF7B0FD0028F9D0102127484F
:1015E000FEF7C5FF2648FEF78FFF01212348FEF7CF
:1015F000E8FF2348FEF788FF19480930FFF788FD08
:1016000000BF17480930FFF797FD0028F9D00F21D8
:101610001C48FEF79EFF0A2301220F211948FEF7FE
:10162000BBFE0F480A30FFF773FD00BF0C480A30BD
:10163000FFF782FD0028F9D0F0211348FEF789FF5B
:1016400007480B30FFF764FD00BF05480B30FFF77C
:1016500073FD0028F9D003210C48FEF788FF10BD68
:10166000010800F002080100020C010000500040D7
:10167000020003000204030000700040005002401A
:1016800006000500002006400030064000400640ED
:1016900010B51248FFF73CFD00BF1048FFF74CFDA6
:1016A0000028FAD0FFF78AFC0446002221460C48A5
:1016B000FFF730F80948C01DFFF72AFD00BF0748B3
:1016C000C01DFFF739FD0028F9D0FFF777FC04466D
:1016D000002221460348FFF71DF810BD002000F04E
:1016E0000000024000300C4070B586B020A00068B9
:1016F0000590204B0FCB01AC0FC40026002400BF87
:1017000031E005A8015D1C48FEF731FF05A8015D29
:1017100000221948FEF771FF0F211848FEF716FF47
:1017200005460F2D18D00E2D02D101A8065D0BE045
:101730000D2D02D102A8065D06E00B2D02D103A8F3
:10174000065D01E004A8065D05A8015D0A48FEF7F4
:1017500000FF304606B070BD05A8015D0648FEF7E3
:10176000F8FE601CC4B2042CCBDB3046F2E700006C
:1017700010204080001C0000003006400020064081
:101780004348FFF797FD00F01FF9FFF7EBFE4FF41A
:101790007A7000F0ADF800F0D9F9FFF779FFFFF7A4
:1017A00033F8FFF787FAFFF763FAFFF7EEF8FFF772
:1017B00033F96BE0FFF798FF044674B19FED350AEB
:1017C000FFF758FE204600F0FFF9232C05D100F06A
:1017D000E1F830203049087048703048007820B176
:1017E000FFF774FD00202D490870FFF769FE3030C7
:1017F000C5B2FFF771FE3030C6B2FFF779FE303068
:10180000C7B20022114626A0FFF798F80E22002149
:101810002846FFF76FF80022012125A0FFF78EF878
:101820000E2201213046FFF765F80022022124A094
:10183000FFF784F80E2202213846FFF75BF80022FA
:10184000114623A0FFF7AAF90C22002124480078B2
:10185000FFF704F90E2200212520FFF72DF90022C1
:10186000012120A0FFF79AF90B4908780B220121EA
:10187000FFF722F9084948780C220121FFF71CF9EB
:101880000D2201212520FFF717F900BF92E7000084
:10189000000E270700001643090000200800002062
:1018A0004C65642030207374617475733A200000B5
:1018B0004C65642031207374617475733A200000A4
:1018C0004C65642032207374617475733A20000093
:1018D00044757479206379636C653A2000000000D8
:1018E000000000204443206275666665723A20005D
:1018F00070B504461248FFF70BFC124800688509D2
:10190000B5FBF4F0401E1049086040F205110F4885
:10191000FFF76BF9002240210C48FFF770F90A48E5
:10192000402102680948FFF782F940210748FFF784
:1019300079F9002201210548FFF782F970BD000006
:10194000004000F01400002004000020008002404D
:1019500070B504460C4804702CB9002201210B48D4
:10196000FFF76EF90FE00A48006860436421B0FB9E
:10197000F1F52A4640210548FFF76AF90122114690
:101980000248FFF75DF970BD0000002000800240B2
:101990000400002010B50748407830380549097820
:1019A000303901EB810100EB4100C4B22046FFF762
:1019B000CFFF10BD0900002002480068401C01490B
:1019C000086070471800002010B5FFF7CBFB0848EF
:1019D00000680849B0FBF1F42046FFF7E4FB064835
:1019E000FFF7D5FBFFF7CCFBFFF7C3FB10BD0000F3
:1019F0001400002040420F00B919000010B5044641
:101A00002CB9002202210E48FEF7F7FD16E0012C4A
:101A100005D1002201210A48FEF7EFFD0EE0022C5D
:101A200005D1002210210748FEF7E7FD06E0032C50
:101A300004D1002201210348FEF7DFFD10BD0000A4
:101A4000004006400050024010B5002400BF04E0F2
:101A50002046FFF7D3FF601CC4B2042CF8DB10BD96
:101A600010B504462CB9022211460E48FEF7C5FDFA
:101A700016E0012C05D1012211460A48FEF7BDFDF2
:101A80000EE0022C05D1102211460748FEF7B5FDE5
:101A900006E0032C04D1012211460348FEF7ADFDF8
:101AA00010BD0000004006400050024010B5002468
:101AB00000BF04E02046FFF7D3FF601CC4B2042C33
:101AC000F8DB10BD70B501211448FFF7EDFB0546AA
:101AD00029461248FFF7B6FB1048FFF769FB04469A
:101AE000802C19DA0E480078401C0D4908700D480A
:101AF00040780C4908700846807848700846C078DD
:101B00008870CC7006480078042805D10120064969
:101B1000087000200249087070BD000000C000403D
:101B20000B0000200C0000200800002070B50546C6
:101B300000242C4604E021780348FFF741FB641C95
:101B400020780028F7D170BD00C0004010B51948BA
:101B5000FFF7DEFA00BF1748FFF7EEFA0028FAD0C9
:101B600060234FF4E132144801681448FFF72EFB5C
:101B70001248FFF762FB10211048FFF765FB104980
:101B80000E48FFF765FB0F48FFF7C2FA00BF0D488C
:101B9000FFF7D2FA0028FAD00120FEF7B5FC40F298
:101BA0000140FEF7B1FC03214FF04020FEF717FD86
:101BB00010BD0000001800F01400002000C000401C
:101BC000C51A0000000800F041280FD042280DD0AF
:101BD00043280BD0442809D02A2807D0232805D031
:101BE00003494978024A1170114648707047000055
:101BF000090000204FF04070E1EE100A704700002D
:101C000037383941343536423132334323302A4470
:101C1000000000000000005F000000070007001443
:101C20007F147F14242A7F2A122313086462364902
:101C30005522500005030000001C224100004122F3
:101C40001C0014083E081408083E08080050300024
:101C5000000808080808006060000020100804025E
:101C60003E5149453E00427F400042615149462174
:101C700041454B311814127F1027454545393C4AE0
:101C80004949300171090503364949493606494930
:101C9000291E003636000000563600000814224186
:101CA00000141414141400412214080201510906EE
:101CB000324979413E7E1111117E7F494949363EB4
:101CC000414141227F4141221C7F494949417F09CD
:101CD0000909013E4149497A7F0808087F00417F90
:101CE00041002040413F017F081422417F40404095
:101CF000407F020C027F7F0408107F3E4141413E3D
:101D00007F090909063E4151215E7F09192946468E
:101D10004949493101017F01013F4040403F1F20B7
:101D200040201F3F4038403F631408146307087089
:101D300008076151494543007F41410002040810F2
:101D4000200041417F000402010204404040404025
:101D5000000102040020545454787F484444383829
:101D600044444420384444487F3854545418087E2E
:101D70000901020C5252523E7F0804047800447D4F
:101D800040002040443D007F1028440000417F4037
:101D9000007C041804787C080404783844444438EF
:101DA0007C14141408081414187C7C0804040848D3
:101DB00054545420043F4440203C4040207C1C208C
:101DC00040201C3C4030403C44281028440C5050DB
:101DD000503C4464544C44000836410000007F00ED
:101DE000000041360800100808100878464146787F
:101DF000004000401000000000800540100000007E
:101E0000005000401100000000900540110000004B
:101E1000006000401200000000A005401200000019
:101E2000007000401300000000B0054013000000E7
:101E3000004002401400000000C0054014000000F3
:101E4000005002402E00000000D005402E0000008F
:101E5000006002402F00000000E005402F0000005D
:101E6000007002403000000000F00540300000002B
:101E700000D003404600000000000640460000007D
:101E80000010064047000000002006404800000007
:101E9000003006407F000000004006408000000047
:101EA0000050064084000000006006408C000000E6
:101EB00000400040100000000080054010000000BD
:101EC000005000401100000000900540110000008B
:101ED000006000401200000000A005401200000059
:101EE000007000401300000000B005401300000027
:101EF000004002401400000000C005401400000033
:101F0000005002402E00000000D005402E000000CE
:101F1000006002402F00000000E005402F0000009C
:101F2000007002403000000000F00540300000006A
:101F300000D00340430000000000064043000000C2
:101F4000001006404400000000200640450000004C
:101F500000300640580000000040064059000000D4
:101F6000005006405C000000006006406400000075
:101F7000007006406C000000008006406D0000000C
:101F8000009006407F0000000040004000800540B7
:101F900000500040009005400060004000A0054057
:101FA0000070004000B005400040024000C0054005
:101FB0000050024000D005400060024000E00540B3
:101FC0000070024000F0054000D0034000000640D1
:101FD0000010064000100640002006400020064089
:101FE00000300640003006400040064000400640F9
:101FF0000050064000500640006006400060064069
:1020000000700640007006400080064000800640D8
:10201000009006400090064000688909001C4E0EA2
:1020200040420F0000201C0080841E00008025001C
:10203000999E36000040380000093D0000803E00B7
:1020400000004B00404B4C0000204E00808D5B0098
:1020500000C05D000080700000127A0000007D006A
:1020600080969800001BB7000080BB00C0E8CE003F
:10207000647ADA000024F4000000FA0080A812015B
:10208000002D310100366E0140787D0140000000D6
:1020900000000000000100003E00080000000000F9
:1020A00000010000A000000002000000000100008C
:1020B0003454010000000000000100002B700600F5
:1020C00000000000000100002800000000000000E7
:1020D00000010000270001000000000000010000D6
:1020E000200000000000000000010000500000007F
:1020F00002000000000100001AAC00000000000017
:102100000001000017940900000000000001000019
:1021100016980500000000000001000014000000F7
:102120000000000000010000138008000000000013
:1021300000010000A00000000800000000010000F5
:102140001000000000000000000100002800000056
:102150000200000000010000400000000400000038
:10216000000100006000000000000000000100000D
:102170005D000C00000000000001000050000000A5
:1021800000000000000100004E00020000000000FE
:102190000001000041AC010000000000000100004F
:1021A0003C00000000000000000100003A8009002F
:1021B00000000000000100003000000000000000EE
:1021C00000010000280000000000000000010000E5
:1021D000270001000000000000010000236006004D
:1021E0000000000000010000216008000000000065
:1021F000000100001E0000000000000000010000BF
:102200001DC004000000000000010000500000009C
:1022100002000000000100001800000000000000A3
:102220000001000014000000000000000001000098
:102230006000000004000000000100000024F40021
:1022400030003000005A6202910091000087930331
:10225000D200D20000B4C4041301130100E1F5055B
:1022600054015401000E27079501950100C000405C
:102270001500000000D000401600000000E0004003
:102280003100000000F000404B0000000000014061
:102290004C000000001001404D00000000200140F3
:1022A0004E000000003001404F00000000C0004020
:1022B0001500000000D000401600000000E00040C3
:1022C0003100000000F00040480000000000014024
:1022D00049000000001001404A00000000200140B9
:1022E0004B000000003001404C00000000070000DF
:1022F00000060000000500000004000000030000CC
:1023000000020000000100000000000000000000CA
:1023100018ED00E01CED00E020ED00E000E400E03E
:1023200004E400E008E400E00CE400E010E400E075
:1023300014E400E018E400E01CE400E020E400E025
:1023400024E400E028E400E02CE400E030E400E0D5
:1023500034E400E038E400E03CE400E040E400E085
:1023600044E400E048E400E04CE400E050E400E035
:1023700054E400E058E400E05CE400E060E400E0E5
:1023800064E400E068E400E06CE400E070E400E095
:1023900074E400E078E400E07CE400E080E400E045
:1023A00084E400E088E400E000E100E004E100E013
:1023B00008E100E00CE100E010E100E080E100E075
:1023C00084E100E088E100E08CE100E090E100E0E1
:1023D00000E200E004E200E008E200E00CE200E0DD
:1023E00010E200E080E200E084E200E088E200E049
:1023F0008CE200E090E200E01824000000000020E1
:102400006C060000580200002C2400006C0600201E
:102410006406000094020000A103FF303001FF01B8
:0C242000FF01FF01FF01FF016E00000042
:0400000500000201F4
:00000001FF
