:020000040000FA
:10000000D00C0020010200001502000017020000C1
:10001000190200001902000019020000000000008F
:1000200000000000000000000000000019020000B5
:10003000190200000000000019020000190200006F
:100040001902000019020000190200001902000044
:100050001902000019020000190200001902000034
:100060001902000019020000190200001902000024
:100070001902000019020000190200001902000014
:100080001902000019020000190200001902000004
:1000900019020000190200001902000019020000F4
:1000A00019020000190200001902000019020000E4
:1000B00019020000190200001902000019020000D4
:1000C00019020000190200001902000019020000C4
:1000D00019020000190200001902000019020000B4
:1000E00019020000190200001902000019020000A4
:1000F0001902000019020000190200001902000094
:100100001902000019020000190200001902000083
:100110001902000019020000190200001902000073
:100120001902000019020000190200001902000063
:100130001902000019020000190200001902000053
:100140001902000019020000190200001902000043
:100150000000000000000000190200001902000069
:10016000190200001902000000000000190200003E
:100170001902000019020000190200001902000013
:100180001902000019020000190200001902000003
:1001900019020000190200001902000019020000F3
:1001A00019020000190200001902000019020000E3
:1001B00019020000190200001902000019020000D3
:1001C00019020000190200001902000019020000C3
:1001D00019020000190200001902000019020000B3
:1001E00019020000190200001902000019020000A3
:1001F0001902000019020000190200001902000093
:100200004EF68850CEF20000016841F470010160A2
:1002100000F004B8FEE7FEE7FEE7000000F002F899
:1002200000F04CF80AA090E8000C82448344AAF144
:100230000107DA4501D100F041F8AFF2090EBAE842
:100240000F0013F0010F18BFFB1A43F0010318470A
:10025000741F0000941F00000A4410F8014B14F0B2
:100260000F0508BF10F8015B240908BF10F8014B07
:100270006D1E05D010F8013B6D1E01F8013BF9D150
:10028000641E03D0641E01F8015BFBD19142E4D3EC
:10029000704700000023002400250026103A28BFE4
:1002A00078C1FBD8520728BF30C148BF0B607047E8
:1002B0001FB501F083F91FBD10B510BD00F01DF88A
:1002C0001146FFF7F5FF01F06DF800F03BF803B4BD
:1002D000FFF7F2FF03BC00F043F8000002480349B7
:1002E000014A034B70470000D00A0020D00C0020C8
:1002F000D00A0020704770477047754600F02CF810
:10030000AE4605006946534620F00700854618B002
:1003100020B5FFF7E3FFBDE820404FF000064FF0A7
:1003200000074FF000084FF0000B21F00701AC462A
:10033000ACE8C009ACE8C009ACE8C009ACE8C00949
:100340008D46704710B50446AFF300802046BDE8E7
:100350001040FFF7BCBF0000004870476C0A002047
:1003600001491820ABBEFEE72600020070470000DE
:1003700010B50446012C06D0022C0AD0032C0ED056
:10038000042C18D111E0E022F0210F4800F047F9C9
:1003900017E0D022F0210C4800F041F911E0B02222
:1003A000F021094800F03BF90BE07022F0210648EB
:1003B00000F035F905E0F0221146034800F02FF96E
:1003C00000BF00BF10BD000000300640D0F8003470
:1003D00012F0010F14BF0B438B43C0F8003412F02E
:1003E000020FD0F8202414BF114322EA0101C0F803
:1003F000201470472DE9F04F574ED6F800C0574FE4
:10040000DFF85C810CEA070CC44524D04FF0000CE7
:100410004FF001094FF0030AC2F3411509FA0CF439
:100420000C4211D0D0F8C4BF4FEA4C040AFA04FEC3
:100430002BEA0E0BC0F8C4BFD0F8C4BF05FA04F411
:100440004BEA0404C0F8C44F0CF1010C0CF0FF0C93
:10045000BCF1080FE2D3D0F800C512F0010F14BFB1
:100460004CEA010C2CEA010CC0F800C5D0F804C518
:1004700012F0020F14BF4CEA010C2CEA010CC0F878
:1004800004C5D0F808C512F0040F14BF4CEA010CE3
:100490002CEA010CC0F808C5D0F818C512F0080FF6
:1004A00014BF4CEA010C2CEA010CC0F818C5D6F8B0
:1004B00000C00CEA070CC44508D012F0100FD0F8A9
:1004C0003C250CBF8A430A43C0F83C25D0F80C25D4
:1004D00013F0010F14BF0A438A43C0F80C25D0F86B
:1004E000102513F0020F14BF0A438A43C0F81025E9
:1004F000D0F8142513F0040F14BF0A438A43C0F840
:100500001425D0F81C2513F0080F14BF0A438A43A2
:10051000C0F81C2532683A40424511D0D0F8442535
:1005200013F4007F0CBF8A430A43C0F84425D0F877
:10053000402513F4407F14BF0A438A43C0F8402586
:10054000D0F82825002B0CBF114322EA0101C0F886
:100550002815BDE8F08F000000E00F400000FF709C
:10056000000005100E4AC0F30741D26E01238B40F4
:100570001A420C4A1ABF02EBC101496852F8311005
:10058000020AD1F82C354FF00F0C0CFA02FC00F0E7
:100590000F0023EA0C0390401843C1F82C05704764
:1005A00000E00F40E01E000050F82100704730B519
:1005B0000C4605460022FFF709FF21462846BDE804
:1005C000304008230122FFF715BF30B50C46054621
:1005D00008230122FFF70EFF21462846BDE83040E0
:1005E0000122FFF7F3BE30B50C4605460222FFF7A5
:1005F000EDFE21462846BDE8304009230122FFF7E1
:10060000F9BE30B50C4605460222FFF7DFFE214653
:100610002846BDE8304008230122FFF7EBBE40F832
:100620002120704710B5144800F0F8FD134800F081
:10063000F5FD00BF104800F005FE0028FAD00F4875
:1006400000F000FE0028F5D00D48FFF78BFF0D48A5
:10065000FFF788FF04210C48FFF7D3FF08210A4861
:10066000FFF7C1FF00F030FD044600222146074895
:1006700000F0CEF810BD0000002000F0010800F0EE
:1006800002080100020C010000500040000002407E
:100690002DE9F04107460E461446002239461B4814
:1006A00000F0E0F82178194800F0B0F8032117486D
:1006B00000F0AAF800BF154800F0A0F80028FAD111
:1006C00001250FE0615D114800F0A0F801210F48FD
:1006D00000F09AF800BF0D4800F090F80028FAD119
:1006E000681CC5B2701EA842ECDC215C074800F013
:1006F0008DF80521054800F087F800BF034800F099
:100700007DF80028FAD1BDE8F08100000000024029
:1007100010B5144800F082FD134800F07FFD00BFC3
:10072000104800F08FFD0028FAD00F4800F08AFD35
:100730000028F5D00D48FFF715FF0D48FFF712FF11
:1007400001210C48FFF75DFF02210A48FFF74BFF2C
:1007500000F0BAFC044600222146074800F058F891
:1007600010BD0000072000F0030800F002000300A5
:10077000020403000070004000300C402DE9F041FD
:1007800007460E461446002239461B4800F06AF818
:100790002178194800F03AF80321174800F034F89E
:1007A00000BF154800F02AF80028FAD101250FE013
:1007B000615D114800F02AF801210F4800F024F88B
:1007C00000BF0D4800F01AF80028FAD1681CC5B225
:1007D000701EA842ECDC215C074800F017F80521E8
:1007E000054800F011F800BF034800F007F80028A2
:1007F000FAD1BDE8F081000000300C40406810F0F4
:10080000010018BF01207047416070478160704748
:10081000036A43F010030362002A14BF0E4A0F4A12
:1008200002EB820301EB830302EB820292005B1E68
:10083000B3FBF2F2521EC260D0F8C02F12F0010FCB
:1008400008BF7047064A1144521CB1FBF2F1491E21
:1008500041F08001C1607047801A0600A086010047
:100860007F47370142EA41010160704730B40A4DC9
:100870002A680A4B9A421CBFD5F800C0002207D054
:100880005CF8224043F82240521C9B2AF8D32B608C
:1008900043F8201030BC704708ED00E00004002051
:1008A00010B50F210A48FFF77FFE0446072C0BD036
:1008B0000B2C07D00D2C03D00E2C07D1012010BD1E
:1008C0000220FCE70320FAE70420F8E70020F6E71F
:1008D0000020064010B5AE2000F055F8202000F0B2
:1008E00052F8102000F04FF8B02000F04CF8C8206B
:1008F00000F049F8002000F046F8102000F043F81E
:10090000402000F040F8812000F03DF8FF2000F08A
:100910003AF8A12000F037F8A62000F034F8A8201B
:1009200000F031F83F2000F02EF8A42000F02BF862
:10093000D32000F028F8002000F025F8D52000F0A2
:1009400022F8F02000F01FF8D92000F01CF8222037
:1009500000F019F8DA2000F016F8122000F013F871
:10096000DB2000F010F8202000F00DF88D2000F0C2
:100970000AF8142000F007F8AF2000F004F82E2049
:1009800000F001F810BD38B5044600258DF8005080
:100990008DF801406A4602213C20FFF779FE38BD00
:1009A00038B5044605A0006800908DF801406A46FD
:1009B00002213C20FFF76CFE38BD00004000000023
:1009C00010B5AE2000F058F8D52000F055F8802082
:1009D00000F052F8A82000F04FF81F2000F04CF86B
:1009E000D32000F049F8002000F046F8402000F045
:1009F00043F88D2000F040F8142000F03DF8DA2094
:100A000000F03AF8022000F037F8812000F034F8C6
:100A10007F2000F031F8D92000F02EF8222000F0DD
:100A20002BF8DB2000F028F8402000F025F8A42067
:100A300000F022F8202000F01FF8002000F01CF841
:100A4000A62000F019F8AF2000F016F810BD70B520
:100A500000240EE00021204600F0B1F8002504E05B
:100A6000002000F017F8681CC5B2802DF8DB601C70
:100A7000C4B2082CEEDB70BD38B5044600258DF8F5
:100A800000508DF801406A4602213C20FFF776FEB7
:100A900038BD000038B5044605A0006800908DF808
:100AA00001406A4602213C20FFF768FE38BD000085
:100AB000400000002DE9FC4105460F469046C8F174
:100AC0000F02D1B2C7F10302D0B200F078F8402093
:100AD0008DF80000042453E00026A5F1200000EB6F
:100AE00080002C490844005D06EBD016A5F12000DB
:100AF00000EB80000844005D00F0400006EB60164B
:100B0000A5F1200000EB80000844005D00F020000B
:100B100006EBE006A5F1200000EB80000844005D34
:100B200000F0100006EB6006A5F1200000EB80004D
:100B30000844005D00F0080006EB4006A5F1200027
:100B400000EB80000844005D00F0040006EBC006E6
:100B5000A5F1200000EB80000844005D00F00200D9
:100B600006EB4016A5F1200000EB80000844005D74
:100B700006EBC010C6B2C4F105000DF80060641E9B
:100B8000002CA9DA6A4606213C20FFF7F7FDBDE8F4
:100B9000FC810000661B00002DE9F04104460F4671
:100BA0001646002506E03246761C605D3946FFF7A2
:100BB00081FF6D1C605D0028F5D1BDE8F08170B546
:100BC00005460C4605F1B001C8B2FFF755FFE10735
:100BD000080FFFF751FFE100C1F3031101F110000D
:100BE000FFF74AFF70BD000010B50A4800F016FB81
:100BF00000BF084800F026FB0028FAD00F21064865
:100C0000FFF7D5FC0A2301220F210348FFF7F2FB6F
:100C100010BD00000A0800F00020064010B507488B
:100C200000F0FCFA00BF054800F00CFB0028FAD0E9
:100C3000F0210348FFF7C9FC10BD00000B0800F0CD
:100C4000003006402DE9F84F80460D4691461E467D
:100C5000DDF828B0F01DC11700EB5171C91009B2C1
:100C600000914FF0000A002725E000241DE004F069
:100C7000070020B14FEA4A604FEA106A09E02046B7
:100C8000E11704EB5171CA10009907FB012119F813
:100C900001A00AF0800030B1A9B208EB040290B2C2
:100CA000012200F00DF8601C04B2B442DFDB781CB6
:100CB00007B2681C05B25F45D7DBBDE8F88F0000BE
:100CC000F0B503461446802B01DA402900DBF0BD65
:100CD000012C1CD1CD1701EB5575ED1003EBC5159B
:100CE000194E755D0A46CE1701EB5676F610A1EB4C
:100CF000C6070126BE403543EEB20846CD1701EBCC
:100D00005575ED1003EBC5150F4F7E551AE0CD1745
:100D100001EB5575ED1003EBC5150B4E755D0A46DD
:100D2000CE1701EB5676F610A1EBC6070126BE40A2
:100D3000B5430846CE1701EB5676F61003EBC61600
:100D4000014FBD5500BFC2E76C06002070B50024FE
:100D500019E004F1B001C8B2FFF715FE0020FFF75B
:100D600012FE1020FFF70FFE002508E0802101FB96
:100D70000451064A505CFFF713FE681CC5B2802D73
:100D8000F4DB601CC4B2082CE3DB70BD6C060020F1
:100D9000002004E00021044A1154411C88B2B0F53F
:100DA000806FF7DB704700006C06002010B5002054
:100DB0000749086000F05CFA064800F083FA06482C
:100DC00000F074FA00F062FA00F059FA10BD000069
:100DD000000000206D3801009D1200002DE9F00395
:100DE000AF4D02462868AF4B1840A0F18053B3F5D1
:100DF000A02359D002F03809DFF8AC82C2F3841482
:100E0000B9F1100F25D0B9F1300F04BF47F23050BF
:100E10004FF400130DD04FF03800904304BF4FF44F
:100E20000040C30105D012F0380F1CBF002003465C
:100E300013D09E4F12F4605F4FF0000618BF0022DF
:100E40002CD057F8324044457DD307EBC20252689C
:100E5000E1E0002340461524EBE7A4F10900122845
:100E600022D29348D5F87CC04FF04C7350F8240040
:100E70002CF01C0C072CA8BF4CF0100CC5F87CC043
:100E80002E6D4FF4002C16F4807FD2D1BCF1010CF2
:100E90000AD02E6D16F4807FF8D0CAE712F0380F12
:100EA00018BFB9F1100F04D0BDE8F0034FF00000F7
:100EB0007047C2F30268DFF8FCC14FF0000257F838
:100EC0003290E14503D307EBC202526803E0521CA3
:100ED000062AF4D33246C5F8C020D5F8B020DFF892
:100EE000D8C102EA0C0242F00042C5F8B020DFF897
:100EF000CCC1A4F109024C1E5CF828C0A444BCFB80
:100F0000F1FCD5F8B0101943C5F8B01008EBC801D2
:100F100001EB41046A4902EB420201EBC40101EB1F
:100F200082046468C5F86441D5F864416FF0FF0835
:100F300008EB0C2C44EA0C0CC5F864C151F82210E3
:100F4000D5F8602100E061E002F400021143C5F829
:100F50006011D5F86011D5F86021C1F38921C2F381
:100F60000904D5F86421C2F3042202F1010CD5F87A
:100F7000642102F01F02521CB0FBF2F04A09C2F1D8
:100F800000084443424301EB481104EB521248432A
:100F900002EB9020B0FBFCF041080846002257F815
:100FA00032C0844503D307EBC200466802E0521CFE
:100FB000062AF4D3C5F8C060D5F8600110F4000F1C
:100FC0001DBFD5F8B00040F08040C5F8B000D5F89E
:100FD000600104BF40F40000C5F860014FF4004018
:100FE000D5F8682112F0010F02D1401E0028F7DC6D
:100FF000002808BF002148D0D5F8B000184340F0C1
:10100000010040F01040C5F8B0003EE0521C062A36
:10101000FFF417AF3246C5F8C020D5F8602122F49E
:101020000002C5F86021D5F8B020DFF898C002EAC8
:101030000C0242F00042C5F8B020002908BF4FF072
:10104000000C0AD0B0FBF1FCBCF1000F18BFACF1F2
:10105000010C0CF10101B0FBF1F10846002257F838
:101060003240844203D307EBC200466802E0521CC0
:10107000062AF4D3C5F8C060D5F8B00043EA8C2244
:10108000104340F00040C5F8B000D5F8B00020F49F
:101090007000C5F8B000BDE8F003084670470000D6
:1010A00000E00F400000FF700024F40094210000D5
:1010B000781F000040787D0100FC0FE0701F0000E9
:1010C000E41F0000FF0300EF70B44B4D2A6E296F40
:1010D00011F0004F14BF01F0700002F03000202822
:1010E00008BF464818D005DC88B1102808BF44481E
:1010F00012D009E0302808BF47F230500CD07028D9
:1011000008BF4FF4004007D070BC002070477C201F
:101110003C4B00EA121018584FF0FF3311F0004F0B
:1011200002D011F4006F06D001F0004C02F400640C
:101130005CEA040C36D1D5F860C1D5F8644104F0FE
:101140001F06C4F30424641C761C16FB04F464001C
:10115000B0FBF4F0CCF309044443CCF3892C00FB3E
:101160000CF0D5F810C004EB902042F480020CF48F
:10117000704CBCF5804F08BF234B13D009DCBCF585
:10118000005F08BF214B0DD0BCF5405F08BF204B6E
:1011900008E0BCF5E04F08BF1E4B03D0BCF5104F74
:1011A00008BF1D4B12F4800F21D011F0004F19D051
:1011B00011F0804F09D011F4006F0CD001F0004CF9
:1011C00002F400625CEA020205D0C1F3C551491C79
:1011D000B0FBF1F00BE04000C1F38651491CB0FBBD
:1011E000F1F004E0C2F3C351491CB0FBF1F08342BB
:1011F00038BF184670BC704700E00F4000093D0042
:101200000024F400781F0000005A620200B4C404F5
:1012100080F0FA0240787D01002D3101C0F30723F0
:101220000749C0B2194401F07043C1F3130143EA06
:10123000411141EA800040F00070012202607047D5
:1012400000E60F40C0F307220849C0B2114401F084
:101250007042C1F3130142EA411141EA800040F0BB
:1012600000700068002818BF0120704700EA0F4096
:101270004FF0E020016921F00101016170474FF05A
:10128000E020016941F00501016170474FF0E02065
:10129000016941F0020101617047000002480068E5
:1012A000401C0149086070470000002010B501464D
:1012B0000F20FFF7DBFA4FF0E020016941F0020157
:1012C000016110BD4FF0E021401E4861704770B5CC
:1012D00000250120FFF74CF8FFF7E2FA04468CB135
:1012E000012C06D0022C06D0032C06D0042C08D1E9
:1012F00005E0372505E0342503E0312501E023250D
:1013000000BF00BF0220FFF733F8FFF7C9FA044619
:1013100094B18DB9012C06D0022C06D0032C06D036
:10132000042C08D105E0382505E0352503E03225F9
:1013300001E0302500BF00BF0320FFF719F8FFF7D9
:10134000AFFA044694B18DB9012C06D0022C06D018
:10135000032C06D0042C08D105E0392505E03625FC
:1013600003E0332501E02A2500BF00BF0420FEF77B
:10137000FFFFFFF795FA044694B18DB9012C06D012
:10138000022C06D0032C06D0042C08D105E0412500
:1013900005E0422503E0432501E0442500BF00BFEE
:1013A000284670BD08B50027B846B9460025152463
:1013B00066496748FFF712FDFFF7F8FCFFF714FCDA
:1013C000FFF72CFC6348006800F5FA67FFF72AF97D
:1013D000FFF780FAFFF7DCFC2D2080235E4A09210D
:1013E00000900020FFF72EFCFFF7B0FCFFF790F90C
:1013F000FFF7E6FAFFF72BFB0022114657A0FFF795
:10140000CBFB0022012157A0FFF7C6FB00220221DF
:1014100058A0FFF7C1FB002203215AA0FFF7BCFB35
:10142000092203213F20FFF745FB8EE0FFF74FFF26
:10143000064606B93F2647480068484508D3454850
:10144000006800F16409092203213046FFF732FBEE
:1014500040480068B84266D33E48006800F5FA6725
:10146000FFF796FC45B12D2080233B4A09210090CF
:101470000020FFF7E7FB4FE018200346454A002114
:1014800000900846FFF7DEFB18200346424A002181
:1014900000901A20FFF7D6FB182003463F4A002190
:1014A00000903620FFF7CEFB182003463C4A00216F
:1014B00000905220FFF7C6FB18200346394A00214E
:1014C00000906A20FFF7BEFB18200346364A1E2113
:1014D00000900020FFF7B6FB18200346334A1E2178
:1014E00000901A20FFF7AEFB18200346304A1E2159
:1014F00000903620FFF7A6FB182003462D4A1E2138
:1015000000905220FFF79EFB182003462A4A1E2116
:1015100000906A20FFF796FB0DB9012000E0002043
:101520000546FFF713FC0B48006840450DD30948FA
:10153000006800F24D180D2203212046FFF7BAFA89
:10154000601CC4B2802C00DB15246FE700B4C40417
:10155000100000F000000020C61500004044614C5F
:10156000757A0000454C463532202F20454C4637D1
:10157000340000005554465052202D204461656CC3
:101580006E000000546563636C613A205B205D2D42
:101590005B205D00DE18000026190000FE19000027
:1015A0006E190000B6190000461A00008E1A0000DD
:1015B000D61A00001E1B0000961800004FF0407065
:1015C000E1EE100A7047000000000000000000007B
:1015D000000000000000000000000000000000000B
:1015E00000000000000000000000000000000000FB
:1015F0000000000000001FE0001FFFFFFFFFFFFFD3
:10160000E000000000001FE0001FFFFFFFFFFFFFE2
:10161000F000000000001FE0001FFFFFFFFFFFFFC2
:10162000F000000000001FE0001FFFFFFFFFFFFFB2
:10163000F000000000001FE0001FFFFFFFFFFFFFA2
:10164000F000000000001FE0001FFFFFFFFFFFFF92
:10165000F000000000001FE0001FFFFFFFFFFFFF82
:10166000E000000000001FE0001FE00FF00000009D
:101670000000000000001FE0001FE00FF3FFFFFF6D
:10168000E000000000001FE0001FE00FF3FFFFFF7D
:10169000F000000000001FE0001FE00FF3FFFFFF5D
:1016A000F000000000001FE0001FE00FF3FFFFFF4D
:1016B000F000000000001FE0001FE00FF3FFFFFF3D
:1016C000F000000000001FE0001FE00FF3FFFFFF2D
:1016D000F000000000001FE0001FE00FF3FFFFFF1D
:1016E000E000000000001FE0001FE00FF3FC00001E
:1016F0000000000000001FE0001FE00FF3FDFFFFEF
:10170000F3FFF87FFF801FE0001FE00FF3FDFFFFF6
:10171000F3FFFC7FFFE01FE0001FE00FF3FDFFFF82
:10172000F3FFFE7FFFF01FE0001FE00FF3FDFFFF60
:10173000F3FFFF7FFFF01FE0001FE00FF3FDFFFF4F
:10174000F3F1FF7E07F81FE0001FE00FF3FDFFFF3E
:10175000F3E01FFE01F81FE0001FE00FF3FDFFFFA5
:10176000F3E01FFE01F81FE0001FE00FF3FDFE0095
:1017700003E01FFE01F81FE0001FE00FF3FDFE0075
:1017800003E01FFE01F81FE0001FE00FF3FDFE0065
:1017900003E03FFE03F81FF0003FE00FF3FDFE0003
:1017A00003FFFF7FFFF01FF0003FE00FF3FDFE009F
:1017B00003FFFF7FFFE01FF0003FE00FF3FDFE009F
:1017C00003FFFE7FFFC01FF0003FE00FF3FDFE00B0
:1017D00003FFFC7FFF001FF8007FE00FF3FDFE001A
:1017E00003FFF07E3F801FF8007FE00FF3FDFE0057
:1017F00003F0007E1FC00FFE01FFC00FF3FDFE00CF
:1018000003E0007E0FE00FFF87FFC00FF3FDFE0037
:1018100003E0007E07E007FFFFFF800FF3FDFE00FF
:1018200003E0007E07F003FFFFFF800FF3FDFE00E3
:1018300003E0007E03F801FFFFFF000FF3FDFE0051
:1018400003E0007E01F800FFFFFE000FF3FDFE0045
:1018500003E0007E01FC007FFFF8000FF3FDFE00B7
:1018600003E0007E00FE001FFFE0000FF3FDFE001E
:1018700003E0007E007E0001FE000000000000008A
:101880000000000000000000000000000000000058
:101890000000000000000F00780FFFF81FFFFC0C95
:1018A000E3980C00181C001C18000C38000E3800BF
:1018B0000E38000E38000E18000C1C001C0E0038EC
:1018C0000FE3F863E3E078E3803CC1801FC1800F41
:1018D000C18003C18000C18000C180000000000001
:1018E00000003C00007E0000E70000C30000C300D1
:1018F00000E700007E00003C000018000018007C9B
:10190000183E7C183E60180670180E70180E3818B5
:101910001C38181C1C18380F18F007DBE003FFC038
:1019200000FF000000000000000000003FFFFC7FFF
:10193000FFFE70000E60000660000660000660009A
:101940000660000660000660000660000660000693
:10195000601806703C0E7C7E3E3CFF3C01E7800137
:10196000C38003FFC003FFC00000000000000000B0
:10197000000000000000003FFFFC7FFFFE70000E33
:1019800060000660000660000600000600000678A1
:1019900000067E00061F000607800673C00679C099
:1019A000063CE0060EE00E6E67FE6667FC00000077
:1019B000000000000000000000007E0001FF800326
:1019C000E7C00381C00700E00700E00600600600F2
:1019D000600600600600600E00700E00700C0030A3
:1019E0001C00381C00383FFFFC3FFFFC00000000DB
:1019F0000000007E00007E00003C000000000000AF
:101A0000000000000000003FFFFC7FFFFE70000EA2
:101A10006000066000066000060000060000067810
:101A200000067E00061F000607800673C00679C008
:101A3000063CE0060EE00E6E67FE6667FC000000E6
:101A4000000000000000066600066600066600064C
:101A500066000666000000000000007FFFFC7FFFBC
:101A6000FE60006F60006760006360006360006795
:101A700060006F60007E60007C6000607000E07855
:101A800001E03FFFC01FFF800000000000000000D9
:101A9000000181800181801FFFF83FFFFC39819C9C
:101AA00031818C30000C30000C3FFFFC3FFFFC30DC
:101AB000000C30000C30000C30000C30000C3000FA
:101AC0000C30000C30000C30000C38001C3FFFFCC8
:101AD0001FFFF800000000000000000000000003ED
:101AE000F0000FFC001E3E0038070070038060010C
:101AF00080E001F8C000FCC0001EC00007E0000745
:101B0000E000036000037000073800073F001E0F6D
:101B1000FFFC07FFF80000000000000000000000CC
:101B20000000FF0003FFC007C3E00F00F01C0038F7
:101B300038001C38001C70C30E70C30E60000660B5
:101B40000006600006607E0670FF0E71E78E398128
:101B50009C38001C1C00380F00F007C3E003FFC0D6
:101B600000FF00000000000000000000005F000017
:101B70000007000700147F147F14242A7F2A1223F1
:101B80001308646236495522500005030000001C0A
:101B90002241000041221C0014083E081408083E9F
:101BA00008080050300000080808080800606000BD
:101BB0000020100804023E5149453E00427F40008B
:101BC00042615149462141454B311814127F10277B
:101BD000454545393C4A49493001710905033649B3
:101BE000494936064949291E003636000000563656
:101BF000000008142241001414141414004122148B
:101C0000080201510906324979413E7E1111117EC7
:101C10007F494949363E414141227F4141221C7F53
:101C2000494949417F090909013E4149497A7F08EB
:101C300008087F00417F41002040413F017F081498
:101C400022417F404040407F020C027F7F04081009
:101C50007F3E4141413E7F090909063E4151215ED7
:101C60007F09192946464949493101017F01013F50
:101C70004040403F1F2040201F3F4038403F6314FA
:101C800008146307087008076151494543007F4104
:101C9000410002040810200041417F0004020102BB
:101CA0000440404040400001020400205454547855
:101CB0007F484444383844444420384444487F38BA
:101CC00054545418087E0901020C5252523E7F08A7
:101CD00004047800447D40002040443D007F1028EB
:101CE000440000417F40007C041804787C08040410
:101CF0007838444444387C14141408081414187CAC
:101D00007C080404084854545420043F4440203CB8
:101D10004040207C1C2040201C3C4030403C44285B
:101D20001028440C5050503C4464544C4400083635
:101D3000410000007F000000413608001008081034
:101D4000087846414678000000400040100000003E
:101D5000008005401000000000500040110000000D
:101D600000900540110000000060004012000000DB
:101D700000A00540120000000070004013000000A9
:101D800000B00540130000000040024014000000B5
:101D900000C0054014000000005002402E0000006A
:101DA00000D005402E000000006002402F0000001F
:101DB00000E005402F0000000070024030000000ED
:101DC00000F005403000000000D003404600000055
:101DD00000000640460000000010064047000000DA
:101DE0000020064048000000003006407F00000050
:101DF00000400640800000000050064084000000C3
:101E0000006006408C000000004000401000000010
:101E1000008005401000000000500040110000004C
:101E2000009005401100000000600040120000001A
:101E300000A00540120000000070004013000000E8
:101E400000B00540130000000040024014000000F4
:101E500000C0054014000000005002402E000000A9
:101E600000D005402E000000006002402F0000005E
:101E700000E005402F00000000700240300000002C
:101E800000F005403000000000D003404300000097
:101E9000000006404300000000100640440000001F
:101EA00000200640450000000030064058000000B9
:101EB0000040064059000000005006405C00000051
:101EC0000060064064000000007006406C000000E6
:101ED000008006406D000000009006407F0000007A
:101EE0000040004000800540005000400090054048
:101EF0000060004000A005400070004000B00540B8
:101F00000040024000C005400050024000D00540A3
:101F10000060024000E005400070024000F0054013
:101F200000D00340000006400010064000100640AC
:101F300000200640002006400030064000300640E9
:101F40000040064000400640005006400050064059
:101F500000600640006006400070064000700640C9
:101F60000080064000800640009006400090064039
:101F700000688909001C4E0E40420F0000201C0022
:101F800080841E0000802500999E360000403800A5
:101F900000093D0000803E0000004B00404B4C001B
:101FA00000204E00808D5B0000C05D00008070004E
:101FB00000127A0000007D0080969800001BB70098
:101FC0000080BB00C0E8CE00647ADA000024F40090
:101FD0000000FA0080A81201002D310100366E01C8
:101FE00040787D014000000000000000000100007A
:101FF0003E0008000000000000010000A0000000FA
:102000000200000000010000345401000000000044
:10201000000100002B70060000000000000100001D
:10202000280000000000000000010000270001005F
:10203000000000000001000020000000000000007F
:10204000000100005000000002000000000100003C
:102050001AAC000000000000000100001794090005
:1020600000000000000100001698050000000000BC
:10207000000100001400000000000000000100004A
:10208000138008000000000000010000A000000014
:102090000800000000010000100000000000000027
:1020A0000001000028000000020000000001000004
:1020B000400000000400000000010000600000007B
:1020C00000000000000100005D000C0000000000A6
:1020D00000010000500000000000000000010000AE
:1020E0004E000200000000000001000041AC0100B1
:1020F00000000000000100003C00000000000000A3
:10210000000100003A80090000000000000100000A
:102110003000000000000000000100002800000066
:102120000000000000010000270001000000000086
:102130000001000023600600000000000001000014
:102140002160080000000000000100001E000000E7
:1021500000000000000100001DC00400000000009D
:10216000000100005000000002000000000100001B
:102170001800000000000000000100001400000032
:1021800000000000000100006000000004000000EA
:10219000000100000024F40030003000005A620208
:1021A0009100910000879303D200D20000B4C404D0
:1021B0001301130100E1F50554015401000E270736
:1021C00095019501E4210000000000206C0600004C
:1021D00058020000F42100006C0600206406000094
:1021E0009402000001FF01FF01FF01FF01FF01FF59
:0421F0000179000071
:0400000500000201F4
:00000001FF
