:020000040000FA
:100000001851002001020000150200001702000034
:10001000190200001902000019020000000000008F
:1000200000000000000000000000000019020000B5
:10003000190200000000000019020000190200006F
:100040001902000019020000190200001902000044
:100050001902000019020000190200001902000034
:100060001902000019020000190200001902000024
:100070001902000019020000190200001902000014
:100080001902000019020000190200001902000004
:1000900019020000190200001902000019020000F4
:1000A00019020000190200001902000019020000E4
:1000B00019020000190200001902000019020000D4
:1000C00019020000190200001902000019020000C4
:1000D00019020000190200001902000019020000B4
:1000E00019020000190200001902000019020000A4
:1000F0001902000019020000190200001902000094
:100100001902000019020000190200001902000083
:100110001902000019020000190200001902000073
:100120001902000019020000190200001902000063
:100130001902000019020000190200001902000053
:100140001902000019020000190200001902000043
:100150000000000000000000190200001902000069
:10016000190200001902000000000000190200003E
:100170001902000019020000190200001902000013
:100180001902000019020000190200001902000003
:1001900019020000190200001902000019020000F3
:1001A00019020000190200001902000019020000E3
:1001B00019020000190200001902000019020000D3
:1001C00019020000190200001902000019020000C3
:1001D00019020000190200001902000019020000B3
:1001E00019020000190200001902000019020000A3
:1001F0001902000019020000190200001902000093
:100200004EF68850CEF20000016841F470010160A2
:1002100000F004B8FEE7FEE7FEE7000000F002F899
:1002200000F060F80AA090E8000C82448344AAF130
:100230000107DA4501D100F055F8AFF2090EBAE82E
:100240000F0013F0010F18BFFB1A43F0010318470A
:10025000F81000001811000010F8013B0A4413F0D8
:10026000030408BF10F8014B1D1108BF10F8015B13
:10027000641E05D010F8016B641E01F8016BF9D102
:10028000002D15D010F8014B03F00C030C2BA1EB43
:1002900004040ABF10F8013BA4EB8314A4EB03246D
:1002A00005F1010314F8016B5B1E01F8016BF9D530
:1002B000914238BF10F8013BD1D37047002300248E
:1002C00000250026103A28BF78C1FBD8520728BF66
:1002D00030C148BF0B6070471FB500F02BFD1FBD3C
:1002E00010B510BD00F041F81146FFF7F5FF00F022
:1002F00099FC00F05FF803B4FFF7F2FF03BC00F0D5
:1003000067F8000002480349014A034B70470000A8
:10031000184F002018510020184F002000FB01F456
:100320004FF6FF75AC4228BF002019D24FF00006EF
:100330001F4607F5007527F8026BBD42FBD14FF051
:10034000020902EB040712F8018B08FB09F803EB22
:1003500008052E8806F101062E809742F3D120462B
:1003600070470000704770477047754600F02CF8E2
:10037000AE4605006946534620F00700854618B092
:1003800020B5FFF7BFFFBDE820404FF000064FF05B
:1003900000074FF000084FF0000B21F00701AC46BA
:1003A000ACE8C009ACE8C009ACE8C009ACE8C009D9
:1003B0008D46704710B50446AFF300802046BDE877
:1003C0001040FFF798BF000000487047B44E00206F
:1003D00001491820ABBEFEE7260002007047D0F8A6
:1003E000003412F0010F14BF0B438B43C0F80034EC
:1003F00012F0020FD0F8202414BF114322EA0101A9
:10040000C0F82014704700002DE9F04F574ED6F881
:1004100000C0574FDFF85C810CEA070CC44524D0BC
:100420004FF0000C4FF001094FF0030AC2F34115E1
:1004300009FA0CF40C4211D0D0F8C4BF4FEA4C04B6
:100440000AFA04FE2BEA0E0BC0F8C4BFD0F8C4BFF2
:1004500005FA04F44BEA0404C0F8C44F0CF1010C93
:100460000CF0FF0CBCF1080FE2D3D0F800C512F07D
:10047000010F14BF4CEA010C2CEA010CC0F800C5B6
:10048000D0F804C512F0020F14BF4CEA010C2CEA9C
:10049000010CC0F804C5D0F808C512F0040F14BF51
:1004A0004CEA010C2CEA010CC0F808C5D0F818C5BC
:1004B00012F0080F14BF4CEA010C2CEA010CC0F832
:1004C00018C5D6F800C00CEA070CC44508D012F0D5
:1004D000100FD0F83C250CBF8A430A43C0F83C25D6
:1004E000D0F80C2513F0010F14BF0A438A43C0F85B
:1004F0000C25D0F8102513F0020F14BF0A438A43CD
:10050000C0F81025D0F8142513F0040F14BF0A43C7
:100510008A43C0F81425D0F81C2513F0080F14BF27
:100520000A438A43C0F81C2532683A40424511D03C
:10053000D0F8442513F4007F0CBF8A430A43C0F867
:100540004425D0F8402513F4407F14BF0A438A4362
:10055000C0F84025D0F82825002B0CBF114322EA13
:100560000101C0F82815BDE8F08F000000E00F4041
:100570000000FF70000005100E4AC0F30741D26E64
:1005800001238B401A420C4A1ABF02EBC101496891
:1005900052F83110020AD1F82C354FF00F0C0CFA3A
:1005A00002FC00F00F0023EA0C0390401843C1F84E
:1005B0002C05704700E00F40D80E000030B50C4607
:1005C00005460222FFF70BFF21462846BDE83040D2
:1005D00008230122FFF718BF1649042804BF086842
:1005E00040F4803018D0052804BF086840F400307B
:1005F00012D0062812D00F2815D0102838BF704707
:10060000103800F01F01012202FA01F142090A48E4
:1006100050F822000160704708607047086840F495
:100620008020086070474FF0E020016941F002012E
:100630000161704724ED00E0F812000030B40A4D6B
:100640002A680A4B9A421CBFD5F800C0002207D086
:100650005CF8224043F82240521C9B2AF8D32B60BE
:1006600043F8201030BC704708ED00E0004C00203B
:1006700010B500200749086000F0EEF949F62D405A
:1006800000F014FA044800F005FA00F0F3F900F065
:10069000EAF910BD00000020850A000010B51948D5
:1006A00000F0B0F900BF174800F0C0F90028FAD0F8
:1006B00060234FF4E13214480168144800F001FA55
:1006C000124800F035FA1021104800F038FA1049AD
:1006D0000E4800F039FA0F4800F094F900BF0D48B9
:1006E00000F0A4F90028FAD00120FFF745FF40F2FE
:1006F0000140FFF741FF03214FF04020FFF75EFF6D
:1007000010BD0000001800F00400002000C00040F0
:10071000AD0B0000000800F02DE9F003AF4D0246DC
:100720002868AF4B1840A0F18053B3F5A02359D0EF
:1007300002F03809DFF8AC82C2F38414B9F1100F6B
:1007400025D0B9F1300F04BF47F230504FF40013F9
:100750000DD04FF03800904304BF4FF40040C30168
:1007600005D012F0380F1CBF0020034613D09E4F57
:1007700012F4605F4FF0000618BF00222CD057F82B
:10078000324044457DD307EBC2025268E1E00023CA
:1007900040461524EBE7A4F10900122822D2934821
:1007A000D5F87CC04FF04C7350F824002CF01C0C92
:1007B000072CA8BF4CF0100CC5F87CC02E6D4FF470
:1007C000002C16F4807FD2D1BCF1010C0AD02E6D22
:1007D00016F4807FF8D0CAE712F0380F18BFB9F1CD
:1007E000100F04D0BDE8F0034FF000007047C2F3D3
:1007F0000268DFF8FCC14FF0000257F83290E14583
:1008000003D307EBC202526803E0521C062AF4D35A
:100810003246C5F8C020D5F8B020DFF8D8C102EACA
:100820000C0242F00042C5F8B020DFF8CCC1A4F1C0
:1008300009024C1E5CF828C0A444BCFBF1FCD5F8AE
:10084000B0101943C5F8B01008EBC80101EB410422
:100850006A4902EB420201EBC40101EB82046468C5
:10086000C5F86441D5F864416FF0FF0808EB0C2C23
:1008700044EA0C0CC5F864C151F82210D5F8602187
:1008800000E061E002F400021143C5F86011D5F800
:100890006011D5F86021C1F38921C2F30904D5F8AC
:1008A0006421C2F3042202F1010CD5F8642102F0A4
:1008B0001F02521CB0FBF2F04A09C2F10008444387
:1008C000424301EB481104EB5212484302EB9020E3
:1008D000B0FBFCF041080846002257F832C08445BE
:1008E00003D307EBC200466802E0521C062AF4D389
:1008F000C5F8C060D5F8600110F4000F1DBFD5F831
:10090000B00040F08040C5F8B000D5F8600104BFE9
:1009100040F40000C5F860014FF40040D5F86821AC
:1009200012F0010F02D1401E0028F7DC002808BF9A
:10093000002148D0D5F8B000184340F0010040F045
:100940001040C5F8B0003EE0521C062AFFF417AF75
:100950003246C5F8C020D5F8602122F40002C5F85F
:100960006021D5F8B020DFF898C002EA0C0242F00E
:100970000042C5F8B020002908BF4FF0000C0AD093
:10098000B0FBF1FCBCF1000F18BFACF1010C0CF195
:100990000101B0FBF1F10846002257F832408442D1
:1009A00003D307EBC200466802E0521C062AF4D3C8
:1009B000C5F8C060D5F8B00043EA8C22104340F07F
:1009C0000040C5F8B000D5F8B00020F47000C5F8BC
:1009D000B000BDE8F00308467047000000E00F409B
:1009E0000000FF700024F4008C110000700F000064
:1009F00040787D0100FC0FE0680F0000DC0F000074
:100A0000FF0300EFC0F307230749C0B2194401F008
:100A10007043C1F3130143EA411141EA800040F001
:100A2000007001220260704700E60F40C0F3072209
:100A30000849C0B2114401F07042C1F3130142EA07
:100A4000411141EA800040F000700068002818BFA2
:100A50000120704700EA0F404FF0E020016921F0CB
:100A60000101016170474FF0E020016941F005018B
:100A7000016170474FF0E020016941F0020101611E
:100A80007047000002480068401C01490860704738
:100A90000000002010B501460F20FFF7CFFD4FF0FA
:100AA000E020016941F00201016110BD4FF0E02139
:100AB000401E48617047826912F0200FFBD101602F
:100AC0007047D0F818C01CF0080FFAD1D0F82CC02D
:100AD0002CF0100CC0F82CC0D0F830C02CF0010C59
:100AE0002CF4407CC0F830C0D0F830C0B1EB021F0D
:100AF00034BF4CF0200C2CF0200CC0F830C038BFB4
:100B00005208C900B1FBF2F1491C49088A09426246
:100B100001F03F018162C36200218161C16A41F03D
:100B20001001C162016B40F2013211430163704751
:100B3000C16A21F01001C162704741647047826B45
:100B40001143816370470000124A10B5104B1268C0
:100B50004FF0080C104C2240A2F18054B4F5202430
:100B600008BF0E4B002253F83240844203D103EBFE
:100B7000C200446803E0521C6245F4D300242046BE
:100B8000FFF75CFD2046BDE81040FFF725BD0000E3
:100B9000BC11000000E00F400000FF70FC110000DD
:100BA000002914BF006CC06B7047000010B5012114
:100BB0000448FFF7F5FF044621460248FFF7BDFF52
:100BC00010BD000000C0004070B504460A2C06DAD3
:100BD00004F13000C1B20C48FFF76DFF70BD0A2070
:100BE00094FBF0F085B22846FFF7EEFF0A2094FB55
:100BF000F0F100FB11403030C5B229460248FFF742
:100C00005AFF00BFEAE7000000C0004030B50346CD
:100C10000C4604E01D782570641C5B1C521E002AE3
:100C2000F8D130BD70B5ADF5007D15491548FFF719
:100C300073FD15490860FFF71BFDFFF72FFD4822E4
:100C400012491348401EFFF7E1FF104C641C6B462D
:100C5000104A04210320FFF761FB0546684600F0B7
:100C60001DF86B460C4AA0217820FFF757FB06467B
:100C7000684600F013F800200DF5007D70BD0000FF
:100C8000000E2707800600F1040000206C4E0020B3
:100C90001D030000080000201400002070B5054668
:100CA00053212348FFF707FF0D212148FFF703FFDA
:100CB0000A211F48FFF7FFFE58211D48FFF7FBFEE2
:100CC0002C211B48FFF7F7FE59211948FFF7F3FEC7
:100CD0000D211748FFF7EFFE0A211548FFF7EBFE3D
:100CE000002400BF14E02046FFF76EFF2C211048BF
:100CF000FFF7E1FE35F81400FFF766FF0D210C4801
:100D0000FFF7D9FE0A210A48FFF7D5FE601C84B21E
:100D1000FF2CE8DD45210648FFF7CDFE0D210448F4
:100D2000FFF7C9FE0A210248FFF7C5FE70BD0000AB
:100D300000C000404FF04070E1EE100A7047000024
:100D4000004000401000000000800540100000003E
:100D5000005000401100000000900540110000000C
:100D6000006000401200000000A0054012000000DA
:100D7000007000401300000000B0054013000000A8
:100D8000004002401400000000C0054014000000B4
:100D9000005002402E00000000D005402E00000050
:100DA000006002402F00000000E005402F0000001E
:100DB000007002403000000000F0054030000000EC
:100DC00000D003404600000000000640460000003E
:100DD00000100640470000000020064048000000C8
:100DE000003006407F000000004006408000000008
:100DF0000050064084000000006006408C000000A7
:100E0000004000401000000000800540100000007D
:100E1000005000401100000000900540110000004B
:100E2000006000401200000000A005401200000019
:100E3000007000401300000000B0054013000000E7
:100E4000004002401400000000C0054014000000F3
:100E5000005002402E00000000D005402E0000008F
:100E6000006002402F00000000E005402F0000005D
:100E7000007002403000000000F00540300000002B
:100E800000D0034043000000000006404300000083
:100E9000001006404400000000200640450000000D
:100EA0000030064058000000004006405900000095
:100EB000005006405C000000006006406400000036
:100EC000007006406C000000008006406D000000CD
:100ED000009006407F000000004000400080054078
:100EE00000500040009005400060004000A0054018
:100EF0000070004000B005400040024000C00540C6
:100F00000050024000D005400060024000E0054073
:100F10000070024000F0054000D003400000064091
:100F20000010064000100640002006400020064049
:100F300000300640003006400040064000400640B9
:100F40000050064000500640006006400060064029
:100F50000070064000700640008006400080064099
:100F6000009006400090064000688909001C4E0E63
:100F700040420F0000201C0080841E0000802500DD
:100F8000999E36000040380000093D0000803E0078
:100F900000004B00404B4C0000204E00808D5B0059
:100FA00000C05D000080700000127A0000007D002B
:100FB00080969800001BB7000080BB00C0E8CE0000
:100FC000647ADA000024F4000000FA0080A812011C
:100FD000002D310100366E0140787D014000000097
:100FE00000000000000100003E00080000000000BA
:100FF00000010000A000000002000000000100004D
:101000003454010000000000000100002B700600B5
:1010100000000000000100002800000000000000A7
:101020000001000027000100000000000001000096
:10103000200000000000000000010000500000003F
:1010400002000000000100001AAC000000000000D7
:1010500000010000179409000000000000010000DA
:1010600016980500000000000001000014000000B8
:1010700000000000000100001380080000000000D4
:1010800000010000A00000000800000000010000B6
:101090001000000000000000000100002800000017
:1010A00002000000000100004000000004000000F9
:1010B00000010000600000000000000000010000CE
:1010C0005D000C0000000000000100005000000066
:1010D00000000000000100004E00020000000000BF
:1010E0000001000041AC0100000000000001000010
:1010F0003C00000000000000000100003A800900F0
:1011000000000000000100003000000000000000AE
:1011100000010000280000000000000000010000A5
:10112000270001000000000000010000236006000D
:101130000000000000010000216008000000000025
:10114000000100001E00000000000000000100007F
:101150001DC004000000000000010000500000005D
:101160000200000000010000180000000000000064
:101170000001000014000000000000000001000059
:101180006000000004000000000100000024F400E2
:1011900030003000005A62029100910000879303F2
:1011A000D200D20000B4C4041301130100E1F5051C
:1011B00054015401000E27079501950100C000401D
:1011C0001500000000D000401600000000E00040C4
:1011D0003100000000F000404B0000000000014022
:1011E0004C000000001001404D00000000200140B4
:1011F0004E000000003001404F00000000C00040E1
:101200001500000000D000401600000000E0004083
:101210003100000000F000404800000000000140E4
:1012200049000000001001404A0000000020014079
:101230004B000000003001404C000000000700009F
:10124000000600000005000000040000000300008C
:10125000000200000001000000000000000000008B
:1012600018ED00E01CED00E020ED00E000E400E0FF
:1012700004E400E008E400E00CE400E010E400E036
:1012800014E400E018E400E01CE400E020E400E0E6
:1012900024E400E028E400E02CE400E030E400E096
:1012A00034E400E038E400E03CE400E040E400E046
:1012B00044E400E048E400E04CE400E050E400E0F6
:1012C00054E400E058E400E05CE400E060E400E0A6
:1012D00064E400E068E400E06CE400E070E400E056
:1012E00074E400E078E400E07CE400E080E400E006
:1012F00084E400E088E400E000E100E004E100E0D4
:1013000008E100E00CE100E010E100E080E100E035
:1013100084E100E088E100E08CE100E090E100E0A1
:1013200000E200E004E200E008E200E00CE200E09D
:1013300010E200E080E200E084E200E088E200E009
:101340008CE200E090E200E0681300000000002062
:101350006C4E0000580200000C5B00006C4E002038
:10136000AC020000BC020000520001100A14101070
:1013700012FFFF0000200120A113131311968032E9
:101380007A36ADA3A7A9AAAAAAADACADAFB0ACAF4F
:10139000AB8C42EFE4E6B8EBE5E9E9ECEAEBEBEC29
:1013A000ECEEECECEDEAEAEAECEDE8E2D9D7CECBF4
:1013B000C6C0BFB7B4AB9F9B89867D70655B574C39
:1013C0004C493F42AD9E9E9D9F9F9D9E9C9FA5A484
:1013D0009FA29CA29FA19C9DA3A1A3A4A5A6A6A5F4
:1013E000A9A9A2A9A6A6AAA9ABA9EAE3E5E3E2DE18
:1013F000DFDFDDDCD9DBD7D6D3B87B6C9AA19F9F2A
:10140000A1A59C9E9B9E9A969A97949494928D8B5C
:101410008A89817973664D6B37A010208F87156B91
:101420003BACAAA6A9AAABAAAFADACB2AFADB1AB6B
:101430009443F5E5E4A8EBE4E6EAE8962010E9EB4E
:10144000EEECEEEDECEEEEEDE1939C949A031016CB
:101450009E9C969A959598967D979092938C8C8960
:101460008D89ABA4ABE11004ABACAB481021ABABA6
:10147000ACAAACABACA8ADA9ABADAFAFACB0ABB0A8
:10148000ABB1ADACAFAC9F76EEE4E6E4E1DFA1201A
:1014900026DCDCDBDCD7D4BE7669989FA1A09D9DBD
:1014A000A19F9B9A9B9698949593968F908F8C88EA
:1014B000857E77654D63A0100D1336371F3037AD2D
:1014C000A8A4A9A9AB9B2015B0B1ACACACA58C422B
:1014D000F5E3E1A4E8DEE5E6E6E9E9EB0112EC027A
:1014E0002023EDECDE89B33050565C616162696D9A
:1014F0006F747B847E818081858287888B8D84B2A6
:10150000A6A8A9A9E411E713ACAC0522AB94100975
:10151000ADADACB1ABAAADAB0A2035ACAAAA9F7CED
:10152000EDE3E4E2DFDFDFE2DCDEDCDAD7D9D3C4EF
:101530007D5D9B9B9C9E9F9EA39D9D9B9A969C9A46
:10154000929590938D908C86887D7462495633A0D5
:10155000140C9A97989F9C9E9A9FA2A9ACDE12AAFF
:10156000FA1010A89F973AF5E3E298DCDEE3E6E98B
:10157000EAE99B16EA4216EDE81423E1819C8527EF
:101580002D342F3334323330312F302F30262F3655
:10159000333632343333B4A2A8A9ACAAA8C5154453
:1015A000119E1005ADAAADA9A932AC9C1804A9AD35
:1015B000AC361424A9A27FEBE1E4E0DEDFE0DCDE60
:1015C000DBDADCDAD9D3C279669EA2A29F9FA6A1FC
:1015D000A29F9D979797938D140D898988877B7A11
:1015E000716B5845562C3F542214807E828188901E
:1015F0008E95A2A1A8A9AFB2B0B2B0B1B0B2933EDD
:10160000F3E8D355A6E1E6E3E6EA3B19867010ED70
:10161000EEE5739086292D3232302B181713011006
:101620000D3130332F37B2A4A9A8A9ABA89416ABBB
:10163000D612AAA81407ADAEADADABAEE81005AC9E
:10164000ABADABA8100EACACA17BE3DBDFDEDEDD27
:10165000DEDBDD9F2413D7D9D6C476699A9FA3A178
:10166000A2A4A2A19F9D9C9CE3240E959792928E8A
:101670008E8A7E7B61425729402423AAA1A1A3A57B
:10168000A5AAABA9ACADB0B1B1B1B3B1B0B0B2978E
:101690003AF1D1454C4FD4D4D2DAE8E9EADC15442A
:1016A0001049EDEBEDE67273873033363431BECD41
:1016B000C8C6C6BEC0BBB9B0B2D3CE2A3A34323ADD
:1016C000B08C949091908C898B8C8D8D898D8C8E23
:1016D0008B8B8C8B8D8D918E8F94949595959798FF
:1016E0009D9B9EA59D93E2DDDCDDA1119F100BDB90
:1016F000D6DAD6D5C478639BA29F23A49EA02808DF
:101700009D9B9897969692D1300886867664495527
:1017100023A02C06A3A2A6A4A6BC032418AFB0AF96
:10172000B0B2AEB0AFAFB09A3FE4BF966F48C1C69B
:10173000C8CEEAEBE21EEBC3031C28EDE9E9EA6838
:10174000488931343A3631CF5B787FA18E9B8F9CAC
:10175000945DA18E363B343339B0959CA3A5A3A3E9
:10176000A29B8F031805A29FA29D34100A9F9FA2DF
:101770009FA4A6A4A5A30726A1211018877FD3D5CF
:10178000D7DDDAD9DCD9DAD9DBD6D6D6D4C76F54CF
:101790009E9EA3A2112B1E9C750320119A9A9792CC
:1017A0009694908F8F84847F69484E22A01FAFA1AA
:1017B0000404159B1D6B031017B3ACB1B1B2B1B0EB
:1017C000AEB09C3EDFC2483D49B0D2DAD9E4E9A2CE
:1017D00015E01464ECECEBEAEEE9627B8632373913
:1017E0003631CC70787780768885928992DADE2ED1
:1017F0003B343437AFA8B5B7B8B8B8B7BAB7BBB988
:10180000B9BABBBDBBB8BAB8BABDB9BABABFBBB931
:10181000BDB9B9B8BAB2B4B78F82CFCECFD7D7DA05
:10182000D5D9D6DADBD9D7D6D6C66F639EA1A5A106
:10183000A5A4A5A4A19D9DE21A9885280C95938F37
:101840008E8B807D6A4B551E801C04ABA29F6F035C
:101850001D07041DFB041404B0B1B2451C10B1B245
:101860009849D9C5423B489FB3BFC9E6EA02051073
:1018700004EBEBEE061027EAEBE9607E8631363AA0
:10188000382CDFDAE2DDDDD6D7D0D5D3D2CAD330DB
:1018900038343239B0A5ABB2B1B4B7B4B304102008
:1018A000B8B4B6B8B8B4B8B7B9B8BBBDBDBBBAB8B0
:1018B000B6B9B8B6B6ADB3B29881CECCCFCED099CA
:1018C0001C05D7D7D9D50005140EC96C639DA3A2FA
:1018D000A49F9EA29EA5A1721C069D979C9796050B
:1018E000052009938C847C6C4F571CA01809AC68A8
:1018F0002934363631267912B19B19841413B0B0CD
:10190000984ADBD4AD56A6BFD7D5B1A49B94A3EB20
:10191000DA29831026E9EB54788636363B3730D403
:101920009FA8A197A181819A90D5CFE62D39363213
:1019300037B0A4B0B1B3B4B6BAB89F1406B7BDB946
:10194000BBBB4511061005BFC0C1BDA51004BEBA82
:10195000BEA5100B9D82CCCBCBCFCCD0D0D7A01CBA
:1019600008D7D5D4D3C965695B04180BA3A6A7AB68
:10197000A5ADA49E9C9B811395969F2C09938E8563
:101980007F6A4C531B40061C10AC736B4158715D51
:101990004DB3B1AFB2B1B2B223031414AFAD9A5A82
:1019A000E2DDD7B2A5A5B09D858486899FEBE94588
:1019B0002AE8891C0947718234373A383B190514E3
:1019C00018E1E4E3E4E3E2E4E8E1EB2C3836343810
:1019D000AEA8B2B4B8B8B9BCDF1404BCBBB83713F6
:1019E000BCB9951415BDBABDC0BCBFBBBDBAB9B9B1
:1019F000B7B8B09D88C7C8CBCD421C15D3D2D6D7B7
:101A0000D6D9D5D2CD5957A0A1A1A1ADBFC0CCC7C1
:101A10007E061DA4052699404008928F8C827D6524
:101A20004AA01C0BAD6CF1FEC82A7E6AB0B4BA03A2
:101A3000181AAFB2B4AFB0ADAC9D5FE1DDCA515E74
:101A40006462616A857F78A3E9EBE6841D2903342B
:101A500021F0456C78373938373AB24F6968448C91
:101A60008E90B01AA6C6D42D39373437AAA6B1B194
:101A7000B6D41C30B7B6B7B7B9BBBABBB4B8B9BBEC
:101A8000B7BCBEBEBABAB8BCB7B7B7B3B6B29D881A
:101A9000C6C7CBCDCECECDCFCFD3D4D6D7D3D2CF52
:101AA00038669CC0031C1AB2BFBBB2D09F9F9C9CDF
:101AB0009D9999989895968F8F8D827D6D4955182F
:101AC000E0061C0B10AF7036D7FDFD306FAFF80489
:101AD0001C19B0B4B4B4AFADAFACA164E2DFC95A65
:101AE0007E87626D82888C8FACEAA6051426EBEBAC
:101AF000E9EDEAEF3E62703B3739343BE4DEBBC0D0
:101B0000ABDABAC9D6E2D090C02D38333739ACA59C
:101B1000AFADB7DC12B89D16B62E17BAB745254043
:101B20001404B8B7BEEC15402C21B6B2A08DC0C5C8
:101B3000C9CFCCCCCDCDCFD2CFD4D5D6D5D3416B98
:101B4000A09EA3A3A3B6B4B0A8A420031D2D064055
:101B50000C97989493908E86846A4E53A01C096DBE
:101B6000464C6AFDFDB0B499051C19B3B3B2B3B3CA
:101B7000AFAFABA16DDEDFC45D8D9C6972798186EC
:101B800084B2E9280815DF1423EAE8F03B5A793AD1
:101B9000393A343DE4E2D2D4A4D6D3E2E219704516
:101BA000552B37373438ABA4B1B0B8251405B7B4CA
:101BB000B9B8443C06B7B7B8BABAD10311B216B631
:101BC00059140FB2B3B4B09C8EBBC2CCC9CCC9CE31
:101BD000CB431C0CD0D3CFD3D3476B9E9D898EB6FD
:101BE00003100994969594929A9C9BA11A96802C26
:101BF000078C897F6F505104061C0C11AD693F4260
:101C0000483AF4FA9CAA1D032AAF812C41ACAAA140
:101C100079E1E3D0B7B4B6B29E929FA4AACDEBEE21
:101C2000F0F2F3F0EAE8E5EB385B7A3B393B3A3E19
:101C3000E6D9C2C893D4C9E1E1CEC698942C393410
:101C4000333DADA5B1B0B4B5B6B3B6B6B6B00310BA
:101C500005B5B8B6B70723B4B7032EB2C003182929
:101C6000B3B3B19C8FBDC4CBCBCCCCCBCECED0CD7F
:101C7000D0D0CED0D44E699B9D8EA9B3B48E89901E
:101C80008D948D9F9C9A9C9D81140A939289828247
:101C90006D4E5416401C0B0FAF683F3A41443B7FDA
:101CA000AD1D083DBD033C39B0ADABA47BDCDEB35C
:101CB0004A645A519FD4E5DE77565553504C4849F3
:101CC0004EA9DBEF3F4D7A3D3E3B393FE5DEABAA07
:101CD00072B0CEDFDF3ABCB6B42B3A34333EA9A49F
:101CE0005F04152C21951EB90A05140CB9B6BEBAAD
:101CF000B7B9BAB6B6B9B6431C27B4B4B6B39C8E5E
:101D0000B6C0CDC9CBC9CACBCDCDD0CED2CDCED029
:101D10004A66979C958F98B295A1918E8E8E9F9AC8
:101D200025081E9843063407908E88806D51401C0C
:101D30000A0EAD663F3D3E404A44DC061FB1B3C2C9
:101D4000031DC208103AABA680DEE5C1A89E9BA485
:101D5000C9E38795987E8B8F98A59494909CDCE43A
:101D600045417E4C576B3755EBCDCDE2E2C9C5DE20
:101D7000D4CDC8BBC12D38363640A59FACACB2011E
:101D80001D43052807B2B4B3B2B2B72D1804B0B2E0
:101D9000B1301C16B0B4B2B2B3B0ADB0AD9D8EB11F
:101DA000BFC9C9C9CCC7CBCCCE26033022CDCED239
:101DB00046699E9B9A9893A48E929392928C9C983B
:101DC00098989A969995908F8E8480705355A01507
:101DD000401C073E3F404848B2780732B2A11C3A47
:101DE000AFAAAD84DDE5E9E8E6E5E3DFDF9B979C9C
:101DF000A8ABB1B7B89E9E9789C2DD49427D5364B6
:101E00007D23DCD6C6C5DCC7C9A9ADD0CDBF904601
:101E1000323837373EA89EACA800041FAFAD01048E
:101E20001DA504114E4005B0B2B3B1A32DB5041CDD
:101E300014B3AFB1AF9893ADBDC8C8C9C7C9C8C9BD
:101E4000CCCECDCE6B041C0648629B9DA3490A1CD8
:101E500008939594938E909E43061A9B802C099527
:101E60008F8F87846F505720031C0A0FB4663A3F48
:101E70004044484899051C05AEB1B1B441061C0662
:101E8000ACA6B18BD7E90A119E1C2DDDD7969B9D80
:101E9000A9A5A5A5A69C979A88B4DF414082535B6B
:101EA00079ABFFDBDFD9E87B9C9FDBD5CCB6B43DBB
:101EB000353B37383FA9A99F051FB8B2230315E565
:101EC0001EB227032804B3B6B38F1C07B4B6B6B549
:101ED000B5B57803100CB0B3AD9F95AABEC6C8C9FE
:101EE000CB9F1804CACFCD891FD24BC0082C1289B2
:101EF000A8AAAD96A197959586A39D9A989A98972A
:101F0000C0034C04898071C0031C0A0FBA633B3FB5
:101F10003E424948A0051EAF650315401C0EABA606
:101F2000B68CD7E2E1E1DFDFDED3D670061C299A5A
:101F30009EB8A1BB9B9B968BBBD74D3980535369F1
:101F40008BFFD6E28C9CC9CE9DB3D79C939F9533D3
:101F500039383B41AA9FAA80061D1F074C05B3B123
:101F6000ADAD280715D31DB50419D51C04ADB0B20D
:101F70003F0B1C0EAAAC9D93A5BCC7C7C8C6C8C85A
:101F8000CB27031C08CDCECCD24A769DBB081C04BF
:101F9000A89D9E140C1C049EA19C460B1F989BF0B0
:101FA000082009909088827149501AA0100AB665DD
:101FB0003A3F44454648B6472DA0051C14B7B0A982
:101FC000A3BE90D9E1DEE3DFDED7D4D58D9496AA07
:101FD00092031C28BABE8D8F8CBCCF4C3B744A46F2
:101FE0004E547DE4E2DADCDCC0ADC7D3194B47BF09
:101FF000243F3B3A41AAA3ACB0B2B54005197218D0
:1020000006B1B6B7B8B6841989180BB4B4B2B8B46F
:10201000B1B5B4B5B4D9100C9C979DBAC5C7C8C5A5
:10202000C6C9C99F1D67041C0CD450739A9ECFD398
:1020300050D7D29DA8052E9E030A179A9BEB2C0819
:10204000948B887F6D4F5140061C0A14B25F3D3659
:1020500041424744DA061EAE00051DE20B1C13AADE
:10206000A1B995D7E3E2E3DDDCD6D5D48E9492D343
:10207000D215041C22C8969089BFCB42396D413FCE
:10208000404046DDB9B2D4D4D97A9AD51ACDD34AD4
:102090003D3E3D3D47A6800C2DFE081C06B2B4B166
:1020A000B6AF460A1AB18715D529821D1704281222
:1020B000B0B1AEADB0AC999A98BBC5C6C8C7C8CCD4
:1020C000CB811C0ECCCBD04F6D9A9DD09DBF8BC7C2
:1020D0009E510D1D8309300F9B9C9B999396939461
:1020E0008F8581714F4DA02C0CB657403F3A384236
:1020F00044B2B0AD5E0415461C3AAAA4AF97D5E32E
:10210000E1DFDBDAD9D5D69B9DA0D0C8CBD6D2CD26
:102110009E9689B9CB413764423B3E3B3FE5D9D9D6
:10212000D0D4CEC2D6DD4F6ECB323441424447A527
:102130009EA9ABFB082DE00A119D119C3EB228031D
:10214000115112ACA21FACB136071409AD9B979385
:10215000BAC6C2C6431C0FC9C9C7CCCCCCC8D35061
:10216000659B9DD68528041F9C9B340A30119E9E3A
:102170009A9C969B959594908D8883734848A03C33
:1021800009B45C4240423D3F3A0E041C3FB4B2AE3B
:10219000B4B0ABA5A196D6DFDBE1DAD7D6D4D58E25
:1021A000A3A19E9B96938D88868369BCD23B3365A1
:1021B0004649494A3EDEDA7A7B7D697DBAD094B1E0
:1021C000CC4B434A4E5055A4A2AFAE5D041D5B04F8
:1021D0001DB8031EB31E031D6B0815DD1D6B041D0A
:1021E0005E041FB2B29C0B1DF70A181C9B8DBFC664
:1021F000C7C7C5CAC6C7C8C7CCCBCDCCD3486F9557
:102200009B878C734C82A3881C069C9E9E9F9BC4BC
:10221000081E98C00328068982714F49803C0B1420
:10222000B85A45424244443EB0FA091C0BB1B2AD23
:10223000ABAAA49B9FD4DE620D2C30D9D6D4CFD1CB
:10224000A28E81797878797F8691ADBACF42315D5F
:102250004E51544F46D7A5AAD5D9DAD7DDD084AE92
:1022600046873A494E4F4EA3A3AD47041D54041D63
:10227000510435401EB0B5031FADB2920612B00531
:102280001D560F280CADAF9C9B88B8C5C5C5C4C4EE
:10229000851C0FC9CBCBC8D545699698BAB3BBBDD1
:1022A000B8FC0931012D03051D80072C078D87819E
:1022B00073514A40061C0D14B756444044414248ED
:1022C000ACB0AE62091FB0B35F041C05A4969ED4E7
:1022D000A10E1C0ADAD6D6D0CECCBBA49C980E1C7C
:1022E000139B9BA1B4BABFD43E365F4E5254555097
:1022F000C8BFA8BE081C108F8F937070726464638F
:10230000626961A99CABAF0315E31BADA96F2DB149
:10231000031EADC80316ACE01D9A0B1D5D0E1C100C
:10232000ADAAABA4979781B9C4C9C5C8C5C8C7A68B
:10233000052C0FCBC8CDD0476D9798AD948D9BAA37
:102340009C810C1C08A29A9D9A999D9622082C07A4
:102350008D88817A4D4D840D4C0C14B958464645F4
:10236000454449ABAF210D100AB1ADA8A292A6D247
:10237000DCDC9F1C06D7D4D4CFD0170A1C26B0AF04
:10238000ACB1BBC4BFC5D939222C2218171A1717F4
:10239000181F21281B1E343230373E3D444036384A
:1023A0004AA99CE00F1DFB081D07091D240C2EAC3B
:1023B000E9052EACA60512AFAE1D9A0B1FAFACCE31
:1023C0000D1C0A9A9D7FBAC5C5C7C0C205051FC6A8
:1023D000CB24031C10D4466B979CB9B8BDB9C29CE2
:1023E000A09D9E9D0C0F1F9C970205240993928F20
:1023F0008B86764E4D401C0A13B8584949474548CC
:10240000484B0F2C04AFAFAEE80B1C08A6A190A858
:10241000D2DBDB220C140CD9D7D7D5D5C4C2C1C1AD
:10242000C1BB952018C8C9D7367A71315456545853
:1024300055464938301F1F17143B2A14011C051636
:102440001CA2A1440E22AE892FB0AE25111C04B0EF
:10245000AAAD030F1C06ABAEAAACA9030F2D720EDA
:102460001007A7A7969571B84C2C05C2C0C5C40526
:10247000051409C8C7CE446B9496A0DB1FA19AFC33
:10248000041C049C9999C9082D410B2009948C883F
:1024900084744E4E15A01C09B6584F4A4C48474EFE
:1024A000E20F1D89101D3D0B100CABA69D8EADD308
:1024B000DCDADCD9D9A21C23D5D6CBC4C2C4C2CBAA
:1024C000CCC4C6CCC9CBD2DDE1E4DBE5E1E2DFD7A9
:1024D000B1DBDBDADAD2D2B9D9D36F0A2C08C8CC97
:1024E000C49E9AA8AAFC0E1DED0E1C04AAAAA8411F
:1024F000101EA6080F1FABA8120F2EABB60F14129A
:10250000A8A5A9A6A3909CC2BEC2C0C1BFC0C3C596
:10251000C6E21408C7C8CE466F9298381DBB0D1589
:102520003D1E987D0C2D210D1E9384112006868260
:10253000774E4DA0100C11B7564F4F4E4D4853A932
:10254000B0A21FADAD510F1C09A59E8CAFD0DBDC36
:10255000D9C70C1ED96B0D1C08D0C4C6C8CCCCCEB4
:1025600017091405CDCDD2D5541DDB0C1C05D2D3D3
:10257000D0B2AA0B2436C8CDE3ABC5C4C7C6C5C507
:10258000C19D2F37382F2F2E2C272A2D2A272B217C
:10259000242526272626222725252522261F2626EE
:1025A000252225252B639AC0BEC2BF8F17C5C33F06
:1025B0001408C8C8CD47659697D910079D9E9A9D67
:1025C0009D9AA12D3F0B2C0B9892958F8E87847727
:1025D0004D490310100B10B75551504F4D4C54AC92
:1025E000A01404ABAEAD001C07A5A189AFD0D79F46
:1025F0000321041C06D9D9D6C8CBEF0A1D4D0A1DEC
:10260000520A1D960B1DBC0E1408D6D3D2D0A0B40E
:10261000CC381006C59DBFC6BF9F1C05C5C49B25F1
:10262000580B1C103634363839343237343236359C
:10263000313937970C1DFA0B100532363736011039
:102640000E37363A619BC1C1BFBFC0C2C2C2F31DC3
:1026500005051C08C6CB455594959CB50311031D73
:10266000DB061E99E4101E967612240992908D893D
:1026700086794D49401C0A0FB855505051504E565E
:102680006703159D1D80112C08A9A49D8BB1CDD782
:10269000040E19821D08132005D2D0D3D4021C04C5
:1026A000D5D6D4D80C15F51ED7DA0C100CB47FC4CF
:1026B000CCCDC7C4939BC4BD9F1010C1C29D25380B
:1026C0003631323434313333363308300B3232372B
:1026D0003137343337343606240E373633373D5AE4
:1026E0009BC0BDBEC1C0BEE02D64041C07C4CB4668
:1026F000648F95B5031C069B9B9D999B7C0C298040
:102700001D1F081D000A2C0687877B4A46A00A3C2D
:102710000A0EB2574D57514E515514131D20121C1D
:1027200016A9AAA59B89B2CED7D6DAD5D6DBD9D63B
:10273000D9DBD5D5D5D4E906210715EF17D3D6F8BF
:102740001D1A0E1C16B958BFC5C7C4BF887DB8BBBB
:10275000BFC4C1C0BF9D2632323636121237991D12
:102760003112100832323131323633A81C0537337A
:10277000323350121C083133343B5797BECD0D1CF9
:1027800005C0C1C0C3230319831C0AC2C246748B8F
:1027900094979898B9031DF9091DBA08197D3C0C46
:1027A0009390908D8D8C8081714C3D000A1C0CB6ED
:1027B00051535A58505357ACADA8BC131C0BACAC7A
:1027C000A8A7A59A8CB4CDD6BC0311A415E413DB3D
:1027D000DB0C110A1D110E153B1C07D4D9D3DAD717
:1027E000D518051FB4BB680A200DC9C6B4BBBEC14D
:1027F000C5C5C0BE9E23861DC9121E34CF1211A9A5
:10280000119511A41C043336313E12219E1C09324D
:102810003337385699C2BBB5111408BFC0BAC4C10A
:10282000C5C6E31C0AC547778793989A9A9A990A6E
:102830001D980F2DFB09179694DE30088D8B87802D
:10284000784040A02409B350484D48494A54DB2DF4
:10285000A513140AABA6A3988BB3CDD7D5CB12D7AB
:102860009227D6DCE6119E1D95101ED7F50F140495
:10287000D7DCD5E71C06CBD2B8C1CEAB0B1412C93E
:10288000BBB7C0C0C1C2C4C49A2034343036303162
:10289000E116302C219C11A51734315311B4223389
:1028A000B81C05385397BDD40D1805BFBDC1BD82F6
:1028B0003C0EC1C5C2C7C04D788C9096989B981AA3
:1028C000121E955B0E1696DD2C0A938E8E8C8481DB
:1028D00073483E60091C070EB2A4AAA8A8B9131E2B
:1028E000AA0C042DAF131008A6A9A59787B8C98A0A
:1028F0002C06D5D7D3D7DA65042DEF0F198F1DF02D
:102900000621A81EDEB8051C0FD2D2D5B4C6C4C895
:10291000C8CCC8BAC1B8C4B206100EC09A1B2D2FBD
:102920002F2B2C2C2F2A2D2B03100C292A2A282C54
:102930002A2B2A2C26290C1C0F2926282B2A252F46
:102940004D97BDBBBBBBBE770E1C0DBFBFBFC2C684
:10295000C4C2C04E7987A7B5031E99B60D1D170DC9
:1029600011041D5C092C0B90918F8D8B847B7B480F
:1029700040000F2F11B062121DBC041D1F162EA89F
:1029800089061EAABA101C0481B7CC3E0611A131DB
:102990009E1C04D9D7DB71121C04D7DAD7B4051CEE
:1029A00006DCDCEBE8EC4F103C3EE9EBD4E9E2E37B
:1029B000E2E5EACCE2DCDDDDDFDEC29B1B272A316B
:1029C0003031292A303130302C3032302C2C2D2E21
:1029D000322D2C362F2F30312C2D2B282827304FFD
:1029E0009BC5BFC2C0C6C281071FC7C99904201FAB
:1029F00050737E78968B8F95989A97969398999620
:102A00009491939495928F8F8C848077473FA01CEC
:102A10000A13B1A9A2A6A9A8A6ACFF141D02061DFF
:102A2000410C1C0DA8A29874C1D5DBD7D4D2CEC955
:102A3000820D106DAF9F9577568E6588816C707092
:102A4000696A73696370726F6F76717377797D7776
:102A50007E807A7D7B7C6E787D80858688855D5CD6
:102A60005756867F747F787982797D81807D807EDC
:102A70007679726C6F6D68656A6D7478787F746D45
:102A800073716C73734E535D45717176747B6B73A8
:102A9000747972797D7B7A7870787A7F7A847B7D9D
:102AA0000D2C0D78807A7A7378737359584841A049
:102AB0000A1844126140696D6C696D6D6D79787B9F
:102AC0007B777D8282857A7D7A73777D79776C6A70
:102AD000656D6661615C63537E5A4E565E62646AE0
:102AE0006F6F6A7273777E787C828489898A89891C
:102AF0008C8C88868D8D321C1090938F8D8F79826F
:102B00007771878185898B8FA2141C048F8E8AA789
:102B1000142C3F808084878D7D7A82888281868292
:102B20007D7D797880857A687467698C89818B87E7
:102B30008D867E7F80807F7A7F807A78797B706DCA
:102B400070746A6B64685F58616261515A47694783
:102B500036A4151C0F12545D5C6D67757175767E19
:102B6000797E81EC161F8C8AEF161C0B9394949639
:102B70009795989B9DA2710B1C0D9A957868738907
:102B8000928C8F90959266031D6D031DC6071C05E0
:102B9000A19A959358051C049D989BDC081D9D06E1
:102BA0001C0E968E948F7E71848E928B90948E8163
:102BB000121D28041F918FD40E1C058C8E8F8DE959
:102BC000081F908F74051C13888587898C8B857FDF
:102BD000697F969297979997908B2B0B11021D5BAB
:102BE0000E1C048F929410093C1091858C88898268
:102BF00081878586826D76473E44161C0864727D07
:102C00008D8C968F561010049792904C1D5D061077
:102C10000593958F93A22D8E0E1C049A9E9E1A0DDD
:102C20001C0A7D6D768D8E93929693C5151E94E148
:102C3000051C069D99959C97B51521221D7D0310B5
:102C40000F94989494998E91928272808E8E89DCE2
:102C50001D82031D2A041C119093928E898D928DE2
:102C6000908D918D938F938DF4151C0B8786888B97
:102C70008479727F969049131C0495938BCF15101D
:102C800005938F95921C180B92948F8F918D868D42
:102C900089842B3C0886878177774042C008100DD5
:102CA0006272868B949693968E909397C41C098D2E
:102CB000938C9793958D934C1711B21C13989AA3EC
:102CC000969A9A938570728F8F8F948E8E928E3093
:102CD0000D1F969306091DCB071DCD071E9655198E
:102CE0001C06989B908F95C10E10098E8F8474805E
:102CF00090928C381C08918F919493969284161818
:102D000005908C958DF01A8F011F8B8D98032C10D8
:102D10008C888C827A6D7B979295929895948C4C46
:102D20000E17959772128CC114058E9089865F3CA0
:102D30000A8B868A8788807672470005101C136389
:102D40007A8D8E9094929593979BB28E7F70686CDB
:102D50006964625D666469636105140E6C6A686C1F
:102D60007480898973708E9090A4140490949093C9
:102D70001E95C8162E958A101299CB1D92151D5CB2
:102D8000101C0A8F9293908981717E8EB40A3693BB
:102D9000D91E95A60B178E928D1E8D72051C088F5D
:102DA0008E918F908E8F3D1810078789877F718055
:102DB0009C1C04939690E2191698E11297BE115943
:102DC0001E903A1A500D8C898C878D858C8389884A
:102DD0007676A01C07627A8D8B8D9213141C1AA62E
:102DE000B0A977696A6669656963666464656564E4
:102DF0006A696B6B6B706C6D240B1C0874748C8F20
:102E00008E8D8D9913114C1E9324071D0F041D994F
:102E1000171D15041296051C0595919487940B10A7
:102E20000589847479941389914D39721806918FAC
:102E3000928F942B17928D3711141D17061C08883A
:102E40008787817E677BD5171F8F96E909180495C0
:102E500094978A178E876010058E8C8D882717842B
:102E600088DE2C0986857F767A483D14A0191C07D8
:102E70006976878B8B9270031C218CAD98786C6778
:102E80006C6B656563646461616667646A6A6B6CD8
:102E90006C6A696C6D7272728D8B170719431548D5
:102EA0001F9391280325471B9798041A963A1C05EF
:102EB0008E93888DCC0314058570798C04128DCA8D
:102EC0001C058E8E8F9106101D62181DDB0315F4F4
:102ED0001D78182F938D7C191C0888868281627A50
:102EE0008FE6181D09172A95AC19EE1D910317904E
:102EF0008CD91D12041A84A22009868883827473D7
:102F00004540A01C0612667B8787B0181011899077
:102F100082A68D716B66666863666564636501147D
:102F20000F64686B6969696C6B696A707270883B61
:102F300014048F8C8CB91805908E9092642106250C
:102F4000A21D4A031806909294898EFE1C0A846979
:102F5000748B8B8D898C8AB00311A51007928D8D8F
:102F6000949488CF1E90DC0F11A81DCE03180A8AF6
:102F70008B858684826478932B1E9571031E921034
:102F80001C1DB0122597128FFF2C108B8C87897D0A
:102F900080828986817E7279473B031A10181166F8
:102FA0007A878C8D8985888D779A856D6A64656648
:102FB0006964636663A111AB1C05666A6B665F0595
:102FC00014056B7171703D16923F138C8C6A1F91C2
:102FD00092870B15E6154315A315061E931D031CBA
:102FE00009908D8C8562748F888A0E1692101D57F9
:102FF0000419AF1D4E07297C1A8D7C1E8FBD032D31
:1030000030051C06868086667721041D3605180566
:103010008F958F94311DBA121E90720C1F8D8E6980
:103020001C3C0E8881868C827F828277737144413A
:10303000400B1C1663738489888B808C8677937A07
:103040007065686362656162621C03166641100EFA
:1030500063696568696864686F74738D8CE21D9E2E
:10306000041D1F1A2D03031C0495928E6A17110864
:103070001D0F091406948E8D9087D41C058C875DD6
:1030800076411A18048E8A900719AF12887519B6FE
:1030900015521690781C1188888086898B878B81C1
:1030A000818164748E8E9639031292C211D711A455
:1030B00019A92014888C8B8B8B89857082838385DA
:1030C00084827B7474453DA01805105E7486B51C1F
:1030D0000E7E8889718E726D656361646263C1055D
:1030E0001C04636561A61C100668696A656AA31CF6
:1030F000056C736F8CB41A3F8C8CB61A2D71051049
:1031000005958F8794A31404948E95EB19711C0B6D
:10311000858D8B8E8C8161708688DF1A1A8E8D1D4D
:10312000DD1A138882B91A89151A911D1C068C891B
:103130008481814D061C0B85827E8160748E8B9507
:103140008E19051C048B908EFA0411C3157E2C1465
:103150008B8B888B88888C73848886887B827A7432
:1031600073443E0005101A115A7388828485857E47
:103170008877886F6965615E63625E625F616060C7
:1031800009100465646605140766696B6D6D66DA7F
:1031900010058D8F8B886725411C068E8E938C8E33
:1031A000F5031D57051404938F941F17898B5D1C1D
:1031B00006825E6E8887761B15091D8E033F928CF2
:1031C00051031D3D061C068F8A908C8CAA181F8205
:1031D00086BE031C088681825F708C8741031115AF
:1031E00011C919CF2D68061C0B89878888818985AC
:1031F000857B79A1051DF5063C056B704037E01510
:10320000141162718580817B7F81807382706B6114
:103210005F5F3F1F5F5F6D07280662646364668DB2
:103220001262A1180471688FBB1A8C7F17898BB446
:1032300019F11C088F878996958D8EFB04296A3CAD
:1032400010888989898B8686596A87878E8C8B89B5
:1032500026031C048C8C8A9D0714068D89878C8F0D
:103260001C1A89F51C0D81887A8781847D806172A2
:103270008C85690621C51C068D888B81884E1C11A2
:10328000582C1389867A86877377767E8280808130
:10329000785C7342372017180D0F616F797E7D7D42
:1032A00084848273806B140B5F62646160625D5E14
:1032B0005D5C452F6264CE03180A6764666B6F69B4
:1032C00089888A7C1E8A9F1C2F8C8CEC0419891D8E
:1032D00051061D1A062D75041E899E11180A888A2A
:1032E0007E80577189858C62100488848D7B1007DD
:1032F00082888B8F88887B1D48081F8689B4061BAF
:1033000080857D18087C7A7F6170887D2E1D8504FC
:103310001DE91311191D18041DF6031F87862708C0
:103320002C0E7872746F7D84867E7A6A714134C007
:10333000171410105D72787A7E7B82808D70726DAA
:1033400066653B1A607A1B615E881C04626668656C
:10335000041D6A041C06666C71668D261F100488A5
:103360008588F31E89DD04215D194B1DB2051D15ED
:10337000061C198B8C8E86867E84878482566B878A
:1033800084898286828A868B888D866F072D1206B5
:103390001D53031C048B888776051C0F848084864C
:1033A0007F7F807B7E5D6D8B788469031DAB041C01
:1033B000068F898D828B58063E8BB9053C10797932
:1033C0007A797E7A80807E81746D713F33601813C4
:1033D0005E70141C087E88888872716A4E09135EBC
:1033E0005F0114045E6161E823635E9C15E41D6166
:1033F000042E691B0719BA195A195E21A51C068AE1
:103400008E88868C8C1F1DE61D18048D8D875C2888
:103410000F8B85805B6B8681888287858980850A92
:10342000153925EB1D71051285C11810877D7B8626
:103430007F81797A787B5E6C8780880911521D358F
:10344000061C1380878686867D828482867F7679B5
:103450007E7B7F827F130A3C06776F6D3F3640107C
:103460001C076471817E8285D705180473716A7B9D
:103470001B5D5E8211A011A114055F5F6565E31CF1
:1034800007656966707268B9041B88855A23888E3F
:10349000931E89690419D21E89B4061A8E7A1DF307
:1034A000051D3A091C097F7E546F8B86848864074A
:1034B0001DC70318068C8E888D816319B610048D84
:1034C0008588C11C057F808381B02024097E777B9D
:1034D0005C7487818D5C1D530415DF1C1085816C25
:1034E000878476788582867A7B7E7D85D80A3C08BB
:1034F000787A776D72413340101404656D7BF11456
:10350000108182866D6A67655D5B5D61625E5B5D91
:10351000E82C045D5F5F6D04281166636468646A6B
:1035200070687F8484868587848C5010048B8782A2
:10353000871405818886855010058B8E868B911D9A
:1035400003041406807B556B86C713858A1C1C04F4
:1035500088888ECB0922878215781C1685858880FD
:1035600080807D797B7B807A747F5D748B868D8192
:1035700082690610168785887F8780807984817AA2
:103580007F7F7D7E777A7B76737AA63C07787A6C2C
:103590006D41328007135F6B111C0D65818481774B
:1035A0006A6A645E5F5C5E1C032658E21E626C04FD
:1035B0002E63C4032C1063656A73658580828484DE
:1035C0007E848687710B04157011AE1404858B827E
:1035D0001F100788878A8888844110057E7E55726F
:1035E000921F8184CA03128C131287C71B8B889188
:1035F00018058A828185FE1780761918077A7973F3
:103600007A5C718F1568100D8B878C8782847B881C
:103610007E7F8280042C12827F7E787B7676687033
:1036200079747D7B6C6D40362008281514646C77A6
:1036300077746B767A7F726A66655D5E595C5F5DF2
:10364000851C055E5D615DA6051F62642C081C0774
:10365000666B726381824C2211021C047F797FE3C6
:1036600007180582878784671F888052051E883364
:10367000091E8966211406867D7D5871E818048527
:10368000898C8C1D6D051C04898786CF03168724C1
:1036900018138482878285777C797D787A797B722A
:1036A0007A5A7486111E866E071C04858B85E11B71
:1036B000140A7F807D7E7E837D80843A440D7676F9
:1036C0007472747679766D6B413740126DA01C066A
:1036D00077777B78707D074C0B5D5D5D5C5F5C5B35
:1036E0005E5E58610411A01DA1051C0A65696D6824
:1036F0008582827B7E26051DA50C1E8629041E85DB
:10370000870B18068587887A84DC1C0F8984898654
:103710007B8188857F775C6A8085C20619521C048C
:103720008988845404140784878B888187FC191C3A
:103730001C1580797976777A76747771725D6C86EC
:103740008172808574871A031C08848289847E7E36
:103750007DA90C1D4B23241179777A7478767277C2
:103760007873726A69393610401C0C5D707A7E720B
:1037700084867A767368D4061C085E5A5B5E5C5F4A
:103780005B000511041C045D636167041C13616424
:10379000646A746480797E797A7B7B7F797B737EBF
:1037A0006D031C0F84857B84838686827E8580875B
:1037B0008483D804180A7B82817A7958667D81993E
:1037C00010057E858488021DA80B140586828586D7
:1037D000B91C0A82877D847E7B7378789A0D180ED7
:1037E000726C6D5A70847B777E7F7B847DC31C09ED
:1037F0008684817D7A7A857F550410067E7A7B786F
:10380000739D2C0A767176726B6C3A3A11E00B1844
:1038100006616D7781737E1C0A78716566625E5EF3
:103820005E5B6004219E28045F5E5F841F6163020B
:10383000051C146676657F7A77747A77797C74795B
:1038400077787B7D807A372411FE1D6B081D2C0351
:103850001004827A80131C0A827A7858687D8286E6
:10386000832D071D3A031682E0140585878A7FDFC2
:103870001DD4062C197D857F817A747B78757A78C2
:103880006B715A6D88807E7E827E807E80440316B6
:1038900081982C07767D7B727B7C3A0E3C0B72778D
:1038A000797972736F6F6D42DF241C0C1158667149
:1038B00072717D7B767473370B1F5B5C20032C0564
:1038C0005F5D5B5B270319891C07635E6662645F4B
:1038D00020031C065F7E777776F40E1C07787477DA
:1038E000737A7D03041D3A0E1D500710067D807FFC
:1038F0008184F71C0C797F7D7C8179725D67767A93
:10390000C0061805827E7B7E751F7980E5031C0743
:10391000867B877E8082DA0E10047D7E7C411C08C7
:1039200076716C70695A6BCB0E1C08767A78777753
:10393000817F52061F8176D8031C0679747B7677C7
:1039400058043C0D73737674767274726D6C3B31EF
:10395000A00A1C0B4457636B7A7F66656276510937
:1039600015DF2C095D5F5C5A5C615C5AA8051F611C
:1039700065CA081C1862626568715F74746F6F7441
:1039800075767B7E817B7C7E7F88898DEE0A1C0428
:10399000885C95160A2C0D8C938E92909694978045
:1039A0009B9990930E2C099DA09FA19E69A4A4F6BB
:1039B000221DFE221007A2A6A3A8A8A5031EA6A248
:1039C000251FA2AA49151C04AAA8A66A241C0AA895
:1039D000A8AF979F9BABA4868E091C048A89889305
:1039E000231D1E081DE8051004848885013C0689F6
:1039F0007B827D7E00141C07B09FA190807F811583
:103A00001E8FAD0814085C5E5B5C5B5D5BE51C05AE
:103A10005C5E5A5E2E082DD1081C076462686BA597
:103A2000A587151D09272FA1A561161C08ABB2ABF0
:103A30008289A5A6CA1A1C0EAF8CA69B50AAADB24D
:103A4000889B77B1ADD2151D222611801C06ABA92B
:103A50008C9CA330261C0FACA8BFADAFABC4C3DC9D
:103A6000D5CBCCB9A491161DA8191DA6154FACB87D
:103A700077181EAC50161FB1ACB01B2C08ADAAAE07
:103A8000A4A5A1AB8C272C0DA8A4A6A1A49F9B98AC
:103A90009AA0979DC0211C080EA89A9F9D9A9AB142
:103AA000271F9069FE091A5A821C045D5A5CC803DC
:103AB0001DAA051DA5051E64AE0A1C055E63667081
:103AC0009D241F9F995F1C1F9D9CC8201D10271DB2
:103AD00070171C07939E9DA69FA55A1612A7571CE8
:103AE00008A5A8A6A4A8A6A605271DC6261407A64D
:103AF000A8ABA7A9A8261D79121C06A9A6A4A9A54A
:103B0000F824138E9E1015472D11281C05A9A59D7C
:103B10008D0B261D9B0F1D2C1A1D9F0F1D870C1E24
:103B200093710F1D990E1D720B17949B0A2DB314E0
:103B30003F959B201C1C05A1979B97B6191C079BC2
:103B400097906C6663F70414045D5C5C4415411D3A
:103B500024081D4D061C0861636361636B6D662656
:103B60001D41191DA6241D0F221FA3A413251C04EB
:103B7000A5A59A7E0D1D7A2421011EAA831D118DF3
:103B80001EA914171EA90C131DC62611021FA4AAD4
:103B90002F261D35261006A6A8AAA3A4AE11C12D56
:103BA000AA1D12A4CE1C0DA18D716D6B686C6B7279
:103BB0006B6A6CE10C2C056A6D6B6B4D0C1C04661A
:103BC0006868DD091C0564666DA36C221DB3142EA4
:103BD0001DE01F1EA2421D1F989699202C068D6B7A
:103BE0006A625CFE04119F1F5A5AA5052C085C5D91
:103BF0005F5E635D5F44061F6C9FE7281F9F9E46C4
:103C0000191DAD271012A2A2A1A5A2A5A6A5A2A426
:103C1000A6A0A6A6A7A6A50413A6AA071C05A8A940
:103C2000A8AB2B251AAA6E21961D10281DBA1315B4
:103C30003612A994110119831D4A1E1008A8A5A4C3
:103C4000A49F8D73961E6FF90A1C046C6B6B220E79
:103C50001D230E1C086B696868686966DA0E140516
:103C6000646371A4E01D91162DE0241F10A1B423FC
:103C70001C0895979A9C998E6C20081F5D5AA10587
:103C800015431D28031DA6051261031C07625D6311
:103C900065686C412811A015DE25441FA2A4B42537
:103CA0001FA4A498131404A5A2A212151F100AAAF7
:103CB000A2A8A3A59FABA8A60219FF15CA1D541858
:103CC00035E315E612A99923A6A9C11D6A25154257
:103CD0001C0DA99F8D6F6B6A6E6D6C6A6B6D9D126A
:103CE0001008686E686865696AA11DEF071E646048
:103CF0000C1C0574A19D98F1152E9780252F11A1FC
:103D0000DD211C07989D9A94926F00051C055A5757
:103D10005A59C0031F5A57A7051DCB0819841F61A4
:103D200062420B1E6B90261EA1DD191D271B1DED87
:103D3000282D0C1D1EA3AE261DA4031EA4BE2221E9
:103D4000721DA32725221DA903219C15EB11A81480
:103D500004AAA5AAF7111932A49719FC32A5D61402
:103D600007A5A39D886D6CD92D00102007696A688E
:103D7000696F699E1DAE0B1D7A0F1665AF1F71A18D
:103D80001103339898A01F13A1D3171E9618281C4F
:103D9000049693713F0B14095C585B595B58585E4D
:103DA000E215E02D240D1D270D1C05626A6D9D7D19
:103DB000241F9C9D2C121DC50315411D3B27219BD3
:103DC0001DBA271EA4700332A27F1404A4A4A3EE7C
:103DD000197A1D2203218F297A2D9619119C1D3ADB
:103DE000032D9C03219C15DD1806A5A5A2877179DA
:103DF00015DE14066A68666B66E01E62CB0E1D2C2B
:103E00000E1E68770A1C08616366739F9B9D1603EC
:103E100035E01F13A13F281DAC121C079797926C29
:103E20006864D80B1101275A5B43153F2DCE031D43
:103E3000070A2C046468693F191DE2281C049E9E31
:103E40009CC1031FA19E26031C05A2A3A2A5710469
:103E500015402C04A4A2A3222717A5A85115252597
:103E6000E426AAE612A80D1C04A9A7A9D80311BA32
:103E70001DE0031FA6A60A29190D2805A1A39F87E7
:103E80007824046D6A66401C0569696B6CA90B1D7A
:103E900057111E65B7101C0862635F6272A29D779E
:103EA000123F979660271EA15B051DD8171C0F9720
:103EB00095946A66645D5E5C5659585A58A3052EFF
:103EC0005DEA0611A01C04635D6449101D9A222D51
:103ED00005181E9C24251D462C11A21C059EA2A37C
:103EE000A1270326A43D1D80292EA7970331021D7B
:103EF000040312A2A125D911A31DE103153818044A
:103F0000A9A1A6A929AE12A29D1D8A1E1F856F9682
:103F100010336C680519791D0B1018046968637FEC
:103F20001D5B111D7D2B1C0673A19D9C9A48242DA1
:103F3000C0031F149DFA132E9593121C05946C69EF
:103F400063FB091C0B5A595B575B5B585C575DA8B8
:103F50002B1DE5061C09615D6362686A9A9CFA2163
:103F60001C05989E989E631C2D01051D06051004D6
:103F70009FA0A37015E33AA58321A129651DAB037A
:103F80002EA30E2C1DEB042D6E051D1303155825B5
:103F90004F1EA3811E2D66032D0C2B2F866C5404FF
:103FA0001805696C66687F180D6A6C6A6A686A64CD
:103FB0006965626662ED1C056164739D2D2B30049A
:103FC000989793A02E9EE9111983140993966D6515
:103FD000645F575ADD1C0457585967041F575FC464
:103FE000031DD1031C06626065666D06141DA318CF
:103FF0002D242A1D2D1510049CA19E9F2C059DA2E9
:104000009FA0DD2A3C05A39EA1A48A2D15E41C04D3
:10401000A6A2A732031D431929711DD61612AA9D07
:104020002D75061D22291EA395031D452C158220E2
:10403000079E9C98876D66A01004666B6A9D1D5A4A
:10404000041C066669636469640725E12C075F64E4
:104050007A9C9B9CC4132DA0282F139E43121D7D78
:10406000181B9495A718045F58567E125A011A57C8
:10407000891E5DE2062D8B0C2C0563686D967B29ED
:104080001D631C1DCB151B9A9B861D711C1DCC032B
:1040900015E31EA1E02A1DC6034D70041D26032E44
:1040A000A26F0421A01D72072DF0041D570619A848
:1040B00019821BA4A2C211E61C0A949A9D9C9784A3
:1040C0006C696E1E131D7D122D5A041E6C9B051EFD
:1040D00063BE032D52113C0862636463779E97E9C7
:1040E000292DC0212F139C57161D15151395942C9F
:1040F000197C1C06575B575C5607051DA6051C0658
:10410000595B615F5BC10314055F636A963E3F982C
:104110009600221E9AC620253F11A51C069DA1A22D
:104120009DA0A0291FA5A407051DB0051D57061DAC
:10413000D3031D702B1D7C042D4E041BA2A89C2DA7
:10414000372B1D14031EA1B60629C319221005988A
:1041500097826B9D1C0566696A6D41111D97031955
:10416000811DCC0E180463655F821C06625C617F52
:104170009AA1151D59143D00191E9CF4061D7314B7
:1041800024079592956B64633A1DFD041C075A58E9
:104190005A5B6158A30A1A5C8115711C0466699206
:1041A00099274C049A979B27032DCF2D19881EA081
:1041B000662F2FA29B402F1FA39F0F051DCC033DF1
:1041C000B605198D1EA1B0031D1805253F2DF3045A
:1041D0001DD02B1D4E031E9DAC1615E01E9BC01658
:1041E0001C04957E6DD4061C04676A6AD4063004EC
:1041F0006D696B9F1E639B121F6465740A1C055FCB
:1042000062809A961515323D00281E9CE8121D22E8
:10421000031C079392986B665E6009275B59DE2D3D
:10422000030A1D63041D02052E6241061F6A921EC9
:10423000031D740611631942153B2E9B29031D0DA6
:10424000301D492C15E41D52093D63042D4E2C1DD3
:104250006E041C08A3A2A89FA1A69F19031DDA063D
:104260002D65092DCF051FA29EFD2A11A11D6125D7
:104270001C059890816BFE04126AA21D62141E6ACE
:10428000D6061F666825041D78141C096263665FE4
:104290006163819B061E1DA61E2DC0211F10983034
:1042A0001C1E90F82E1C0B92976A64645D5A5B5535
:1042B000567F0721A41D25081E5DC40D1C045D5FEB
:1042C00060A10A1E8DC01B1DB9171D15171D5A03AD
:1042D0001DC7081D0E0515AE1C059B9BA09E0D0558
:1042E0001E9CF32C1D36081C09819E929B9C9D8D63
:1042F0007EA40715321D280315ED1D4C082D6B06F5
:104300001AA2AB19552293E21DA4301C0595896AA7
:104310006813081E6AD6061DFF0F1D06151DEC1139
:104320001E6AFE041DDD061C065E66615F815D047B
:104330001E9697053D20261C049A8C90F2111C07AE
:10434000929094946B64970A1D19031C045A585652
:10435000C70315DB1E58C40D1F5D5DA3053C046338
:104360006B8F08171D46031DC71B11AA21AC1D2604
:10437000172DCD0324049D9F9A401C07A2A26250D2
:104380005690282F1F918762231005A1A8A39EA1F4
:104390001D3A1B1C04A6A3A32B05129F031D3C2240
:1043A0002D1C1F113E17959A401D5504153A1DE00E
:1043B000061DFC0411011DF2161D8E0D1DF3111DAD
:1043C00050072E862B1C1D31263D201C2E9A6C1565
:1043D0001D25191C0A90946C62625C5657585E0445
:1043E0001E5487072C045B5D5CE30614065F5D6268
:1043F0005F5B401DC6052C04979A9621203D6426DC
:10440000354A2DF2061C059C9BA19D9D241C059FF1
:1044100098889B392F1C066A698F8B8346121C046F
:10442000949DA2E7083EA2CD031C04A59FA4970576
:104430001C04A2A29ECC191C049B9696A6301C04B8
:104440009598949A152DD9061664E81DE4061E6801
:1044500052161D93173C04645F66DD0E1B819A7F24
:104460001D11082D60042C050E968D8D3A181C0D1B
:104470009393976D645F5F575758565842061C05D3
:104480005C55565B8C071D090F1D920C3C065F6343
:104490006986959D1D2D5F211F9796AA051C059B7A
:1044A00098999865081E9BEB061E9E7D261E9B8193
:1044B0000A1C04AA9F8F79171C0B7D9B847D7D812C
:1044C00087878C9805071C05A39F9EA8C5051FA17B
:1044D000A229052DB1321D680A1D38091E99101632
:1044E00036693D1F6669F30911041D54161F68687B
:1044F000F2111D72141DDB131F6184BD032DE5191C
:104500002D000A1F0E9797162DC9141C049095654F
:10451000581310085B5758555A565BA519801E5CF6
:10452000610E1D90072C065B5F626A86CD152D6DAE
:10453000172D73162D2A031DBB181D3E1A1DEC0ADC
:104540001E9D682F2C179E8788927E89848A83847B
:104550008794817D957A807E86888C9448081D8119
:104560000415DE1D3E0A11AB1D93041D21071DA974
:10457000211C0797959265686B33061D12081D0371
:10458000151405696661683D1661DB3E5DA1121E6A
:1045900084C4212D65272DE0061F109770141D4A35
:1045A000191D06051C0469645CE0062C0658575565
:1045B000575807051DA60A1C085E5B625F5E5C5AC1
:1045C00053081C04829C96F41915D716979E4DF239
:1045D0001E1F979731081D90071DBA0A1C099344A6
:1045E0006A7E7280BE78A3101C0C7D8793837F80C7
:1045F000858A85939A310A2EA1CD0A1D5308129DF2
:104600009F1E9D480C1D21292DA52B1C04968168F9
:1046100077071F696B9305153A1D111A3D9C052EEE
:104620006255162C055F5C5F62F71A3C0594958D08
:104630008F000A15E02D01161C0F8D8D966B5E61A3
:104640005A5D58585B54565B22081A5E832D220827
:104650001F5D5A0D142F68847903119E1D9A191A33
:1046600095413D28041D760B11761C159D9AA19E3F
:10467000743580737D8A6D7073807F847A958573BD
:10468000461018077F8B82A3A39F013DB00C4D56A7
:10469000081DDC0D2A9D1B140597958165E01C04FF
:1046A000656B657E071DD1181B64667F1E624B110A
:1046B0001663DD1C05635E5F8C2E061DB71B61A0B3
:1046C0002F8B8E101D10058C90695E94197F1C0A2B
:1046D0005555565657575C575BC4031DA70F1E5AB6
:1046E000EA101F668151033C049496942B0A1E968F
:1046F0004E1E1F9B9924071D180C1D150A1C079D93
:104700009F8F6C6570B9101C13777A7C78817F7DE0
:1047100081819E5B85716D827F9F9E09071D1503B8
:1047200019A73D19071D62083B9B9D172F937BB36B
:10473000031668DF1DB5081D2B181DB8081DE60CF3
:104740003D93121D19101C045D8C93E7331D751ADF
:104750002DC0082F1397B31521A31E941F031C0E01
:104760005857565A55585A5658585D5A562B0D1D7B
:10477000050A2DF0101F6164321B1D5C042E926B24
:10478000323DC3032E97210319801D56321C049A13
:10479000A36B171E1C0B6CA1767878768B7D8196A7
:1047A000A1171C047F9694920F1C048DA59E2909C5
:1047B0002C069798A09B9ABD332DE70C1D5C1C1C02
:1047C0000796989396947BDB161DFB042F666A1F51
:1047D000131D101A1E64670F1D690F1E5DC1101D89
:1047E00082141D74351D531E3F8B8980071DBE1812
:1047F0002DD2161DAB151D7E0C3C08585B57575526
:104800005457030A1D430615E218095B615B5C5FA0
:10481000636681B31DC1031D491D1D9A041E960ABE
:10482000361C059A9B9799B2221D6D041B9D9FE42F
:104830001C0F6D79737973918C7A787E917A838C61
:1048400002111C05707D7381C80E179B9E691D188F
:10485000081D96042DA30B1DCA1E2D580E1F8B7606
:10486000330C1C0565686562BA08297B1D37061E76
:1048700066901C1E6250071C05615D625C6B19111D
:10488000953F898900281E90B0151C088B8D878B59
:104890008E93667E0C1E56FF04153E1E586404213E
:1048A0009E1F5E5850101C065E5D62697B5F212D65
:1048B00023202D6304150A1D591D2D6A301E99B33E
:1048C000061C209896936C7A6C66696F747079797F
:1048D000687D737B71706C85817370786B76A4983A
:1048E0009BA07B232DF7043E9B1E071DEB1C2E92E5
:1048F0005A1A1C058E726968DF1B1C04656967F60D
:10490000091DC2031E6685121D6F142E61740F1DD2
:10491000C0102F8E9342193F8C81A0281E955C10E9
:104920001E85591A1F8B8F3F061C065B56565A541C
:10493000C1033C06545B575A5CE50B15421C075CEF
:104940005D64667998831D1DA7071E903F2D2C0777
:1049500093959995959DB60C1F959BA41E1C0B973E
:104960008E656B7268657A6B7666201C04766C7057
:1049700071051C088678737171676F942C1D1E3643
:104980001E9E6D052D352C2D81061D652F1E8EC09A
:104990002418048C6C617E1DE11B19831D950A1D72
:1049A0004F1B1D9A171D09101DB00B2DE20E1C0583
:1049B000767A6D6D6C0C2E5760131E1377161D954D
:1049C0000C1D560E1C04666B611C081C05565453C6
:1049D000571E031E57E70B2DE3101D080F15E01C93
:1049E000085F68728585818AE6161E88BB171D538D
:1049F000191E8E6D1E1D54161C04878C85791E147D
:104A00000F8A5F62706962849F8871766A65650546
:104A10001C04777271442114097473817A76726C64
:104A200066161C0B5A5854514D4C46413F3F9D3120
:104A30001C073F3D40406F63D50B21023D491B1CC5
:104A40000662655C6562D0181D2D0E1F5D5C970DBA
:104A50001D95131DA3153F858000284F968E2003BA
:104A60002C048D946A350B2DDD27140458565ADE1C
:104A70001F5A5D85071D100F1C095F585C6168781F
:104A8000A89CAB081D8D051DF6341D9E0F2D24110D
:104A90001DD10E1C04A5A8A7F70C1C1B9F606968FC
:104AA00059656A696D6A698B716A71779568716C0D
:104AB0006F6F6B7B74A977091EA47E091E9EFA2A6C
:104AC00019A82D350E1F9E9EE0061C059A9A6F644C
:104AD000DB061E659F052E65F10E1D86121DD51D78
:104AE0001D2E0E1DB6151D60111C045C8C8FD81474
:104AF0003C0482828000231E9D401E1C0D909291DA
:104B0000929097645D5B565155C3031D4206135A3C
:104B100057A22F585A090A2D66041F6673BE091D35
:104B2000D3062E9EC50D1D54041DD2253E9E6E0536
:104B30001F9B9AAD121F5F64A9111C056C64605F16
:104B4000620D1E6875051E6D9E081C066C697B79DA
:104B5000AB7C372DF20D21A01D69042E9A760F1E15
:104B600099A4051C059B986B65BB031E65DA162D81
:104B7000380B1D98051D19081F5F62AE0B1E5A5495
:104B80000C1F5A5B26041DE6333F928E60314E9F08
:104B90007E31300F97979C68615C57545555585833
:104BA0005554A028045B57597D1DCB0D1C055F642F
:104BB00073A583081DE1111DC50B1DFD0C2DA6104D
:104BC0001D49112D930F1C05A9A6A9B089131C0717
:104BD00058645B535656320F1E64AF111D34141CBB
:104BE0000769686A7181B255231D820C3DD6101D7C
:104BF0006A132E9FF30B2EA7A00F1C069E716465EF
:104C00006AF604153E1D3F1B2D02101D0D151DF1EA
:104C1000162E6254073C045D599E87033F938F40D4
:104C20001A1FA690F3071DEE201C0D848C645E5B9A
:104C30005857545856565506051DCA081D8511115A
:104C40009F1D470B1C065C636972AD2E131DDB2B89
:104C50001EB059391EA9FF391DCC381C06A9A9ADB3
:104C6000C5C71F381C04ABB46D85091D191B1C0476
:104C7000695A6093182C0D5F6262625A5860665FD1
:104C8000699BACED38112C2DB30F1C09AAA9B1B644
:104C9000B86888BC6D361DF90B3F6A6138061DCFB8
:104CA0001D2E66FB042C05645F635F8F122D7F0F42
:104CB0001C045B5F590D282D2F043E9040331EA528
:104CC0008F081DBB371C05979AA16C5A131D5E04F3
:104CD00010045756539C165B401C045D5A63CF1258
:104CE0001E5B460B2C046470B203251D05251DDEDA
:104CF000131D5E112DB1292D63141DB4391005AC9F
:104D0000ACB098C511251B6657441DFC1C1DD91459
:104D10001C07686B6A5E76A6D23A1D84391D8F2FF8
:104D20002DC93A1008ACA8A8ABAA66873B1C07A9F6
:104D3000A5A368636A7C172D3E1B31A01F5F66F731
:104D4000041D31181DB5151D5711135A9FA02D02B2
:104D50001F3D20261C04A19A9307042DC1121F6C2D
:104D60005FF70E1C07545657555A5509052D840CEC
:104D7000153B1E5EAC0F2C065A61626EADC23B2D18
:104D8000E30E3EA353111D321313A5AB102D4D3B63
:104D90001FB1BD100C1C0458585FD2051DFF171D14
:104DA00082101D320F1D3E0F1E786F2C1EAF183A59
:104DB0001D3E2E1EB09A146C04A9ABA38B2A1FA60D
:104DC000A61B031D43201DAB121DD3131D98052DDB
:104DD00046111E5EFD161D970D1D3C0E1E584433D8
:104DE0001DA6322F909060362F0F9C4A0B11AE14E7
:104DF00007899770625854DD15DF11A11E59C80D3F
:104E00001D44062D0E0F1DC9121C056271AB9F9922
:104E10000D1C06A59BA2A5A2AE0D1DA6101EA23EAE
:104E20001029821D4C132C0CABACA3575C55586158
:104E30005A5A541B111F575606091DBF071E9FB013
:104E40003B1EAC733B1DC7302EB0DF391D173C1D18
:104E5000DE151FA5A7E5121FA46908121D7F071DF7
:104E6000E8201F6660E91B1D511B1DB7031D981725
:104E70002D97082F5B5A8C031D9F0F3E9200141D27
:104E8000F9231DC3201D60091C0693715D5A547FD0
:104E90000C2C04555458A60A1D850725451F5B5840
:104EA000C9081C055C616AA8E0371D30091D33097B
:104EB0002F989B520E1FA1A16A131EA1CB1210079F
:104EC0009D9DA2A5A963361D750B11DF240C5A54B4
:104ED0005153545454575376AA3B1D923D1C04B170
:104EE000AFAB472E1DBA321D3E2A19212D180F1EB9
:104EF000A532072F646819131D851C15422D721EDB
:104F00002D9D051E5B32041DD7092E9E6D271DF9B0
:104F10001E2D20081C04119D80071F1E90D8261CE2
:104F20000493746220031004515753A11655441280
:104F3000576F3E5AAD0F1C055E57636F09061D6B18
:104F40000C1EA094081DAB141D9C0F2D83111D2059
:104F5000063EA173351C099A9C4D514E55574F5131
:104F6000121C055B5D564E2E2A2F585C29121D041B
:104F70002D2EAD352F1DE22E1DE0331DE12A1D77AC
:104F80002C1C09AAA3A6A19F6561665E041F61612E
:104F9000EC20219E3E5D73191D58161E5B590C15A1
:104FA0007A2D29091D91252E1F000F1E9837222DBD
:104FB0007E252C048F9278FE131C04575454ED293F
:104FC0001F565628031E55C6031257D21C085D569D
:104FD0005B6170939AE32D1E9AF5043E9836093D65
:104FE0001A0D139E9F131DD9241D210C1C12935EB4
:104FF000554D4D54504E4A4F504D4D47484E5D67AC
:10500000151EA165151EA2973D1FACB22E301EB312
:10501000BB2C1D63281D45152C07A5A29B9B635F18
:1050200001241D88212D101F1DB9032D1A031D35C4
:10503000131D730A15121E57412E1E948F223D20F8
:10504000121F139C79211DA10A1D73211C047E616E
:1050500056FF041C0555545551232E1D450B15456F
:105060001D4A0B1D0B051C055A57648135241F9AD8
:105070009A01142D0C2C1D340B2DC4161D4F151F19
:105080009E9505231D6C081C17857672623E484666
:105090003E41423A38474A484A6776879499976C26
:1050A0003B1D233F1DC8171D9C2E2D4B3D1DE63E6D
:1050B0001EA628331C049D8F88451331991F6264F6
:1050C000A2151DD41D2D960525DD1D360410045591
:1050D0005A5CF02D2E233E8D00142E9747211D641F
:1050E0002614048C9086D21806534D515355411204
:1050F00051A61A564F1D89071C075456466C8788BF
:10510000D6261DB00D1D0F0B2D79111D28172C0A49
:105110009E9AA09C9DA4A19893E4201DC93F1C12B7
:10512000614D3F2C23302F3233363B3B2F465F6D92
:105130007CEC3E1E986B061E9EBD141D382A1D2C4D
:10514000171FA8AC623D1FA8A962101C049FA09461
:105150003C261F8787531D1E78921B1C0474736F97
:1051600087161DCB0E1C09565B55555351585B8D48
:10517000271D3E20428DA01E9BD0221D57291D9128
:105180000C1C0794856B54484EC30319DF14045854
:105190005354491C0750534E505B76351F1DA522B2
:1051A0001D700C1C049C9DA0D30E1DBA032D601114
:1051B0001BA6A2EA1FA4A1FF031DB03B1C098A8500
:1051C00076695C4C4646A9313C0A4C545D5E6B7274
:1051D000858D92AD161E9D9A111DF53D2DF42E194B
:1051E000791D9F192EA793161EA09F121D0D2B1E11
:1051F0009543241D3E0E1E897C261E8E41091E8865
:1052000002201D210C200582849092121C068E8B98
:105210001D1312001421282D360E1F9693A3271C50
:10522000078993897A776BD71A1C08656C76808812
:105230008E8F1D0F1D19261D73331DB9121C049866
:10524000979C5D113EA283141D552B2DC8151DBBC7
:10525000101DF63C179695E31C0A7D7A7F78716ED7
:105260006D6F6FA01B1DE7082C04959BA08C111E71
:10527000A4E2151D6C061DD62F2D7E402EA93630BA
:1052800013ACB0371D5F161D56161E97920B1E9756
:10529000EF361D10252D9E2315891E84F41C1E85B6
:1052A00023221DC3223F8C8DC0122EA338132E97AC
:1052B0009D3E1E9D2E192F928F932711931D992489
:1052C0001D2A291DCD101E994B171DD4151EA63061
:1052D000152DD3151FA3A998051DD6061DE6402F31
:1052E000A8ACC4151DC21A1FA29FFE0B11681D6A2F
:1052F000082F9591F9221E9240261D530E21C82C8D
:1053000004A8A6A76A181D64402D4B061DE12A1E9D
:10531000AB24192C05A49E9F9AA2131DF1141D46BF
:10532000191D3B0C1D64271D05231D340B1DAA20D0
:105330001F8789C0091D7D1F2F8B88202B1F149F5D
:10534000A9101E9A3B3F1C049398A03C3A2DC60B13
:105350001DC6191D98261C0592989999D10C1D5BA4
:105360001A1C04A19B95391A3EA4873D12A37515FA
:105370003C1D6E321D6F421FACAD99191D19151FD2
:10538000A3A67A0F1D95111E97E30D13948E3B1162
:10539000EF1D6C162D2E121EA5CE0536A9E11EACF2
:1053A0003E2F1D0F071DD5172FA9A4A1042D4514AD
:1053B0001DB1141DB9131DC9261E94EC232C059292
:1053C000918E8A27251D01271D392829D63DA03C0D
:1053D0001EA15E181D22081F989BFF0D2D17191D79
:1053E000CC371D9F262D8E141DF009119C1DB8135E
:1053F00018049E9A9B742EA925181DC2041DAF4245
:105400001D0E061D3D311EA6DD041DD5041DD22D29
:105410001EA2B6191D01161D153F1E9BC63B1F9AE5
:1054200090D4362EA4DF152DE2081EA869312D3D3B
:10543000421EB118412D483E21D41805A2989A99D0
:105440002E2D11132DCF121DA033140494918BB760
:105450002D2A251D19222DC0252DFA243D002D1E93
:10546000A27D2C1D23081E9D871B1E9D632E1F974A
:1054700089E91311AF1E97A3121D0A17158A1C087C
:105480009CA1A39A9F9EA4E5162DF0162DE3401D26
:105490001C1A2DD7401EA8F1301DD0332D352D2DCF
:1054A000F4071FA2A1C7401EA342031DFA131D9AB1
:1054B000072EA6E64216A96A1AAA752DDA352AAD74
:1054C000861DC5321EACC8031DCE331DE20A1DB1B8
:1054D0003F21A41D6E0715E21D8A2A1D38381F8F33
:1054E0008C11041D9B402D08243E8E601315E02F67
:1054F0009596B4151EA025412C049B979D16101D52
:10550000EB301D22151E9CBA061DFB161C04A49B25
:105510008880141D421B1DAF082DE0301EA8591BAA
:105520001D091C1D1E331EAA92362D891C15E72D40
:105530005E441D241A2D230A1D72112DED2D1AA56E
:10554000061DDC061DB8351EAEBA361DE1332D91A1
:10555000341FABAB80441D48061EA9D6121C049E06
:105560009BA316442E9CB60A1DE32E1C049A9999FF
:105570001C3F1D57291D1B282F9290312936904022
:105580001C0410A397260E11982DF71715A51D3B87
:10559000121D140B1DA1172D60161D9E031C049FC8
:1055A0009BA284142D8D0A1D20092DFD1B1D9D1C01
:1055B0001D95031D06441D5D431EAA8A371D4036F6
:1055C0001D070813ABA60F1D341A1D40422D25449C
:1055D0001EA8CB342D4C372EAB81343FAFB1E93808
:1055E0001D3D353EB065411EAFC608199F1EA1D2B4
:1055F000381D2B141D8A151DFC141D5C051DFC4057
:105600001D1D0F1E961F442D34043C058E908B8C5F
:10561000203A1EA26A281F9894FF331DF1162D7898
:10562000141DF6111F9C9E7C0F3E9A6F071D9B1543
:105630002C079F989EA3A1A679313D121A1DBD3358
:105640001AAB841DC2422D50301D46361C05B1B028
:10565000B7B072431D6F4311033C0BB0A44F616997
:1056600056515E96ADEF371D933D2EB4513C2DA3A0
:10567000371DDC3A2D6C361DEF1D1DC3032D800B2D
:105680001D77391C049F9CA0DA1B1D1F0F1D690488
:105690002DD2111D132C1DD92B2DF3291E8EE62D75
:1056A0003D001E2E9D822C1DFD071D14101DFA1E8F
:1056B0002D34131DFB1A2B9699EF1F9E9C99451EA6
:1056C000A35D041DC91A1AA7371D0A0B1D69421DC7
:1056D00095441D3A091D4E362D9E443AAC5B110689
:1056E0001DFD302D2B032DDE042C045E5C96BA4488
:1056F0001EABAC361D4F371DFA3B2FAFABFE361D30
:105700002E441EB353383AB0B01D481C1EA71F1BB1
:1057100019411D131D1C049E989BFF0F2D99151EEA
:105720009B6531198C2DBE121D65312D60181F0F20
:10573000A277311DB60C169E2718069E9FA39DA129
:105740008D21A42DCB371DDA323F9F97DC111C042D
:10575000A1A3A79E3526A7D71DF3431D0B341DB863
:10576000031D493F3D950816B1B421AB3D34032ECE
:10577000AC263515E6210D1D59361D13401D4F462B
:105780003EAD25442D3A351D3E432D401F1DB61E0E
:105790002DDA0D2EA2BF461D031D1DFB401E999341
:1057A000141D073C1D912A2D242E1D832E3C058F90
:1057B0008B8E89601D1EA5E4041DC7131C04A298CE
:1057C000A47D1E152A1DE60915301D10132C089CFA
:1057D0009A9FA0A1A49AC01A2D261A1D40442AAE51
:1057E000DC150C1DEB351DAB3E117B2DB53813AD13
:1057F000B1AA154F1D773D1D023612B0A4118F2D91
:1058000093371D3C3832B1C31D26031D0B0A1DFB07
:10581000373EAD9339398219C41D74031006A2A90D
:10582000A1A0A1681DE70D2D97151F9690582E1D5C
:105830007C052D202A2DCD2D3D601D1C049F9498A4
:10584000D3131D61041D64171FA19CCE202D861C3F
:105850001DB60E1DBC151C05A0A09B952A0B2D8402
:10586000141D0D151DC91D151B2FAAA981401D1240
:10587000431EB4B4371D7D0C15DC1D96362D3C46F9
:105880001DBB061D14051DFE3B15CF1FACB19E0AA6
:105890002DD23E1D543C1D4538110B1DB9452D3FE1
:1058A000392EB1AF0A1D0D461D90072D1C041D4B4E
:1058B000441D81133D1B0F3E974E2B1DD12D1DCF37
:1058C0002A1D03111D12283E88A00A1E9E01341DA8
:1058D00075193E9DD91D2DAB1A26A5773D75452D11
:1058E000B7431D991F11462C04A2A5A7F41B2EA592
:1058F000DD452DBF471EAC8A372D373B1DFB392DAB
:1059000025382DFA3A1D1C481DFE203EAA16054DCD
:10591000B1032C04ACB1B34F381C04B09FB1970550
:105920001DC33A2D8E0C2EB209461DC5362D7B06A1
:105930001DBD071C059DA1A0A2E60A3DBE351E9710
:1059400043061D02051D1C081DF5281DA4303F86B9
:105950008620442EA2D6131D16101DAD031D112244
:105960001DFA1F1E9A161A3D251F2D5D201EA7CA5F
:105970001F2E9E87171C04A5A6AEEC0E25BE1DC3C8
:10598000042D51481C04B3B7B0F93E3C04B4B0B682
:10599000B33E3EAFAD033EB2483B25CD2DAC451ED8
:1059A000B32E3E1FB3B52E3F2D5E0411932EACEBEC
:1059B000381DE63E2D07383DE7051D921D1D853F2C
:1059C0004D583B1DCF481D351615DE1D3D3D1D3E76
:1059D0002D1D652B3F8886A00A1EA172141D0B0B7E
:1059E0001D4C141E9A4A1B1EA1C5101D3C1D2DF2F4
:1059F000191D6B212DB9222EA412082DFB041EA8FF
:105A0000F9481EA90E031DCD3B1DE83B1DAB431DF0
:105A10007D3C1FAFB3F1401EB2D6323DB73F2C04E0
:105A2000ABB0AD72391DAD03211A2EB6903E12B344
:105A3000211D15451EB2C63F11262D2F3F2DE439DD
:105A40001D25081D0B201C05A6A9A1A5FC171D944A
:105A50003C1D581E1D68301E9A13312DD1301D314A
:105A60002B1D44063C0489877D001E1C049E8F94D8
:105A700080103D141F1DB11F1EA16B071D26111D97
:105A800077191D761E1FA4A743201D3E1D2DBA4762
:105A90002D20461EB2E80C1D72051D4E3E1DCE0483
:105AA000110D1DE83B2DBB0B1EB6F43A2DEE3B113C
:105AB0000E1FAAAB403C2D9C051D65402DCF441206
:105AC000B7A1290311BE1C05B2AFB4B6E3431D82D2
:105AD000402C04AFA9AF44061D4C211C04A6A8A469
