:020000040000FA
:10000000180900200102000015020000170200007C
:10001000190200001902000019020000000000008F
:1000200000000000000000000000000019020000B5
:10003000190200000000000019020000190200006F
:100040001902000019020000190200001902000044
:100050001902000019020000190200001902000034
:100060001902000019020000190200001902000024
:100070001902000019020000190200001902000014
:100080001902000019020000190200001902000004
:1000900019020000190200001902000019020000F4
:1000A00019020000190200001902000019020000E4
:1000B00019020000190200001902000019020000D4
:1000C00019020000190200001902000019020000C4
:1000D00019020000190200001902000019020000B4
:1000E00019020000190200001902000019020000A4
:1000F0001902000019020000190200001902000094
:100100001902000019020000190200001902000083
:100110001902000019020000190200001902000073
:100120001902000019020000190200001902000063
:100130001902000019020000190200001902000053
:100140001902000019020000190200001902000043
:100150000000000000000000190200001902000069
:10016000190200001902000000000000190200003E
:100170001902000019020000190200001902000013
:100180001902000019020000190200001902000003
:1001900019020000190200001902000019020000F3
:1001A00019020000190200001902000019020000E3
:1001B00019020000190200001902000019020000D3
:1001C00019020000190200001902000019020000C3
:1001D00019020000190200001902000019020000B3
:1001E00019020000190200001902000019020000A3
:1001F0001902000019020000190200001902000093
:100200004EF68850CEF20000016841F470010160A2
:1002100000F004B8FEE7FEE7FEE7000000F002F899
:1002200000F04CF80AA090E8000C82448344AAF144
:100230000107DA4501D100F041F8AFF2090EBAE842
:100240000F0013F0010F18BFFB1A43F0010318470A
:10025000545B0000745B00000A4410F8014B14F07A
:100260000F0508BF10F8015B240908BF10F8014B07
:100270006D1E05D010F8013B6D1E01F8013BF9D150
:10028000641E03D0641E01F8015BFBD19142E4D3EC
:10029000704700000023002400250026103A28BFE4
:1002A00078C1FBD8520728BF30C148BF0B607047E8
:1002B0001FB500F0E5FC1FBD10B510BD00F041F802
:1002C0001146FFF7F5FF00F057FC00F05FF803B4AC
:1002D000FFF7F2FF03BC00F067F8000000FB01F439
:1002E0004FF6FF75AC4228BF002019D24FF0000630
:1002F0001F4607F5007527F8026BBD42FBD14FF092
:10030000020902EB040712F8018B08FB09F803EB62
:1003100008052E8806F101062E809742F3D120466B
:100320007047000002480349014A034B7047000030
:100330001807002018090020180700207047704790
:100340007047754600F02CF8AE46050069465346E6
:1003500020F00700854618B020B5FFF7E3FFBDE8A1
:1003600020404FF000064FF000074FF000084FF01C
:10037000000B21F00701AC46ACE8C009ACE8C009AD
:10038000ACE8C009ACE8C0098D46704710B504461A
:10039000AFF300802046BDE81040FFF798BF000093
:1003A00000487047B406002001491820ABBEFEE7A4
:1003B000260002007047D0F8003412F0010F14BF7D
:1003C0000B438B43C0F8003412F0020FD0F8202406
:1003D00014BF114322EA0101C0F820147047000045
:1003E0002DE9F04F574ED6F800C0574FDFF85C812B
:1003F0000CEA070CC44524D04FF0000C4FF0010963
:100400004FF0030AC2F3411509FA0CF40C4211D063
:10041000D0F8C4BF4FEA4C040AFA04FE2BEA0E0BD4
:10042000C0F8C4BFD0F8C4BF05FA04F44BEA040412
:10043000C0F8C44F0CF1010C0CF0FF0CBCF1080F1C
:10044000E2D3D0F800C512F0010F14BF4CEA010C42
:100450002CEA010CC0F800C5D0F804C512F0020F58
:1004600014BF4CEA010C2CEA010CC0F804C5D0F80A
:1004700008C512F0040F14BF4CEA010C2CEA010C61
:10048000C0F808C5D0F818C512F0080F14BF4CEA20
:10049000010C2CEA010CC0F818C5D6F800C00CEA13
:1004A000070CC44508D012F0100FD0F83C250CBF43
:1004B0008A430A43C0F83C25D0F80C2513F0010FFD
:1004C00014BF0A438A43C0F80C25D0F8102513F056
:1004D000020F14BF0A438A43C0F81025D0F8142530
:1004E00013F0040F14BF0A438A43C0F81425D0F850
:1004F0001C2513F0080F14BF0A438A43C0F81C25BB
:1005000032683A40424511D0D0F8442513F4007FB8
:100510000CBF8A430A43C0F84425D0F8402513F4A1
:10052000407F14BF0A438A43C0F84025D0F82825ED
:10053000002B0CBF114322EA0101C0F82815BDE8C9
:10054000F08F000000E00F400000FF700000051079
:100550000E4AC0F30741D26E01238B401A420C4A67
:100560001ABF02EBC101496852F83110020AD1F8F2
:100570002C354FF00F0C0CFA02FC00F00F0023EAB0
:100580000C0390401843C1F82C05704700E00F4061
:100590003459000030B50C4605460222FFF70BFF28
:1005A00021462846BDE8304008230122FFF718BF46
:1005B0001649042804BF086840F4803018D0052884
:1005C00004BF086840F4003012D0062812D00F286B
:1005D00015D0102838BF7047103800F01F010122D5
:1005E00002FA01F142090A4850F8220001607047FE
:1005F00008607047086840F48020086070474FF03A
:10060000E020016941F002010161704724ED00E042
:10061000545D000030B40A4D2A680A4B9A421CBF50
:10062000D5F800C0002207D05CF8224043F82240F1
:10063000521C9B2AF8D32B6043F8201030BC704723
:1006400008ED00E00004002010B5194800F0B0F9F2
:1006500000BF174800F0C0F90028FAD060234FF41B
:10066000E13214480168144800F0D2F9124800F051
:1006700006FA1021104800F009FA10490E4800F05F
:1006800009FA0F4800F094F900BF0D4800F0A4F9F2
:100690000028FAD00120FFF75BFF40F20140FFF78E
:1006A00057FF03214FF04020FFF774FF10BD0000FB
:1006B000001800F00000002000C00040F90A00000F
:1006C000000800F02DE9F003AF4D02462868AF4B5B
:1006D0001840A0F18053B3F5A02359D002F0380997
:1006E000DFF8AC82C2F38414B9F1100F25D0B9F150
:1006F000300F04BF47F230504FF400130DD04FF0CD
:100700003800904304BF4FF40040C30105D012F0FD
:10071000380F1CBF0020034613D09E4F12F4605FB9
:100720004FF0000618BF00222CD057F83240444545
:100730007DD307EBC2025268E1E000234046152456
:10074000EBE7A4F10900122822D29348D5F87CC027
:100750004FF04C7350F824002CF01C0C072CA8BF51
:100760004CF0100CC5F87CC02E6D4FF4002C16F424
:10077000807FD2D1BCF1010C0AD02E6D16F4807F9F
:10078000F8D0CAE712F0380F18BFB9F1100F04D033
:10079000BDE8F0034FF000007047C2F30268DFF8D5
:1007A000FCC14FF0000257F83290E14503D307EB4C
:1007B000C202526803E0521C062AF4D33246C5F83E
:1007C000C020D5F8B020DFF8D8C102EA0C0242F010
:1007D0000042C5F8B020DFF8CCC1A4F109024C1EDC
:1007E0005CF828C0A444BCFBF1FCD5F8B010194358
:1007F000C5F8B01008EBC80101EB41046A4902EBEF
:10080000420201EBC40101EB82046468C5F8644153
:10081000D5F864416FF0FF0808EB0C2C44EA0C0C8F
:10082000C5F864C151F82210D5F8602100E061E0FC
:1008300002F400021143C5F86011D5F86011D5F833
:100840006021C1F38921C2F30904D5F86421C2F300
:10085000042202F1010CD5F8642102F01F02521C9F
:10086000B0FBF2F04A09C2F100084443424301EBF5
:10087000481104EB5212484302EB9020B0FBFCF00D
:1008800041080846002257F832C0844503D307EBDD
:10089000C200466802E0521C062AF4D3C5F8C060C4
:1008A000D5F8600110F4000F1DBFD5F8B00040F07E
:1008B0008040C5F8B000D5F8600104BF40F40000E6
:1008C000C5F860014FF40040D5F8682112F0010F1F
:1008D00002D1401E0028F7DC002808BF002148D0C4
:1008E000D5F8B000184340F0010040F01040C5F8C2
:1008F000B0003EE0521C062AFFF417AF3246C5F89E
:10090000C020D5F8602122F40002C5F86021D5F896
:10091000B020DFF898C002EA0C0242F00042C5F8AD
:10092000B020002908BF4FF0000C0AD0B0FBF1FC4A
:10093000BCF1000F18BFACF1010C0CF10101B0FBD0
:10094000F1F10846002257F83240844203D307EB06
:10095000C200466802E0521C062AF4D3C5F8C06003
:10096000D5F8B00043EA8C22104340F00040C5F8AF
:10097000B000D5F8B00020F47000C5F8B000BDE8B4
:10098000F00308467047000000E00F400000FF70D1
:100990000024F400E85B0000CC59000040787D01A1
:1009A00000FC0FE0C4590000385A0000FF0300EFBC
:1009B000C0F307230749C0B2194401F07043C1F3E3
:1009C000130143EA411141EA800040F00070012226
:1009D0000260704700E60F40C0F307220849C0B22A
:1009E000114401F07042C1F3130142EA411141EA9E
:1009F000800040F000700068002818BF0120704798
:100A000000EA0F40826912F0200FFBD101607047AD
:100A1000D0F818C01CF0080FFAD1D0F82CC02CF078
:100A2000100CC0F82CC0D0F830C02CF0010C2CF405
:100A3000407CC0F830C0D0F830C0B1EB021F34BFEA
:100A40004CF0200C2CF0200CC0F830C038BF5208FD
:100A5000C900B1FBF2F1491C49088A09426201F060
:100A60003F018162C36200218161C16A41F01001CE
:100A7000C162016B40F20132114301637047C16AE8
:100A800021F01001C162704741647047826B1143CD
:100A900081637047124A10B5104B12684FF0080C72
:100AA000104C2240A2F18054B4F5202408BF0E4B14
:100AB000002253F83240844203D103EBC200446861
:100AC00003E0521C6245F4D300242046FFF7A2FD48
:100AD0002046BDE81040FFF76BBD0000185C000029
:100AE00000E00F400000FF70585C0000002914BFB8
:100AF000006CC06B7047000010B501210448FFF77F
:100B0000F5FF044621460248FFF7BEFF10BD000076
:100B100000C0004070B504460A2C06DA04F130002B
:100B2000C1B20C48FFF76EFF70BD0A2094FBF0F0D5
:100B300085B22846FFF7EEFF0A2094FBF0F100FB98
:100B400011403030C5B229460248FFF75BFF00BFB5
:100B5000EAE7000000C0004070B5034608461C46A6
:100B6000401E03E010F8015B04F8015B151EA2F1C2
:100B70000102F7D170BD000030B5ADF5017D13491C
:100B80001348FFF79FFD13490860FFF75DFD12480A
:100B90000068401C10490860482210491048FFF7BF
:100BA000DBFF0CE001AB0F4878210268A0200A4D62
:100BB0002D68A847044601A800F016F800E0F1E708
:100BC00000BF00200DF5017D30BD0000000E27079D
:100BD000800600F10000002004000020DD0200007B
:100BE0006C0600209857000070B505465321234835
:100BF000FFF708FF0D212148FFF704FF0A211F48D6
:100C0000FFF700FF58211D48FFF7FCFE2C211B4871
:100C1000FFF7F8FE59211948FFF7F4FE0D21174898
:100C2000FFF7F0FE0A211548FFF7ECFE002400BF95
:100C300014E02046FFF76EFF2C211048FFF7E2FE7C
:100C400035F81400FFF766FF0D210C48FFF7DAFEB8
:100C50000A210A48FFF7D6FE601C84B2FF2CE8DDAB
:100C600045210648FFF7CEFE0D210448FFF7CAFED6
:100C70000A210248FFF7C6FE70BD000000C0004018
:100C80004FF04070E1EE100A70470000141010128F
:100C9000FFFF000020202020131313119680327ACA
:100CA00036ADA3A7A9AAAAAAADACADAFB0ACAFAB05
:100CB0008C42EFE4E6B8EBE5E9E9ECEAEBEBECECCF
:100CC000EEECECEDEAEAEAECEDE8E2D9D7CECBC601
:100CD000C0BFB7B4AB9F9B89867D70655B574C4C9A
:100CE000493F42AD9E9E9D9F9F9D9E9C9FA5A49F18
:100CF000A29CA29FA19C9DA3A1A3A4A5A6A6A5A9D1
:100D0000A9A2A9A6A6AAA9ABA9EAE3E5E3E2DEDFC8
:100D1000DFDDDCD9DBD7D6D3B87B6C9AA19F9FA14E
:100D2000A59C9E9B9E9A969A97949494928D8B8A5A
:100D300089817973664D6B37131313118F87156B88
:100D40003BACAAA6A9AAABAAAFADACB2AFADB1AB52
:100D50009443F5E5E4A8EBE4E6EAE8EAEAECE9EB3B
:100D6000EEECEEEDECEEEEEDE1939C949A9C949A11
:100D70009C9E9C969A959598967D979092938C8C34
:100D8000898D89ABA4ABAAAAAAABACABA9AAABAB21
:100D9000ABACAAACABACA8ADA9ABADAFAFACB0AB94
:100DA000B0ABB1ADACAFAC9F76EEE4E6E4E1DFDE34
:100DB000DFDFDCDCDBDCD7D4BE7669989FA1A09DA9
:100DC0009DA19F9B9A9B9698949593968F908F8CBC
:100DD00088857E77654D63371313131336371F30BD
:100DE00037ADA8A4A9A9ABAFADB1B0B1ACACACA5BF
:100DF0008C42F5E3E1A4E8DEE5E6E6E9E9EBEBEBBE
:100E0000EBEBECEBECEBEDECDE89B33050565C61D8
:100E10006162696D6F747B847E8180818582878841
:100E20008B8D84B2A6A8A9A9A9AAABAAAAABAAAC81
:100E3000ACAAABAAABABB1ADACADADACB1ABAAADEE
:100E4000ABADACADACAAAA9F7CEDE3E4E2DFDFDFA3
:100E5000E2DCDEDCDAD7D9D3C47D5D9B9B9C9E9F10
:100E60009EA39D9D9B9A969C9A929590938D908C13
:100E700086887D7462495633131313139A97989F8B
:100E80009C9E9A9FA2A9ACACADAFAAACAAACA89FFD
:100E9000973AF5E3E298DCDEE3E6E9EAE9ECEBEC2D
:100EA000EAEBEEECEDEBECECE1819C85272D342FA9
:100EB0003334323330312F302F30262F3633363221
:100EC000343333B4A2A8A9ACAAA8AAA9ABABACABE3
:100ED000ABAAABADAAADA9AAACACACADABADACAD59
:100EE000A9ADACACAFABA9A27FEBE1E4E0DEDFE003
:100EF000DCDEDBDADCDAD9D3C279669EA2A29F9F60
:100F0000A6A1A29F9D9797979392938C8989888792
:100F10007B7A716B5845562C13131314807E828193
:100F200088908E95A2A1A8A9AFB2B0B2B0B1B0B26C
:100F3000933EF3E8D355A6E1E6E3E6EAEBECEBEC0F
:100F4000EBEDECEBECECEDEEE5739086292D323217
:100F5000302B1817131313131313131313133130E8
:100F6000332F37B2A4A9A8A9ABA8A9AAACABA9AB47
:100F7000ADAAAAA9ABADAEADADABAEACABACACABB4
:100F8000ADABACADABACACA17BE3DBDFDEDEDDDE7D
:100F9000DBDDDADCDAD7D9D6C476699A9FA3A1A2C1
:100FA000A4A2A19F9D9C9C9A9B9698959792928EA5
:100FB0008E8A7E7B6142572913131313AAA1A1A322
:100FC000A5A5AAABA9ACADB0B1B1B1B3B1B0B0B247
:100FD000973AF1D1454C4FD4D4D2DAE8E9EAECEBB8
:100FE000ECEBEBECEAEDEBEDE67273873033363485
:100FF00031BECDC8C6C6BEC0BBB9B0B2D3CE2A3A88
:1010000034323AB08C949091908C898B8C8D8D89F0
:101010008D8C8E8B8B8C8B8D8D918E8F94949595E2
:101020009597989D9B9EA59D93E2DDDCDDDEDEDD40
:10103000DDDADCDBD6DAD6D5C478639BA2A1A2A424
:10104000A49EA19F9D9C9D9B989796969292938C0F
:101050008C8686766449552313131313AAA3A2A67C
:10106000A4A6AAAAADACAFB0AFB0B2AEB0AFAFB0AD
:101070009A3FE4BF966F48C1C6C8CEEAEBEAE9ECF6
:10108000EBEBECEEECEDE9E9EA68488931343A360D
:1010900031CF5B787FA18E9B8F9C945DA18E363B78
:1010A000343339B0959CA3A5A3A3A29B9F9FA1A273
:1010B0009FA29D9F9C9E9F9FA29FA4A6A4A5A3A222
:1010C0009FA4A1A19F9D9C877FD3D5D7DDDAD9DCD2
:1010D000D9DAD9DBD6D6D6D4C76F549E9EA3A2A1A7
:1010E000A29F9FA29C9C9E9C9A9A97929694908F66
:1010F0008F84847F69484E2213131313AFA1A4A5D4
:10110000A6A8A9ABABADAFB3ACB1B1B2B1B0AEB004
:101110009C3EDFC2483D49B0D2DAD9E4E9EAEBEAC5
:10112000EBEDECECECEBEAEEE9627B86323739363C
:1011300031CC70787780768885928992DADE2E3B82
:10114000343437AFA8B5B7B8B8B8B7BAB7BBB9B9C0
:10115000BABBBDBBB8BAB8BABDB9BABABFBBB9BDE4
:10116000B9B9B8BAB2B4B78F82CFCECFD7D7DAD5A4
:10117000D9D6DADBD9D7D6D6C66F639EA1A5A1A5ED
:10118000A4A5A4A19D9D9D9C9C9897979795938FAE
:101190008E8B807D6A4B551E13131314ABA29FAC2C
:1011A000AAABAFAFACADAFB0B0B1B2AFB0AFB1B250
:1011B0009849D9C5423B489FB3BFC9E6EAEAEBEB81
:1011C000EBEBEEEAEBEBEAEBE9607E8631363A38A0
:1011D0002CDFDAE2DDDDD6D7D0D5D3D2CAD3303892
:1011E000343239B0A5ABB2B1B4B7B4B3B4B7B4B854
:1011F000B4B6B8B8B4B8B7B9B8BBBDBDBBBAB8B669
:10120000B9B8B6B6ADB3B29881CECCCFCED0D7D622
:10121000D6D7D7D9D5D7D6D3C96C639DA3A2A49F5F
:101220009EA29EA5A19F9C9E9D979C979697949405
:10123000938C847C6C4F571C13131314AC682934A3
:1012400036363126B3B1B0B1AFB1B2B0B1B1B0B092
:10125000984ADBD4AD56A6BFD7D5B1A49B94A3EBD7
:10126000E9E9EAECEBEBECE9EB54788636363B3710
:1012700030D49FA8A197A181819A90D5CFE62D392E
:10128000363237B0A4B0B1B3B4B6BAB8B7B4B8B7A1
:10129000BDB9BBBBB9BABBB9BBBBBFC0C1BDBBBD90
:1012A000BDBEBABEB6B9B89D82CCCBCBCFCCD0D068
:1012B000D7D7D7D9D7D5D4D3C965699EA39DA3A6BF
:1012C000A7ABA5ADA49E9C9B9B9897959694949351
:1012D000938E857F6A4C531B13131311AC736B41B0
:1012E00058715D4DB3B1AFB2B1B2B2B1B1B1AFAD42
:1012F0009A5AE2DDD7B2A5A5B09D858486899FEB79
:10130000E9EAEAEBE8EBEAE9EC47718234373A388C
:101310003BE5E6E6E1E4E3E4E3E2E4E8E1EB2C3894
:10132000363438AEA8B2B4B8B8B9BCB7BBB9BCBBD8
:10133000B8BDBDBBBCB9BEBABEBDBABDC0BCBFBBEB
:10134000BDBAB9B9B7B8B09D88C7C8CBCDCFCED0DC
:10135000D3D2D6D7D6D9D5D2CD5957A0A1A1A1AD38
:10136000BFC0CCC79D9F9F9B9A9B9997969794923D
:101370008F8C827D654A531B13131311AD6CF1FEE4
:10138000C82A7E6AB0B4B1B0B0AFB2B4AFB0ADAC41
:101390009D5FE1DDCA515E6462616A857F78A3E981
:1013A000EBE6EBEAEBEBEAE9F0456C7837393837F6
:1013B0003AB24F6968448C8E90B01AA6C6D42D39C3
:1013C000373437AAA6B1B1B6B4B8B7B9B8B7B6B75B
:1013D000B7B9BBBABBB4B8B9BBB7BCBEBEBABAB872
:1013E000BCB7B7B7B3B6B29D88C6C7CBCDCECECD4E
:1013F000CFCFD3D4D6D7D3D2CF38669CA2A1A2B2B6
:10140000BFBBB2D09F9F9C9C9D9999989895968FB1
:101410008F8D827D6D49551813131310AF7036D719
:10142000FDFD306FAFB1B0B2B0B4B4B4AFADAFACDE
:10143000A164E2DFC95A7E87626D82888C8FACEA34
:10144000E9EAE9EBEBE9EDEAEF3E62703B3739346C
:101450003BE4DEBBC0ABDABAC9D6E2D090C02D38CF
:10146000333739ACA5AFADB7B7B4B8B8B7B7B9B6BD
:10147000B9B9B7BAB7B8BDBDBEBDBABDB8B7BEBBC6
:10148000B9BAB9B9B7B6B2A08DC0C5C9CFCCCCCDA9
:10149000CDCFD2CFD4D5D6D5D3416BA09EA3A3A315
:1014A000B6B4B0A8A49D9D9C9C9A97989798949345
:1014B000908E86846A4E531813131310AF6D464CEA
:1014C0006AFDFDB0B4B0B1B0B3B3B2B3B3AFAFABBC
:1014D000A16DDEDFC45D8D9C697279818684B2E97D
:1014E000E9E9ECE8EBEAEAE8F03B5A793A393A34D0
:1014F0003DE4E2D2D4A4D6D3E2E2197045552B37AD
:10150000373438ABA4B1B0B8B7B3B6B7B4B9B8B91B
:10151000B8B7B7B7B8BABAB7B8B8B8B7B8B8B7B64F
:10152000B6B4B8B2B3B4B09C8EBBC2CCC9CCC9CE31
:10153000CBCECDCFD0D3CFD3D3476B9E9D898E98C2
:10154000979794969594929A9C9B9A979896949331
:10155000938C897F6F50511713131311AD693F425C
:10156000483AF4FA9CAAB1B2B0AFB2B2B1B1ACAAE7
:10157000A179E1E3D0B7B4B6B29E929FA4AACDEB15
:10158000EEF0F2F3F0EAE8E5EB385B7A3B393B3A10
:101590003EE6D9C2C893D4C9E1E1CEC698942C39AD
:1015A00034333DADA5B1B0B4B5B6B3B6B6B6B8B682
:1015B000B9B8B5B8B6B7B6B9B8B4B7B8B4B7B8B2C1
:1015C000B9B8B6B6B3B3B19C8FBDC4CBCBCCCCCB82
:1015D000CECED0CDD0D0CED0D44E699B9D8EA9B3E7
:1015E000B48E89908D948D9F9C9A9C9D979697938D
:1015F000928982826D4E54161313130FAF683F3ACF
:1016000041443B7FADADB1B0B0B1B1B0B0B0ADAB66
:10161000A47BDCDEB34A645A519FD4E5DE7756558D
:1016200053504C48494EA9DBEF3F4D7A3D3E3B3984
:101630003FE5DEABAA72B0CEDFDF3ABCB6B42B3AE0
:1016400034333EA9A4B2B1B4B7B4B7B6B6B8B4B7E0
:10165000B8B9B8B8B7B9B6BEBAB7B9BAB6B6B9B606
:10166000B8B7B6B4B4B6B39C8EB6C0CDC9CBC9CAF0
:10167000CBCDCDD0CED2CDCED04A66979C958F988B
:10168000B295A1918E8E8E9F9A9B9A9698969692DD
:10169000908E88806D5151171313130EAD663F3D28
:1016A0003E404A44B1B1B1B1B3B2B1B2B0B1ACABEA
:1016B000A680DEE5C1A89E9BA4C9E38795987E8B92
:1016C0008F98A59494909CDCE445417E4C576B37F1
:1016D00055EBCDCDE2E2C9C5DED4CDC8BBC12D38B6
:1016E000363640A59FACACB2B2B2B2B0B1B2B2B471
:1016F000B3B2B2B7B0B3B3B2B0B2B1B3B3AFB0B4C8
:10170000B2B2B3B0ADB0AD9D8EB1BFC9C9C9CCC77F
:10171000CBCCCECECECDCDCED246699E9B9A9893E1
:10172000A48E929392928C9C9898989A9699959060
:101730008F8E8480705355171313130EAF683F3E7E
:101740003F404848B2B0B0B2B2B3B2B1B2B0AFAA43
:10175000AD84DDE5E9E8E6E5E3DFDF9B979CA8AB38
:10176000B1B7B89E9E9789C2DD49427D53647D23FF
:10177000DCD6C6C5DCC7C9A9ADD0CDBF90463238CE
:1017800037373EA89EACA8B0B0AFAFADB4AFB0B2E3
:10179000B1B1B2B0B0B0B2B3B1B3B2B0B2B1B3B232
:1017A000B1B1B1B3AFB1AF9893ADBDC8C8C9C7C9E6
:1017B000C8C9CCCECDCECBCDCF48629B9DA395954D
:1017C00098939594938E909E9D9D9C9B98969495AE
:1017D0008F8F87846F5057181313130FB4663A3FD7
:1017E00040444848B0B1B1AEB1B1B4B2AFB0ACA6AC
:1017F000B18BD7E3E5E3E3DFDFDDD7969B9DA9A5BA
:10180000A5A5A69C979A88B4DF414082535B79AB2B
:10181000FFDBDFD9E87B9C9FDBD5CCB6B43D353B05
:1018200037383FA9A9B1B3B4B8B2B8B7B3B7B4B7F2
:10183000B2B6B7B4B3B6B3B5B6B3B6B4B6B6B5B55B
:10184000B5B3B2B3B0B3AD9F95AABEC6C8C9CBC835
:10185000C9CCCACFCDCBCCCCD24B699A9F89A8AA90
:10186000AD96A197959586A39D9A989A98979493EB
:10187000908E8980714E53181313130FBA633B3F38
:101880003E424948B3B1AFAFB2B3B4B1B2B0ABA608
:10189000B68CD7E2E1E1DFDFDED3D69796979A9E4A
:1018A000B8A1BB9B9B968BBBD74D39805353698B9B
:1018B000FFD6E28C9CC9CE9DB3D79C939F953339BC
:1018C000383B41AA9FAAB0B1AFB2AFB0B3B1ADAD92
:1018D000B0B1B2AFB0AFB0ADB0AFB1B0B0B0B1AD0C
:1018E000B0B2ADACAFAAAC9D93A5BCC7C7C8C6C8C3
:1018F000C8CBCBCBCCCDCECCD24A769D9EA19FA8D7
:101900009D9EA49FA29EA19C9F9B9A989B94959517
:10191000909088827149501A1313130FB6653A3F9D
:1019200044454648B6B1ADB0B0AFB2B4B7B0A9A364
:10193000BE90D9E1DEE3DFDED7D4D58D9496AAB68A
:10194000B8B6BABE8D8F8CBCCF4C3B744A464E5451
:101950007DE4E2DADCDCC0ADC7D3194B47BF243FDE
:101960003B3A41AAA3ACB0B2B5B4B4B4B1B3B3B1CD
:10197000B6B7B8B6B3B2B2B2B4B3B4B4B2B8B4B125
:10198000B5B4B5B4B2B0B19C979DBAC5C7C8C5C609
:10199000C9C9CBCCCDC9CECBD450739A9ECFD3502E
:1019A000D7D29D9CA2A19E9D9C9C9A9A9B95949314
:1019B000948B887F6D4F511B13131314B25F3D3608
:1019C00041424744B2B1B1AEB3B3B2B1B0B1AAA1D2
:1019D000B995D7E3E2E3DDDCD6D5D48E9492D3D2A9
:1019E000CBCBCCC8969089BFCB42396D413F4040AC
:1019F00046DDB9B2D4D4D97A9AD51ACDD34A3D3E70
:101A00003D3D47A6A4ABAAB1B1B2B1B2B4B1B6AF35
:101A1000B1B3B1B1AFB0B2B2B3B0B1B3B2B0B0B0B4
:101A2000B1B0B1AEADB0AC999A98BBC5C6C8C7C885
:101A3000CCCBC9CCCECDCCCBD04F6D9A9DD09DBF59
:101A40008BC79EA29FA1A19F9D9B9C9B99939693C0
:101A5000948F8581714F4D1B13131314B657403F5C
:101A60003A384244B2B0ADB1B1B0B0B1ADB0AAA451
:101A7000AF97D5E3E1DFDBDAD9D5D69B9DA0D0C8FF
:101A8000CBD6D2CD9E9689B9CB413764423B3E3B03
:101A90003FE5D9D9D0D4CEC2D6DD4F6ECB3234415A
:101AA000424447A59EA9ABB0AFB1B1B3B1B0B3B199
:101AB000B1B0B2B2B2AFB0B2B1B1B0B0B1ACB2B01D
:101AC000B0ACB1B0ADACAD9B9793BAC6C2C6C5C7FA
:101AD000C8C9C9C7CCCCCCC8D350659B9DD6859B03
:101AE000A4C99C9B9FA29D9E9E9A9C969B95959413
:101AF000908D88837348481B13131314B45C4240C1
:101B0000423D3F3AB3B2B0B2B1B4B2AEB4B0ABA59D
:101B1000A196D6DFDBE1DAD7D6D4D58EA3A19E9BE2
:101B200096938D88868369BCD23B33654649494A82
:101B30003EDEDA7A7B7D697DBAD094B1CC4B434AE4
:101B40004E5055A4A2AFAEB2B0B1B4B3B2B0B2B3BE
:101B5000B3B4B3B6B2B2B1B4B4B2B4B3B2B4B2B255
:101B6000B2B2ADB0B1AFB09A9B8DBFC6C7C7C5CA40
:101B7000C6C7C8C7CCCBCDCCD3486F959B878C73D9
:101B80004C82A39D9EA19C9E9E9F9B9B9B989895FB
:101B90008F8F8982714F491A13131314B85A454213
:101BA0004244443EB0AFB0AFB1B2B1B2ADABAAA403
:101BB0009B9FD4DEDEDCDAD9D6D4CFD1A28E817958
:101BC0007878797F8691ADBACF42315D4E51544FCE
:101BD00046D7A5AAD5D9DAD7DDD084AE46873A490B
:101BE0004E4F4EA3A3ADB2B1B1B1B2B3B1B2B1B326
:101BF000B1B0B2B2B2B0B3B2B3ADB2AFB2B2B0B2D2
:101C0000AFB2B0ACAFADAF9C9B88B8C5C5C5C4C4BE
:101C1000C5C7C8C5C9CBCBC8D545699698BAB3BBAB
:101C2000BDB89C9E9D9D9D9D9D9D9C9898989493CC
:101C3000908D878173514A1613131314B75644407D
:101C400044414248ACB0AEB1AFB2B0B3B0ACA6A460
:101C5000969ED4DCDCDBDAD6D6D0CECCBBA49C9866
:101C600094959B9BA1B4BABFD43E365F4E52545557
:101C700050C8BFA88C8E908F8F937070726464630D
:101C8000626961A99CABADB0AFABB0AFADA9B0B16B
:101C9000B0B0B2ADACADADADB0ACB0B0B1ABABAD62
:101CA000ADACAAADAAABA4979781B9C4C9C5C8C544
:101CB000C8C7C9C9CCCBC8CDD0476D9798AD948D56
:101CC0009BAA9CA19F9D9CA29A9D9A999D9697984C
:101CD000948D88817A4D4D1713131314B9584646C5
:101CE00045454449ABAFACADB0B1B1B1B1ADA8A2BF
:101CF00092A6D2DCDCDAD6D6D7D4D4CFD0AFB2B16C
:101D0000B0AFACB1BBC4BFC5D939222C2218171A49
:101D10001717181F21281B1E343230373E3D444010
:101D200036384AA99CAAABAAADAFACAFB1B0B1B23C
:101D3000B1ACB3B2B1B2ACB1B2B0B0AFB0B1B0ADA2
:101D4000AFB0AFACAEADAD9A9D7FBAC5C5C7C0C28E
:101D5000C6C8C9C6CBCBC9CCD4466B979CB9B8BD55
:101D6000B9C29CA09D9E9D9B9B9C9C97989A989382
:101D7000928F8B86764E4D1613131313B85849491C
:101D800047454848ADADACAFAFAEAFAFACADA6A127
:101D900090A8D2DBDBDBD9D7D9D7D7D5D5C4C2C180
:101DA000C1C1BBC4C4C5C8C9D7367A7131545654F1
:101DB0005855464938301F1F17143B2A1414141461
:101DC00014161CA2A1ABACADAEAFB0AFACB0AEAD13
:101DD000AFB0ACB0AAADADAAADABAEAAACA9ADAB3D
:101DE000ADABADAAAAA7A7969571B8C1C1C1C2C033
:101DF000C5C4C8C6C8C8C8C7CE446B9496A09E9D2B
:101E00009DA19A9C9F9B9C99999797949596949441
:101E1000948C8884744E4E1513131313B6584F4A7E
:101E20004C48474EACADACB0ABB0B1AFADABA69D7E
:101E30008EADD3DCDADCD9D9D9D7D9D5D6CBC4C2CB
:101E4000C4C2CBCCC4C6CCC9CBD2DDE1E4DBE5E176
:101E5000E2DFD7B1DBDBDADAD2D2B9D9D3CECDCF5C
:101E6000C8CCC49E9AA8AAAAACABA9ACABADAAAA8E
:101E7000A8ACAAABA6ABA9ABABA8ABA8A9ABAAA8C8
:101E8000AAA9A8A5A9A6A3909CC2BEC2C0C1BFC052
:101E9000C3C5C6C7C9C9C7C8CE466F92989E9D9B89
:101EA0009C9E9C9D9B9B989C9796989797979394A4
:101EB000928D8682774E4D1513131311B7564F4FDF
:101EC0004E4D4853A9B0ACADACADADAEACABA59EDC
:101ED0008CAFD0DBDCD9D6D6D7D9D5D9D6D0C4C62D
:101EE000C8CCCCCECCCCCBCDCDD2D5D7D9D7D9D5EB
:101EF000D7D2D3D0B2CBCDCFC8CDE3ABC5C4C7C644
:101F0000C5C5C19D2F37382F2F2E2C272A2D2A27C4
:101F10002B21242526272626222725252522261F74
:101F20002626252225252B639AC0BEC2BFC2C1C169
:101F3000C1C5C3C8C8C8C8C8CD476596979D9E9DF2
:101F40009D9E9A9D9D9A9B989C99989895989295FC
:101F50008F8E8784774D491313131310B755515043
:101F60004F4D4C54ACB0ACADABAEADACABADA5A130
:101F700089AFD0D7D9DAD7D7D9DAD7D9D9D6C8CB7C
:101F8000CFD2CFCFD3D3D0D3CFD4D6D7D9DAD9D617
:101F9000D3D2D0A0B4CCCDCFC8C59DBFC6BFC6C517
:101FA000C5C5C49B253739343634363839343237D1
:101FB00034323635313937363438373437323637CC
:101FC0003636363637363A619BC1C1BFBFC0C2C252
:101FD000C2C4C6C8C7C8C9C6CB455594959C9D9C6C
:101FE000989D9C989B9A98999D979796959896926C
:101FF000908D8986794D49151313130FB85550509C
:1020000051504E56ABABADA9ACABAAACAAA9A49D9E
:102010008BB1CDD7D6D7D7D9D9D7D9D9DBD7D2D0CD
:10202000D3D4D3D4D3D4D5D6D4D2D6D7D9D9D7D75D
:10203000D5D2CDB47FC4CCCDC7C4939BC4BDC5C5D8
:10204000C5C1C29D2538363132343431333336334D
:10205000323434323237313734333734363734333D
:102060003734373633373D5A9BC0BDBEC1C0BEC0C2
:10207000C3C5C6C4C5C7C8C4CB46648F959A9D9ACC
:102080009B9B9D999B9999989997979497949392D4
:10209000908E87877B4A46161313130EB2574D57FF
:1020A000514E5155ABACAAACABAFAAACA9AAA59BFB
:1020B00089B2CED7D6DAD5D6DBD9D6D9DBD5D5D528
:1020C000D4D6D5D4D5D5D5D4D9D5D9D3D6D9D6D6B5
:1020D000D4D3C9B958BFC5C7C4BF887DB8BBBFC4B6
:1020E000C1C0BF9D263232363233303732323736B6
:1020F00032343232313132363334343237333233B0
:102100003334323133343B5797BEBCBFBBC0C1C040
:10211000C3C2C0C5C5C6C7C2C246748B949798983F
:102120009B9B9C989A969897949797939390908D51
:102130008D8C8081714C3D171313130EB651535A79
:1021400058505357ACADA8ABA9AAACACA8A7A59A58
:102150008CB4CDD6D9D7D7D7D6DAD7D7D9DBDBD67B
:10216000D9D7D6DAD7D6D9D5D9D7D7D4D9D3DAD7FC
:10217000D5D0CECCB4BBCCC7CBC9C6B4BBBEC1C511
:10218000C5C0BE9E23333334323433333436323415
:102190003632333233333232313336313130333415
:1021A000323133323337385699C2BBBEC0BBBFC0A1
:1021B000BAC4C1C5C6C6C8C7C547778793989A9A97
:1021C0009A98989896979498969495969492908DBC
:1021D0008D8B8780784040171313130EB350484DF2
:1021E00048494A54ABAAACAAADACAAAAABA6A398DC
:1021F0008BB3CDD7D5D6D7D9D7D5D9D7D6DCD9D7E4
:10220000D9D9D7D6D9D9D6DAD7D5D7D6D7DCD5D458
:10221000D2D6CBD2B8C1CEC9CBC9C9BBB7C0C0C159
:10222000C2C4C49A20343430363031343133303182
:102230003334323231333233323431323330333378
:10224000343333333436385397BDBDBDBEBFBDC103
:10225000BDC2C2C4C1C5C2C7C04D788C9096989B00
:10226000989B989796969598959696939290938E1C
:102270008E8C848173483E1A1313130EB2A4AAA83D
:10228000A8AAA8AAAAA8ABA8ACACADABA6A9A597CA
:1022900087B8C9D5D7D6D5D7D3D7DAD9D9D9D7D74B
:1022A000D7D7D9D6D7D7DAD9D6D9D7D6D9DED6D6B1
:1022B000D7D2D2D5B4C6C4C8C8CCC8BAC1B8C4C5B0
:1022C000C4C4C09A1B2D2F2F2B2C2C2F2A2D2B2A28
:1022D0002D2B292A2A282C2A2B2A2C26292B292A5D
:1022E0002926282B2A252F4D97BDBBBBBBBEBDBEC3
:1022F000BDBFBFBFC2C6C4C2C04E7987A79C999854
:102300009997989696979396969794939490918F81
:102310008D8B847B7B48401813131311B0A6A4A5A2
:10232000A3A8AAAAAAA9ABA8ADADACAAAAA8A1972E
:1023300081B7CCDAD6D6D6D5D7D9D9D9D7D7D9D7A8
:10234000DBD9DAD9D7DAD7DBDBDBDCDCEBE8ECE9AD
:10235000EAEAE9EBD4E9E2E3E2E5EACCE2DCDDDD5E
:10236000DFDEC29B1B272A313031292A3031303041
:102370002C3032302C2C2D2E322D2C362F2F30316C
:102380002C2D2B282827304F9BC5BFC2C0C6C2C4E6
:10239000C4C5C7C8C7C9C4C7C650737E78968B8FDB
:1023A00095989A9796939899969491939495928FDD
:1023B0008F8C848077473F1813131313B1A9A2A6FB
:1023C000A9A8A6ACA8A9ACABACADAFAFADA8A2987C
:1023D00074C1D5DBD7D4D2CEC9BEBAB7AF9F95777B
:1023E000568E6588816C7070696A73696370726FEC
:1023F0006F76717377797D777E807A7D7B7C6E785E
:102400007D80858688855D5C5756867F747F787968
:1024100082797D81807D807E7679726C6F6D686552
:102420006A6D7478787F746D73716C73734E535DDD
:1024300045717176747B6B73747972797D7B7A7870
:1024400070787A7F7A847B7D797D7B78807A7A73E5
:10245000787373595848411B131313126140696D07
:102460006C696D6D6D79787B7B777D8282857A7DF5
:102470007A73777D79776C6A656D6661615C6353A9
:102480007E5A4E565E62646A6F6F6A7273777E78A8
:102490007C828489898A89898C8C88868D8D9290AA
:1024A0009390938F8D8F79827771878185898B8FB8
:1024B0008D898D8F8E8A898D8C808084878D7D7AA1
:1024C0008288828186827D7D797880857A6874674A
:1024D000698C89818B878D867E7F80807F7A7F80E3
:1024E0007A78797B706D70746A6B64685F5861622A
:1024F00061515A476947361713131312545D5C6DC7
:1025000067757175767E797E818287888C8A888BE3
:102510008D939494969795989B9DA29A9A9B9A9541
:1025200078687389928C8F9095929697949A9898E0
:102530009C9798A19A95939C989D9D989B959B9B01
:102540009D9B9B968E948F7E71848E928B90948EA1
:1025500093938E939390918F8E8E8E8C8E8F8D9081
:102560008F8F908F908D89888587898C8B857F69E7
:102570007F969297979997908B9693949394939232
:10258000928C8F92948E908F91858C88898281878E
:102590008586826D76473E171313131364727D8D03
:1025A0008C968F9694939792908F8D90958F8E9313
:1025B000958F939394949898989A9A9E9E9B9B96A5
:1025C0007D6D768D8E939296938C9490949598963B
:1025D0009D99959C979597989898989A9B989B9475
:1025E000989494998E91928272808E8E899394940D
:1025F000938E8E9495969093928E898D928D908DD8
:10260000918D938F938D8E8B8B8786888B84797237
:102610007F969097959695938B969692938F959299
:10262000938D8E92948F8F918D868D8984858688E7
:102630008687817777404216131313136272868B55
:10264000949693968E909397948E908D938C979367
:10265000958D93979392949397989AA3969A9A9319
:102660008570728F8F8F948E8E928E8D94969693A6
:102670009C9798979698969897969A969A989B90E2
:102680008F959395948E8F84748090928C9294936E
:10269000918F91949396928B8B8C908C958D928F39
:1026A0008F8F90938F8B8D8F8D8B8C888C827A6D92
:1026B0007B979295929895948C97949390959790F8
:1026C000948E8C938F938E9089868C8B858B868A43
:1026D000878880767247401713131313637A8D8EA1
:1026E0009094929593979BB28E7F70686C696462A8
:1026F0005D66646963616664696C6A686C7480892C
:102700008973708E9090908F9090949096939495FA
:10271000989796959A969896999793959797979450
:1027200094908F9293908981717E8E8F8F939391E5
:102730008F8E8E8E95958F8F8E928F8E938D949295
:10274000908F8E918F908E8F8C89898789877F71EA
:102750008098959493969095959898939493978F45
:10276000909390949090928D8B8C898C878D858C92
:10277000838988767647401713131313627A8D8BFB
:102780008D92928F8CA6B0A977696A666965696334
:102790006664646565646A696B6B6B706C6D7070A0
:1027A0007274748C8F8E8D8D8F8F8D8F9093939488
:1027B00097949796939494959796939695979695C4
:1027C00091948793908D898474798F8F8E8991925B
:1027D0008F8C8F8F908F90918F928F948F939392F5
:1027E0008D8C888C8F8C8F8D8B87888787817E6777
:1027F0007B9494958F969694949594979297978EB0
:10280000878F90938E8C8D888C888C84888886871F
:1028100086857F767A483D14131313136976878B68
:102820008B928D8F8E8CAD98786C676C6B656563C1
:10283000646461616667646A6A6B6C6C6A696C6D1A
:102840007272728D8B908D8D8D8E8B8E90909391F8
:102850009592969693949597989294939692948F36
:102860008E93888D8C8C888570798C8D8B8C8D8ED9
:102870008D8D8E8E8F91908E898D8D9190938F926C
:102880008C92898B8C938D8C8989888886828162D1
:102890007A8F979292979593959394949393958F1B
:1028A0008B8D93908C858B8689898C8486888B868A
:1028B000888382747345401413131312667B8787D1
:1028C0008D8C8E899082A68D716B66666863666555
:1028D00064636565656564686B6969696C6B696A81
:1028E000707270888F8D8F8F8C8C8E8E8E908E9064
:1028F000929294938E9092929095959893939490AF
:102900009294898E8E8B8B8469748B8B8D898C8A43
:102910008F8F908D8E8D928D8D94948890939190C1
:102920008D8F8C9190938E8E8E8A8B858684826417
:1029300078938F9090959392969294949296969283
:102940008F8D8F908F8D8D8D8B8C87897D808289E7
:1029500086817E7279473B1313131311667A878C35
:102960008D8985888D779A856D6A646566696463EB
:102970006663636565666668666A6B666D68656BE7
:102980007171708D8D8D928D8E8B8C8C8C919091C0
:1029900092979495939497939495949495939593F3
:1029A00093948E8F908D8C8562748F888D8886929B
:1029B0008B8D938E8F8D8F9090939290908F8E9120
:1029C0008D908E8F8F8B87868C8C8886868086668E
:1029D00077958F939290938F958F948D8F909292FD
:1029E0008C90928F8B8D8E8C8C898881868C827F47
:1029F00082827773714441151313131163738489B1
:102A0000888B808C8677937A706568636265616273
:102A1000626166646665656463696568696864685F
:102A20006F74738D8C908F8D8C88898C8D8D8F8F2A
:102A3000939395928E959694939395939090948E6C
:102A40008D90878E8D8D8C875D768C898B8E8A900C
:102A50008E8B8E8F8E8D88928F8B8F8E8D8B8D89A6
:102A6000908C8E8E88888086898B878B818181640B
:102A7000748E8E968E938D928F9090908D8C948D77
:102A80008F8F928F888C8B8B8B89857082838385C7
:102A900084827B7474453D15131313105E7486880D
:102AA00087877E8889718E726D65636164626361F8
:102AB000626163656161616268696A656A656869C6
:102AC0006C736F8C8D8C8E8C8C8B8B8C8B8D8F8D97
:102AD000908F958F8794928E95948E959294938DE6
:102AE0008E8D858D8B8E8C81617086888D8D898E83
:102AF0008D8C8C8B8D8D88828E8D90898F8C8C9116
:102B0000888F8D8C8984818184878D85827E816088
:102B1000748E8B958E928D908B908E8D8E928E8DE5
:102B20008B8F908D8B8B888B88888C73848886881C
:102B30007B827A7473443E16131313115A7388827E
:102B40008485857E8877886F6965615E63625E6271
:102B50005F6160605E636265646663626566696B3F
:102B60006D6D668B8C8C8D8F8B888C89848D8D8F11
:102B70008F8E8E938C8E92928F8E9294938F949050
:102B80008C8E898B8D8C88825E6E88878B8D8D8BE9
:102B90008B8B8E8C8D928C8D8D8D8E8B908F8F8F5D
:102BA0008A908C8C85848682868787818681825FE5
:102BB000708C878E8E8F908C8C8D8C8C908E908F5D
:102BC0008E8E8E89878888818985857B79848586A4
:102BD000807F7A6B704037161313130F62718580F4
:102BE000817B7F81807382706B615F5F6263615FF5
:102BF0005F5E626462646364666669646362666998
:102C00006B71688F8C87898C8B8C8C898B8B8F8E6A
:102C1000908D8F8F878996958D8E9494908E8F8DC1
:102C20008F888989898B8686596A87878E8C8B895C
:102C30008B8B8D898C8C8C8A868D8D8D89878C8FE2
:102C40008B8B888989868181887A8781847D806160
:102C5000728C858E8E898B8E8C8D8D888B81888CE5
:102C60008E8B8C898B89867A86877377767E828035
:102C70008081785C734237171313130F616F797E6D
:102C80007D7D84848273806968645F626461606250
:102C90005D5E5D5C625F6162646668636667646610
:102CA0006B6F6989888A898C8D8A8B8C8D8C8C93CB
:102CB000908D89898C8D8F948E8F8F8F8D8D8E8B3B
:102CC00089888683888A7E80577189858C8B8181EB
:102CD00088848D8C8D8D82888B8F88888B8C898958
:102CE0008C8C868986878180858181817C7A7F61D1
:102CF00070887D8C8E8C8D8E8E9090888986878F43
:102D00008C8C8D898C87867A78797872746F7D84C3
:102D1000867E7A6A71413417131313105D72787AC4
:102D20007E7B82808D70726D66655F5F5E606161C3
:102D300061615E6164626266686565646565656659
:102D40006C71668D87888B8885888E8C8D898D8E39
:102D50008E8E8C8D8E8D85828D8D8F8E8F8C8B8CB3
:102D60008E86867E84878482566B8784898286825B
:102D70008A868B888D868B8B878D8B8C89898C8DB1
:102D80008B8887888687848084867F7F807B7E5D32
:102D90006D8B78848C8D8D8E908E8F898D828B8FAC
:102DA0008C898B888787817E79797A797E7A808011
:102DB0007E81746D713F3317131313115E707A792E
:102DC0007E7E88888872716A6661615E5F5F5F5F20
:102DD0005E61615F6263635E6565656666666965BF
:102DE0006B716989868C8B8886888B8B8E8B8B8B9D
:102DF0008C8D898D8A8E88868C8D908C8B8D8D8D17
:102E00008D878682868B85805B6B868188828785AD
:102E10008980858C8C898B89898C898B8B8D888B1B
:102E2000868586867E877D7B867F81797A787B5EC4
:102E30006C878088878E8C8C8B888C8D8880878629
:102E400086867D828482867F76797E7B7F827F7D87
:102E50007B7A776F6D3F3615131313136471817E80
:102E6000828588868273716A63615F5D5E5F62637B
:102E70005E6161615F625F5F656562646665696628
:102E800070726888868688858B898B888E908C8BFB
:102E90008D8988898C898788898C8F8D8E89898B8B
:102EA000888B8687898C7F7E546F8B868488898700
:102EB0008986888D8C8E888D818B8E8C898C8B8D6C
:102EC00085888786827F8083818180817E777B5C15
:102ED0007487818D878D8B8C8C8B8B898687858180
:102EE0006C878476788582867A7B7E7D857D807E00
:102EF000787A776D7241331513131311656D7B7DED
:102F000084868182866D6A67655D5B5D61625E5BFA
:102F10005D655F5F5D5F5F63616462666364686493
:102F20006A70687F8484868587848C888B8C898B83
:102F3000878286848881888685888B8B8B8E868B1A
:102F4000878986848585807B556B86868784858A7C
:102F500088818888888E888982878C8B8B898B88EA
:102F6000868585888080807D797B7B807A747F5D93
:102F7000748B868D8182898C8A8785887F87808003
:102F80007984817A7F7F7D7E777A7B76737A7A7B8C
:102F90007E787A6C6D413214131313135F6B7A7A57
:102FA0007B65818481776A6A645E5F5C5E5E5D5C7E
:102FB000585F5E616162615E6363636466666365F8
:102FC0006A736585808284847E848687718E898712
:102FD00088858886868587858B828C898C88878A78
:102FE0008888848184817E7E557282878C81848BDF
:102FF00086868C888884878782868B888489828A63
:1030000082818587867A80767E787A7A79737A5C0F
:10301000718788868488898B878C8782847B887E69
:103020007F82807E7F82827F7E787B7676687079F1
:10303000747D7B6C6D40361413131314646C7777B6
:10304000746B767A7F726A66655D5E595C5F5D61FE
:103050005E5F5F5E5D615D6163656264646461665D
:103060006B726381828180818081807F797F888695
:103070008282878784878589888088888C888789E9
:103080008789807E82867D7D587186878985898C37
:10309000868B85888B8889878689858C87878588B4
:1030A0008482878285777C797D787A797B727A5A77
:1030B00074868B8687868B8C87858B858186847FBB
:1030C000807D7E7E837D80847A7B7E76767472744A
:1030D0007679766D6B413714131313135F6D777721
:1030E0007477777B78706A64655D5D5D5C5F5C5B5F
:1030F0005E5E585D5C625F616265626462656665C2
:10310000696D688582827B7E7F8180787B7B86810A
:103110008085858982818587887A84868686898468
:1031200089867B8188857F775C6A8085878B8187AC
:1031300085818988848C868984878B888187868429
:103140008584868580797976777A76747771725DF1
:103150006C86817280857487878686848289847E66
:103160007E7D80808480818579777A7478767277A5
:103170007873726A69393610131313145D707A7E8E
:103180007284867A7673686561615E5A5B5E5C5FA5
:103190005B5E5D5C5B5E5D5D636161646261646436
:1031A0006A746480797E797A7B7B7F797B737E7D9C
:1031B000828484857B84838686827E8580878483DF
:1031C0008581817B82817A7958667D818488817E40
:1031D000858488848884868886868285867F8282A4
:1031E00082877D847E7B737878737873726C6D5A76
:1031F00070847B777E7F7B847D8886858684817DD5
:103200007A7A857F807E817E7A7B78737778737611
:103210007176726B6C3A3A1113131313616D7781E7
:103220007384817778716566625E5E5E5B5F5F5F07
:103230005D5C5B5E5F5E5F61616261616364656589
:103240006676657F7A77747A77797C747977787B1C
:103250007D807A858287878686827F828782868242
:103260007A807B7D80827A7858687D8286838585A6
:103270007E8685888288898785878A7F87858881F9
:1032800086817D857F817A747B78757A786B715AB7
:103290006D88807E7E827E807E8088898287817E26
:1032A0007F81767D7B727B7C7A7D7A737277797988
:1032B00072736F6F6D423713131313115866717267
:1032C000717D7B7674736366645B5C5C5E5E5F5D80
:1032D0005B5B5C5E5E5D5F5D61635E6662645F65F5
:1032E0006A735F7E777776737779787477737A7D90
:1032F0007D807E8080848682867D807F81847E7AC8
:103300007B797F7D7C8179725D67767A847D80822E
:103310007E7B7E8588847980848881867B877E8099
:10332000827D797D7D7E7C76737776716C70695A4B
:103330006B787B7B767A787777817F8181818176E4
:10334000797B7B79747B7677787A7773737674760A
:103350007274726D6C3B3114131313124457636B08
:103360007A7F666562766565645E5A5B5D5F5C5A0E
:103370005C615C5A5F5F5F5F616562616362626549
:1033800068715F74746F6F7475767B7E817B7C7EF1
:103390007F88898D8B8689885C958D8D928C938EA4
:1033A0009290969497809B999095989B9D9DA09FB5
:1033B000A19E69A4A4A29FA4A1A6A4A5A2A6A3A815
:1033C000A8A5A8A8A5A6A6A8A9A2AAA8A5A9AAA88A
:1033D000A6A9ABA8A8A8AF979F9BABA486908E8BFD
:1033E0008A89888C86868985858786828488858572
:1033F0008585897B827D7E151313130FB09FA19065
:10340000807FA9A8A58F6663625C5E5B5C5B5D5B89
:103410005E5B5F5C5E5A5E615F5F65615E636462B6
:10342000686BA5A59E9D9B9FA1A5A1A5AFACB0AEC5
:10343000ABB2AB8289A5A6B3B3B1AF8CA69B50AAA1
:10344000ADB2889B77B1ADABA9ABA9AAABA9AAA82D
:10345000ABA98C9CA3A8A9A9ACA8BFADAFABC4C3B2
:10346000DCD5CBCCB9A4ADADAAACB1B0ACADACACF5
:10347000B8B2AFB2B2B0B2ACABB0B1B1ACB1ADAD4D
:10348000ADAAAEA4A5A1ABA5A6A6A5A8A4A6A1A4D5
:103490009F9B989AA0979D1B1313130EA89A9F9D0C
:1034A0009A9A9CA29F90696563615A5E5E5E5D5ABE
:1034B0005C5D5D5D5B5D615F5F5D646561625E6318
:1034C00066709EA59D9F999D9A989D9C9F9F9C9D8F
:1034D0009DA19CA09D939E9DA69FA5A9A8A5A7A6DA
:1034E000A6A5A5A8A6A4A8A6A6A9A9ABA9A9A9A668
:1034F000A8ABA7A9A8A8A6A9A8A8AAA9A6A4A9A54F
:10350000908C898E9EA8A6A9A5A8A8A4A5A6A6A9C0
:10351000A59D8D939293949394959594949392955D
:10352000939493939394929493909093949B9E9D51
:103530009B9D9A9B9B959B1A1313130FA1979B9787
:103540009B9B9B9B97906C66635F5E5D5D5C5C5B29
:103550005C5B5B5F5C615E615D6162616363616373
:103560006B6DA2A29F9D9D9DA1A19FA1A1A1A3A4BE
:10357000A3A2A6A5A59A949594A5A6A8A8A8A8A82C
:10358000AAA9A5A5A9A8A8A9A6ABA9A9A8AAA8A8B7
:10359000AAA9AAA9AAA4AAABA8A9A9A8A9A6A8AA9F
:1035A000A3A4A8A8A6A6A4A8A9A5A5A5A4A6A6A5BF
:1035B000A18D716D6B686C6B726B6A6C696C6B6AF8
:1035C0006D6B6B6668666A66686863615F64666D8A
:1035D000A39F9F9B9B9C981D1313130FA2979697D5
:1035E00098969B9A978D6B6A625C5C5F5C5B5B5C98
:1035F0005B5A5A5D615E5C5D5F5E635D5F636364E1
:10360000666C9FA19F9F9F9E9CA19F9E9F9EA2A232
:10361000A1A5A2A5A6A5A2A4A6A0A6A6A7A6A5A662
:10362000A7A6A6AAA6A5A6A8A9A8ABA6A8A9AAA522
:10363000A8A8A9A6A8AAA9A9A9A8A8AAA6A9A5A907
:10364000A4A6A6A6A6A6A8A5A6A5A5A5A8A5A4A421
:103650009F8D736C6B6A6F696B6D6C6B6B6C6A6959
:10366000696C6D6B696868686966666464646371D7
:10367000A49B989A989B9A1E13131310A198979540
:1036800095979A9C998E6C6A63615D5A5D5C5F5DEB
:103690005C5C5A5B5D5B5E5E615E5E61625D636544
:1036A000686CA39D9D9F9F9E9D9C9F9DA1A19FA295
:1036B000A4A1A4A5A4A4A4A5A3A5A2A2A5A5A4A3CE
:1036C000A4A8AAA2A8A3A59FABA8A6A8A6A8A8A696
:1036D000A9A9A5A8AAA9A8A8A8A6A9A8A6A9A8A969
:1036E000A5A6A5A6A9A6A5A6A8A5A4A5A5A5A4A97D
:1036F0009F8D6F6B6A6E6D6C6A6B6D696D6C686EB9
:10370000686865696A69686864626664646263744B
:10371000A19D989C989A971E13131311A1979794A3
:1037200096989D9A94926F66625E5A575A595C5A5F
:103730005C5A575B5E5C5D5E5F5D615F61626362A8
:10374000666B9D9F9CA19C9C979C9E9D9F9EA3A207
:103750009FA1A1A3A3A5A3A4A4A2A4A3A3A3A5A539
:10376000A4A9A3A5A5A6A6A6A8A8A5A8A9A9A5A8F1
:10377000A8A8A9A8A6A8AAA5AAA5A5A9A5A5A6A4DA
:10378000A5A4A5A5A5A6A5A8A5A5A4A4A4A5A5A3EB
:103790009D886D6C6C696C696B6B6B696A68696F2D
:1037A00069696A69686466666563646563636471B0
:1037B000A19A9A9C9898971E13131313A197969504
:1037C0009696989596937168645F5C585B595B58C0
:1037D000585E5B5A5A5E5C5D616161626161626202
:1037E0006A6D9D9F9B9A9C9D9E9B9B9B9FA1A19F69
:1037F000A29F9FA2A2A4A3A3A2A4A4A4A4A6A1A2A0
:10380000A4A5A5A5A6A4A4A3A6A6A7A9AAA9A9A953
:10381000A9A5A5A5A6A8A9A6A8A5A9A6A3A4A5A546
:10382000A8A6A6A5A6A6A5A4A4A5A5A4A49FA5A54B
:10383000A287716A6C696B6D6C6A68666B666A698F
:10384000696268666A69656868615F626163667318
:103850009F9B9D979B979A1E13131313A195959564
:103860009494989797926C68645E5D5C5C5C5C5A1B
:103870005B5C5A5C5A5D5E5F5A5E5E5E625F5F646F
:1038800068699D9D9A9B9D9C9C9E9E9C9C9F9FA1D0
:103890009EA1A1A1A2A3A2A59FA1A5A3A3A3A4A207
:1038A000A3A5A4A5A4A5A8A3A4A4A6A5A8A8A6A8C2
:1038B000A6AAA6A8A8A6A8A6A5A8A9A7A9A4A8A696
:1038C000A4A3A6A8A6A4A6A6A1A3A5A4A3A4A1A3B5
:1038D0009F876C6B6B6C6D6A666B6B696A69696BF1
:1038E0006C6865656569636564616162635F627286
:1038F000A29D969A9897961E13131314A1969497C7
:103900009497979795946A66645D5E5C5659585A89
:10391000585C5A5C5D5E5B5F5F5E5E5E635D6464C7
:10392000686B9A9B9A9B9B9C989C9C9C9D9F9F9D3F
:103930009FA19E9EA2A3A1A1A5A2A4A1A2A4A5A36A
:10394000A5A5A7A4A6A6A5A6A5A6A5A6A6A5A5A223
:10395000A8A6AAA5A9A5A5A8A6A8A5A6A8A6A5A4FF
:10396000A9A1A6A2A2A5A3A5A2A2A2A1A39F9FA22C
:103970009D856F6B696A6C686B696A6C686A696857
:1039800066666869686368646265636461616273DE
:10399000A19D9C9A9896941D131313149D9694932D
:1039A0009594959897946C69635D5C585A595B57E8
:1039B0005B5B585C575D5C61615E5D5F615D63622E
:1039C000686A9A9C9C9B98989E989E9B9C9C9F9CA6
:1039D0009D9D9F9F9C9FA0A3A2A2A2A2A4A4A5A3D9
:1039E000A3A5A5A4A4A6A6A5A5A5A6A5A6A6A6A387
:1039F000A8A4A9A9A8A8A4A6A5A8A4A8A5A4A8A362
:103A0000A4A6A8A8A6A3A19C9E9D9D9F9FA1A29F9E
:103A10009D866C6A6D6B6B696C66686A68696A6CB6
:103A20006A6A686A64696562666262636261647335
:103A30009D9D97979897931D131313149E93949598
:103A40009796959693966D65645F575A5A5B5C5747
:103A500058595F5C5B575F5B5D5B615D5A62606597
:103A6000666D969A9A9898969D9C9D9B9B9D9B9C13
:103A7000A19E9F9C9F9DA29FA09FA3A1A2A39EA148
:103A8000A4A3A1A3A4A5A4A5A4A6A2A7A4A3A3A8F4
:103A9000A7A5A6A6A5A6A9A8A6AAA4A8A3A1A5A1CC
:103AA000A5A5A4A5A3A19D989D9B9A9C9C9C9E9C2A
:103AB00098876D666D6B6B69666B6A6A6C6A69681C
:103AC000686669636469666562646161625F647A9D
:103AD0009C9B9C959897961C131313139E949493F8
:103AE0009396969594956969625F58565C5A5B5AAD
:103AF0005A5A5A575C5C5C5D5E615F5E61616163EE
:103B0000686D969C9897979B9B989B9D9B9A9B9E74
:103B10009E9C9E9C9D9C9E9DA3A1A1A1A2A1A2A2B0
:103B2000A4A3A4A5A4A4A4A5A5A5A6A2A5A4A3A452
:103B3000A7A5A6A6A8A8A5A5A6A5A5A6A4A8A2A52A
:103B40009FA6A4A3A4A29A9B9D9A9A98949A9D9C9E
:103B500097846C696E6A6A6B696C6B6865696A6C7C
:103B6000666A6663666665656564636263646377F7
:103B70009E9798979797951B131313139C8F909567
:103B80009294969695946B686559585A575B575C12
:103B9000565D5A5D5B5C5B595B615F5B6261615F57
:103BA000636A9698989698969C9C9A9A9B9A9E9AE5
:103BB0009C9F9C9F9D9E9C9E9DA1A29DA0A2A49F18
:103BC000A5A4A2A5A5A5A2A4A2A6A5A2A4A4A2A6B6
:103BD000A4A5A3A4A5A8A5A5A2A8A5A3A5A3A5A39C
:103BE000A3A4A1A3A19D9B9D9B9B9C989E9B9C98FD
:103BF00097826B6A6B6966696A6D696A656C6864ED
:103C000068666666686563655F646265625C617F5D
:103C10009A9C979896959718131313119C909093CC
:103C20009393949592956B64635A5A5A5A5C5A5777
:103C30005A585A5B61585C5B5E5C5E5D5F625F64B4
:103C40006669929798979A979B9A9B9A9B9B9C9C44
:103C50009E9A9F9B9C9CA09CA29FA29BA19F9FA180
:103C6000A39FA3A3A5A1A5A3A4A5A4A4A4A3A5A51C
:103C7000A1A3A6A8A3A3A5A6A5A5A6A5A5A4A4A2FD
:103C80009FA2A2A3A19D989A9B9B9A9C9B95989674
:103C9000957E6D6A6D6B676A6A666A666D696B6848
:103CA000666666686368636264655F61615F6280BF
:103CB0009A95979796969518131313109C90938F37
:103CC0009493959392986B665E5E5A5B5B595A5AD1
:103CD0005A575D5B5B5C5C5A5D5D616162625D630E
:103CE000656A929B9898989A98989A9B9A9C9C9DA2
:103CF0009E9C9B9E9B9C9C9E9C9FA29D9FA1A1A1E4
:103D0000A09FA1A3A5A4A5A4A4A6A4A5A4A2A3A37F
:103D1000A2A89FA1A69FA4A8A3A9A4A6A4A1A6A463
:103D2000A1A1A3A3A29E979C979B9B9A9B989698D0
:103D300090816B696B6D6A6B676A6B69696A6966AA
:103D40006666686464686665646263665F61638111
:103D50009B9895989394921A131313109890908DA2
:103D60009092959092976A64645D5A5B55565C5B3D
:103D70005A595A5A5A5C5B5B5D62615E5D5F605F77
:103D8000656A8D9896979598969698969797989A2B
:103D9000989D9A9B9D9D9B9B9B9BA09EA19EA19C59
:103DA0009FA1A2A1A3A4819E929B9C9D8D7E9F9E7C
:103DB0009FA29FA2A4A3A3A5A2A4A3A4A3A1A3A3DB
:103DC000A5A29DA3A19E9798939A98989A9494944B
:103DD00095896A686B6B666A65696A6666696B690C
:103DE000696463646A6564616464625E66615F817C
:103DF0009A989696959595181313130F9A8C908B05
:103E00008F8E929094946B64615C5A5A575C5A58A6
:103E100056575A5A5C5E5D585D615D5D5D5E5E62DF
:103E2000636B8F959797979496959496969596979A
:103E300095979598969598979B9B9D9B9D9F9AA1EA
:103E4000A09FA1A2A262505690908E9591879B95BB
:103E500095A1A8A39EA4A3A3A4A5A3A6A3A39EA241
:103E6000A39FA2A39F9D9C989598929596979595B0
:103E70009A816B696C6A6A6A69666B696A66686965
:103E800069696964646562656261626461626386CE
:103E9000969598959795951A1313130E9A938F905C
:103EA0009093949390946C62625C5657585758590B
:103EB000545A575A5B5D5C5A5E5C5D5F5D625F5B46
:103EC000656A8D969497979A96979698979A989AE6
:103ED000989796969896979A9C9D9E9C9BA19D9E3E
:103EE000A29F9F98889B92928E6A698F8B838D8AFE
:103EF0008B949DA29EA2A2A2A2A5A4A3A4A59FA4C6
:103F0000A2A2A1A2A29E9D989B9B9696969C9A95F2
:103F10009894666A6B6B666A69646B696B6A6866BB
:103F200068656463646465645F665F5D615E5F814C
:103F30009A9797969A94921C1313130E968D8D90C0
:103F4000908F909393976D645F5F57575856585969
:103F5000585A5C55565B5C585B5E5F5F5C5C5E5FAD
:103F60006369869598969495969794959697969B5F
:103F700098989B9899989D989C9BA19EA19E9EA481
:103F80009F9B8C898EAA9F8F8786857D9B847D7D54
:103F90008187878C989EA1A1A39F9EA8A3A2A2A17E
:103FA000A2A09FA39FA19C9D9B9B9B9A989B99934A
:103FB0009394696A6A69666B666966686869666827
:103FC00066696468685F62636265645F5E6261849B
:103FD0009896959494938E1D1313130E978D8D8B35
:103FE000908B908E909565625D5E5B5758555A56E2
:103FF0005B5856585A5C5B5C5D63615C5C5C5B5F04
:10400000626A8696949393949493939495949498D7
:10401000989A989598989898989B9E9D9D9E9F9FFA
:104020009E8788927E89848A83848794817D957A0D
:10403000807E86888C94A19FA29FA1A29DA2A39F0F
:104040009FA19FA39F9E9F9D9E989C9C9D9B9B979D
:10405000959265686B686A6465686864666369669A
:104060006168646564616461625D61615E5F5F8413
:10407000979793959590901D13131310978B8F8E90
:104080008F8F8E8F909569645C5D5C58585755573B
:1040900058585A575B5C5B5A5E5B625F5E5C5A6164
:1040A0006366829C96979295979696979A9598981C
:1040B0009A9A9A989897979D9C9C9C9C9DA19F9F4B
:1040C00093446A7E7280BE7882827F7D8793837FED
:1040D00080858A85939A9F9F9EA19EA2A2A19C9C67
:1040E0009F9DA39F9E9D9F9D9A9D9D9C9A9C9B9A00
:1040F000968168686A69696B666565696468696400
:1041000062666565656462636561615F5C5F628B61
:1041100096969294958D8F1E13131311968D8D8EF6
:104120008D8B8F8D8D966B5E615A5D58585B5456A2
:104130005B5A585C5E575A5B5B5F5F5E5D5A615EBF
:1041400061688498989A94969697979497959C9A74
:10415000959B9B9A9B9898969B9F9E9D9D9AA19EAE
:10416000743580737D8A6D7073807F847A958573D2
:104170008085877F8B82A3A39F9C9BA19F9F9C9DF3
:104180009D9C9D9F9F9D9F9B9D9D9D98989B989773
:104190009581656A6A69656B656A68696668636462
:1041A0006664636462626464635E6261635E5F8CC2
:1041B000969695928D908F1E13131311968D8B8E5C
:1041C0008D898D8F8C90695E5E575A58565855551B
:1041D000565657575C575B5A5C5E5E5F5E5A5C6230
:1041E0005F668198959794969496959696989698EA
:1041F0009A979B999C9B9C9798969A9C9D9D9F8F24
:104200006C6570767477777A7C78817F7D81819E0A
:104210005B85716D827F9F9E9E9E9C9D989B989CC6
:104220009B9B989B9D9B9C9B989B9D9898989898EE
:10423000937B6969696968656868636864666466D0
:10424000626563636163616162615E5B5E5F5D8C39
:1042500093959093928D8C1D13131313978B8C8DC4
:104260008C8B8E8D8994645F5F5857565A55585A77
:104270005658585D5A565D5D5C5A5D5E5B5E5C5F8C
:104280006164809895959496929595959796989750
:104290009A98979B98999898989B9D9C9D9AA36BA8
:1042A0006F6A726CA1767878768B7D8196827E813A
:1042B0007F96947D797D8DA59EA19D9C9798A09BCE
:1042C0009A9D979797969798969696939698939681
:1042D000947B6466666A6666666A6466666366653B
:1042E00064646163626362625D625E5E5F5D5E9094
:1042F00092939093908B891B13131313948E8D8C30
:104300008B898B8D8D8F63615D585B5757555457E3
:1043100059585A585C5D5B5B5A5B5B5B615B5C5FE9
:1043200063668197979396949598949498959796A9
:10433000969A979A9B97999999989A989A9D9F641B
:1043400066636D79737973918C7A787E917A838CB8
:10435000787B7D707D7381A49F9B9B9E999C9B9B8A
:104360009D9A979A989895969390939092939493F8
:104370008B7662666B6568656268686666656565AA
:1043800062636666636166625E5C5E615D625C8CF0
:10439000908F8E8D8C89891A13131314908B8B8BAD
:1043A0008B8D878B8E93665E5A5756585758565842
:1043B00058585859585B5A5B5B5E585B5D5F5E5D51
:1043C00062697B969695979693989596979497960B
:1043D0009797969A9997969799979C979896936C92
:1043E0007A6C66696F74707979687D737B71706CB3
:1043F00085817370786B76A4989BA09B9B9D989BFE
:104400009B969B98989A989897979492938E8F8D55
:104410008E72696867646A65696764696564666302
:104420006662616462615E615B5D615F5D5F5C8E5F
:10443000938E8D8C8C8C811A131313149589888C10
:10444000858C89888B8F64615C5B56565A545755AE
:1044500057545B575A5C5C5A5C5A5D5B5B5B5C5DB6
:10446000646679989492959493959096999593957E
:104470009995959D96959696959B979898978E6504
:104480006B7268657A6B766D7478766C706B6A683F
:104490008678737171676F9C979A9A97989E979791
:1044A0009698979493979797949594928E989692BE
:1044B0008C6C616968656564686865686266626677
:1044C000636366655F61625E5F5E5E5C5C5F5C76D7
:1044D0007A6D6D68645E57101313131373716A5FFE
:1044E00062615D5C5F666B615B595A565453575607
:1044F0005757575659585C5E5A5E5A5D615B5C5F10
:104500005F68728585818A858686888E8E8C8C9080
:104510008E8E8B8D8F888786878C8590938F8A5F10
:1045200062706962849F8871766A6565615B5D7798
:104530007271726F6F7473817A76726C66615B5D93
:104540005A5854514D4C46413F3F3938373F3D4012
:10455000406F63696866686668666166646665621E
:10456000655C6562625F61615F615D5C5E5C5D822E
:10457000858687888585801613131313968E8C8DF8
:104580008C8B8E8D8D946A5F5C5B57565458555852
:10459000565A585B5A5A5D5A5A5C5D5A5D5F585C70
:1045A000616878A89CA29D9F9D9D9E9E9F9FA1A5AE
:1045B000A2A6A1A49FA9A6A5A5A8A7A6A4A69F60F8
:1045C000696859656A696D6A698B716A71779568FE
:1045D000716C6F6F6B7B74A99FA3A3A49FA1A39E13
:1045E0009D9E9E989A9D9A9A9C989E9E969C9A9A19
:1045F0009A6F6469646B6565686865666464626522
:1046000062616565635D61615F5E5D5E5E5E5C8C7F
:104610008F878B8882828018131313119D93939236
:10462000909291929097645D5B56515558575655AC
:104630005A565A57585B5A585A5A585A5B5A5C5EDF
:104640005E66739D989A9899989E9B9D9C9C9A9C57
:104650009D9A9B9B9E9D9A9D9D9C9B9A9FA19E5FD0
:10466000645F5D646C64605F6A6664686B66656DF8
:104670006A686B6C697B79ABA2A29F9E9E9C9C9E94
:104680009D9E9E9C9D989A9D989C98999A9D9D9B75
:10469000986B65666A646566636566636666626391
:1046A000656261625F625E615F5A5F5B5D5A5B95E6
:1046B0009595969494928E17131313119F9897972C
:1046C00094969597979C68615C57545555585855E2
:1046D00054565A57585B5B57595B5B5C5D5A5C5D3F
:1046E0005F6473A59FA2A3A6A9A5A4A4A5A8A4A935
:1046F000A5A5A8A5A5A4A6A5A6A6A6A9A6A9B05F96
:104700005F6158645B5356565C5D616463616366C8
:10471000626469686A7181B2ACA8A9AAA4A8A6A5B6
:10472000A5A5A8A6A4A59FA8A8A5A5A7A4A5A5A337
:104730009E7164656A6662656566646362666162ED
:1047400063625E5F615D615D625C5B5C5D5D599E45
:104750009895969794938F1713131310A690959688
:1047600097979698848C645E5B5857545856565564
:1047700057565A5C56575A5A5D5B5C5D585C5B5C99
:10478000636972ADA9A9ACADABAAB0ABAAABA9AB3A
:10479000ACAAA9ACAAA9A9ADC5C7ACABACABB46D6A
:1047A0005D5D5E5F6264695A605F63615F62626201
:1047B0005A5860665F699BACA9ABABACACAAA9AA1E
:1047C000A9A9A9AAA9B1B6B86888BCB9BDB9A8A554
:1047D000A56A61696668636465686366646163624B
:1047E000645F635F615E615D5E5D5C5C5B5F599CA5
:1047F000989B96969597901813131310A5969B98CF
:104800009C9D9B979AA16C5E5D5A5758565756537C
:1048100056575A5B585B5B5D5A635D5D5C5B5D5DE3
:10482000616470B2A8AAAAAAAAAAA9A9AAA8A9A9B1
:10483000A5AAA9A8A5ABA8A8A8A9ACACACACB098EF
:104840005D585C5D5D616657635D61625F615F5F7E
:104850005F686B6A5E76A6ABAAAAA9AAACADADB03A
:10486000ADA9ABADACA8A8ABAA6687A5AAA9A9A516
:10487000A368636A626562656564656664616362B4
:104880005F66615D625D615D5E5E5D5E5C5D5A9FFF
:10489000989B96979495931A1313130EA19A939736
:1048A0009A9A969B9A976C5F5B585C545657555AE8
:1048B000555A57565A585A5B5C5B5C5E585C5A5A5C
:1048C00061626EADA9A6A6AAA6A6A5A5A3A5A9A53F
:1048D000A5A6A3A4A8A5ABAAA6A6AAABABABB1BD3F
:1048E0005A575D58585F5C5D5B5D5D5C5D5C5C5D0F
:1048F0006362575D5C78B0AFABAFACACAFB0B0AC9F
:10490000B0ADAAACA9ABA3A9ABAAA8AAA9A8A5A611
:10491000A665656863656564646366635F61666216
:10492000616261615E625E5E5D5A5D5A5A5A589D6F
:10493000979698969690901B1313130F9C969595A7
:104940009597949589977062585456565556555771
:104950005A555A59575B57585C5D5A5B5C575B5EBA
:104960005E6271AB9FA4A4A2A59BA2A5A29FA5A4D1
:10497000A5A4A3A2A1A1A5A4A6A5A6A5A8A8ABACE1
:10498000A3575C5558615A5A545C5A5B5C57565D44
:104990005C58575C579FABAFADACA9A9AAB0ADB0FE
:1049A000B0AAABA9ACABABABAAA8A5A5A7ABA8A670
:1049B000A46964656368656864636566606263636F
:1049C000635E615E5E5C5F5F5D585C5E575B5A9DD7
:1049D000989A98989793921D1313130F998E91900C
:1049E00093918E8F9093715D5A545B5556555458E0
:1049F000575758565A565857565A585B585E575A32
:104A00005C616AA8A19F9C9F9EA19F9EA1989BA26A
:104A1000A49FA5A1A19DA1A1A1A3A29F9D9DA2A587
:104A2000A963565554545A575456565A54515354D0
:104A30005454575376AAACAFB0B0ADACADB1AFAB38
:104A4000ADB2AFAFAFADACABAAAAAAA9A8A8A5A5B5
:104A5000A55F636664686263626663635E635F61E9
:104A6000615F5F5E5E5F5E5E5B585A5A5C5B5A9E3A
:104A70009696979394938F1D131313119D80928F85
:104A80008E909193949374625B5857515753555439
:104A9000585555575A575754565A5A5B5A5A5A5E90
:104AA00057636F9A97989B9D9FA09F9E9E9FA19FE3
:104AB0009D9C9E9FA19E9E9C979AA19C9B9A979835
:104AC0009A9C4D514E55574F5F5A5E5B5D564E4E08
:104AD0005155585CA5A8A8A6AAADADADAFB1B2B16D
:104AE000B0B2AFB0ADB0ABADA9AAABA6AAA3A6A118
:104AF0009F65616665666361616561625F61615F53
:104B00005D5C5F5B5E5D5D5A5C5B5A575A5C579FAC
:104B10009694969592948E1F13131311988F8F8CE1
:104B20008F9694938F92785E5A575A575454505395
:104B300057565658565755565A5C57585A5A5D56F6
:104B40005B6170939A9CA09D9A9E9D9A989E9E9E52
:104B50009C9D9B9B9D9B9D9E9FA09D9A95948E8DB9
:104B60009090935E554D4D54504E4A4F504D4D4789
:104B7000484E5D9F9EA2A1A2A5A6A2A9A9ABACB2D8
:104B8000B3B6B2B3ADADAEAAA9ABA6A8A5A5A29B7C
:104B90009B635F646565646262615F6264615E61BC
:104BA0005D5D5E5E5D5B5C5A575A5B5A5A5B579817
:104BB00093929490938E941D131313139C8D8D8C4C
:104BC0008E8D8B8E8B8E7E61565455555554555116
:104BD000545654555758555557575858565A575A6A
:104BE0005764819394979A9A9D9E9B9C989D9C9CB8
:104BF0009DA19E9D9B9D9E9D9C9E959292908E8D2B
:104C00008C857672623E48463E41423A38474A4871
:104C10004A6776879499979B9F9FA3A1A3A8A9A968
:104C2000ADADACACACACADACAAA6A69FA29E9D8F20
:104C300088635F626264615E6162645E5E615F5D43
:104C40005E5B5D5A5B5B585A5A5B585B555A5C8D8C
:104C5000909090938E8E8D1E13131313978D908BBF
:104C6000908D908D8C9086575754534D515355537A
:104C700054545154555156545656575756545646F7
:104C80006C87888F8E93979A9C9BA19F9C9D9C9EDE
:104C9000A1A19F9E9AA09C9DA4A198938C8D8C8C81
:104CA00089867D614D3F2C23302F3233363B3B2F9D
:104CB000465F6D7C949593989C9A9C9EA2A4A5A80F
:104CC000ACACAAABA8A8ACA9A8A9A8A9A4A4A49F65
:104CD000A094928B8B87877F7F7D787A76747473AC
:104CE0006F6C6B6B615D5D565B55555351585B90B6
:104CF0008F908C8D8F8D8D1E131313139B8D8F8F23
:104D000094919393959594856B54484E545656546C
:104D1000545758535455545550534E505B76888BC6
:104D20008B8D8C949897979C9DA0A3A4A5A2A1A1DC
:104D3000A4A5A3A4A6A2A8A8A5A4A19C9695938F78
:104D40008E8A8576695C4C46464244444C545D5E8E
:104D50006B72858D929D9C9F9DA19DA4A2A5A8A9E3
:104D6000AAADAAAAA8AAA3A6A2AAA8A7A6A9A8A6C5
:104D7000A09C9598989596959593928D8D90898EF7
:104D800090908E89888B88878480807F84828490AD
:104D9000928E90908E8E8B1D131213149D95969566
:104DA00095959697969693938D8E8993897A776B3E
:104DB000635E66656C7680888E8F938F908F8E8D04
:104DC0009396939B9D9B98979CA4A3A5A2A5A6A60A
:104DD000A5A5A4AAA8A9A9A9A9A6A4A19E9C9A969A
:104DE000958E8D8C7D7A7F78716E6D6F6F77787B05
:104DF00086888E959BA0A4A4A4A3A4A5A9A6A9ACCB
:104E0000AAAFADABAAAAAAABA9B0AAADADACB0A9E6
:104E1000A6A49C9898959696979692959795908F1C
:104E20008F8F908C8B8B8B8C8C8984898487858BDE
:104E30008B8F8F8F8E8C8D1B13131313A397979BC0
:104E40009B979C9C9A9B9D959594928F97949390F9
:104E50008F8E8D929090949A9897979899989C9805
:104E60009C9F9FA6A2A3A1A2A3A2A5A3A9A5ABAA0A
:104E7000ACABACAAABABA8ACA8A6A8A6A4A5A2A2B2
:104E80009F98959597959093939295918C8D928CF0
:104E900092929696A19FA3A6A5A5A4A8A6A7A8AA04
:104EA000A9A9AAADABA9AAACADACADAFABABA9A952
:104EB000A49E9F9A9E9C9D9C989E989A9495989546
:104EC0009593978F8F8E8E8D8C8986858687899016
:104ED0008E8E8E88898B8818131313149F9695983D
:104EE0009A9C9A9B9398A09897989793969493904E
:104EF00090929493929899999B989B9A9A9CA19B33
:104F0000959A989DA4A1A5A4A5A4A3A3A6A5A4AA87
:104F1000A8ADAAABAAAAAAACADAAA9A5A8A6A3A304
:104F2000A69D9B9B9A989D979A9496948E94939203
:104F3000979C9CA6A1A3A4A6A4A5A59FA5A4A9A847
:104F4000A9AAADAAACA9ACABA9ACACAAA5AAA9A4C4
:104F50009F9D9C9E9E9E9C9E989D9B9698989795A3
:104F6000939492928F92918E8A878E8D8D8B8C8D59
:104F70008F8E928D8C8C891B13131311A19496988C
:104F8000959697989B9F9B9D9B989A98989395929E
:104F900092949897979B9D9F9D9CA19BA19D9B9E62
:104FA0009A9BA1A1A4A9A4A5A5A5A9AAABA5A9A9B5
:104FB000ABA9ACA9ABABA6ADADAFB0ABADAAABA640
:104FC000A29E9F9E9C9C9B9D9F9C9B9F9C9C9A901D
:104FD0009EA19FA4A8A4A6A5A6A5A6A6A8A6ABA97F
:104FE000ADACAFACB1ABACABAAABAFAFADAAA9A502
:104FF000A2989A9998979C989A98989B989698981E
:10500000949594918B93908F938D8E8D8D8A8E90A5
:105010008E8B8E908E8D8E1813131311A295989AE5
:10502000969B989D9A9F9D9D979498978998979AFB
:10503000969798979D9A9B9F9F9DA49E9F9CA1A3A6
:105040009A9F9EA4A4A9A1A8A6A8A5ABA8A9AAA610
:10505000A8AAACABACACA8ACADABB0AFADADADAC91
:10506000AAA9A9A5A3A2A1A4A2A1A3A0A3A4A3A302
:10507000A5AAA6A6A6ABABACAAA9A8ADAAAAB0AA97
:10508000ADB0AFB1B1ADAAAFADABABACADACACA94F
:10509000A8A19F9DA1A49F9E9C9A9C989A98979640
:1050A0009895959396929393908E8F8C938C8D8BED
:1050B0008C8B8B8C8D8C8E1A131313109F96959559
:1050C000969A9B9E9EA0A2A19F9B979D979D9C9C1C
:1050D0009A98999F9C9F9C9DA2A5A3A3A5A49B88F9
:1050E000A39FA3A4A8A8A8A8A9ABAAACAAA8A4AA4D
:1050F000ABA6A9A9ADAAADAAADB1B1AFB2B2B0ADE0
:10510000AAA9A9AAAAAAA5A6A9A3A6A9A5A8A3A22D
:10511000AAAAA9ABA5AAA8ADADB1AFB0B1AFAEB0C8
:10512000ADB1B0AFACACADADADABABAFB0ACABADAA
:10513000A9A9A3A39E9E9BA39E9B9E9C9A9D989C7F
:1051400096989B9A99999C979694958F938F909205
:10515000908B928D8F908E1813131310A39799989C
:105160009A9B979D9F9FA29D9E9C9C9A97979B9A86
:105170009F9D9D9F9D9C9E9DA4A19E9F9BA2A29D45
:105180009FA5A4A6A5A8A8ABA9A8AAA8A6A8ABA4B1
:10519000A5A9A9AAABACADADAAAFB1B3B2B4B2AD3B
:1051A000ACA9ABA6ACADADA8A6A8A9AAACAAABAC5D
:1051B000ABA8ADB0B1B0B0B1ADABB0B0AFB0AFB106
:1051C000ADB0AFB1B0AFABB0B0ADACAFB0AFAFAAF8
:1051D000A8AAA6A1A3A1A29EA19F9E9F9F9B9C9BC4
:1051E0009898979A9C9A979293969896908F8C8F6E
:1051F000908F8E8E908B8C181313130FA29593940F
:1052000098949C9F9B9D9C9E989D9A9B9898989CF7
:105210009E9998989A9B9D9FA09FA29FA29F989EBF
:10522000A3A1A6AAACA9AAA8A9A6A8A5AAA8ACABFE
:10523000ABA5A9AAAAA9ACAAADACB2B0B3B1B0B79C
:10524000B0ABABAAADA9AAADA9AAB0A44F616956EB
:10525000515E96ADB0ADB1B1B0B1B0B3B4B0B0AD18
:10526000ABB2B0B0ACAFAFADB2B2B0B2B1ADADAB4E
:10527000ABA9A8A5A5A4A89D9E9F9CA0A39D9D9D0C
:105280009A979692959898979796989795929893BB
:1052900093958F8E8B8F8D1B1313130E9D92938F6F
:1052A0009597989B9A98979DA09F9D989C9B9C985A
:1052B0009896999C9C9B9D9E9CA59C9EA39C9F9F21
:1052C000A3A2A4A7ACACA9AAA9AAA6AAAAACADAD50
:1052D000ABAFADABADB0ACADADACACADB0AFB1B1F3
:1052E000ACADB0ACAAADABADAAABADACB0A95E5C99
:1052F00096ADACADADABB0B3B0B1B2ADB3B0ADAFD8
:10530000ABACAFADAFAAACACB3B0B2B1B0ADADACBD
:10531000AAA9A6A8A6A7A3A2A4A2A5A3A19F9E9E50
:10532000989B9797939797989A9B9794989595930E
:10533000939595908D8D8B1C1313130FA2949896B3
:1053400098999A9E9F989E9E9FA39DA195969A98A4
:105350009C9B9C9E9F9B9B9A9D9A9F979D9C9D9F8B
:105360009FA1A3A7ACADAEA7A9A9AAABABAEACACAD
:10537000B0ACB0ABADAFADAFB0ADB0ABADB1ACAF4D
:10538000B0ACADADACAAACABACACACA8AAAAACA866
:10539000A9AAAAACABACB1B0ADB1B0B0ADB1ABAD38
:1053A000ACABACACABACABADAAAEB0AFACADACAC37
:1053B000AAA9A6A3A3A49FA2A3A4A5A6A5A2A2A4AA
:1053C0009E9C999A9797959893969294908F8D908A
:1053D00090948E8F8B8E891E13131310A5989B9A11
:1053E0009B9E9DA298A4A19FA19FA3A29C9F9E9FCC
:1053F000A3A2A39F9E9C9A9FA0A1A49AA2A4A5A3A6
:10540000A2A2A4A4A9ACADAEB0ACABADABACAFACFA
:10541000ADACB2B0AFB0B0ADB0B1AFB0ADB1ADAF9B
:10542000ADADABADB1ACABADACB0B0ABACACADACAD
:10543000ABABADADACADB2AFB1ADAFB0ADB0ADB18A
:10544000AFACAFB0B2B0B3ADAFB0B2B1B1AFB0AF5F
:10545000AFAAABA4A59FA3A4A2A9A1A0A19C9A9F17
:10546000A29F9E979A989A969096909790929490D1
:105470008E8B8E8D8F8D8B1E131313119F94989A84
:1054800095989B989DA1A3A3A19CA2A6A3A3A6A621
:10549000A7A49FA19C9D9EA0A09B95A4A3A29E9D16
:1054A0009D9E9EA1A1A6A9A8AAACA8AAA9AFADAF8E
:1054B000ACACAAABB4AFACB1ACACACB1ACADABB016
:1054C000B1A9ACACADAAADADABABA6B1ADADAFAB18
:1054D000ACACB1AAACAFADADB1B0AFAFB2B0ACB0E7
:1054E000AFADADB0B2B0AFB1B2B1B1ADB1AFABACC9
:1054F000ACAFAAAAA8A5A3A3A5A1A29FA19F9F9A6A
:105500009D9A9A9C979090939290928F8E948E8D64
:105510008E8F8D8C8D89881D131313119E949798EF
:105520009A9B9A9D9D9F9EA3A29EA1A4A3A5A2A380
:10553000A4A5A1A1A3A5A5A4A5A4A1A8A8A6A5A129
:10554000A2A2A5A7A8A6AAA5A5ACABA9ABABABABDD
:10555000ACACAEAFB0B0B0B1B0B2B2B2B1B2B0B04C
:10556000ADB1B1B0AFADACACB1B0AAACA8ACADAB65
:10557000B1ADB0AFB1B0ACB1B3ACAFB1B0B09FB141
:10558000ABAFAFB0ACB1ABAFACACB2ACADABACAD44
:10559000AEACACADAAA9A6A4A19DA1A0A29C979ACD
:1055A0009C989B9A9897928F9293908E928E908FC0
:1055B0008F8D888B8D86861E13131314A296949656
:1055C000959E9F9F9FA09F9FA4A1A39F9F9A9DA1EF
:1055D000A2A1A19FA2A4A5A6A8A8A7A5A2A59EA492
:1055E000A5A3A6A5A6AEA6A9A6ABACACADABAFB025
:1055F000ABB0ABB1B3B7B0B0B4B2B4B0B6B2B1B295
:10560000B0AFAFB1B1B0B1B0B2ACB1B0ADACACAFA6
:10561000B0B2AFB0AFB0B3B1B4B2B3B5B2B4B3B06F
:10562000AFB1B0AEACACACB0B1B0ADB0B0B2B0AB8D
:10563000B0B1ABA8A9AAA6A5A8A3A89E9BA29D9E0F
:105640009E9A9C9A95959A98959790929590908FFE
:10565000908D8D898E88861D13131313A1969698AD
:105660009B9D9E9E9E9E9AA1A2A2A19D9F9D9E9E55
:10567000A2A29FA2A2A8A4A5A8A8A5A8A4A3A9A5E0
:10568000ABA8ABA9A8A8AAABABA9ADB1ACB0ACB163
:10569000AFB1B1B1B2B2B0B1B3AFB3B3B6B6B2ADF0
:1056A000AFAFB0B1B2B2B4ABB0ADB2B0B0AFACAFFF
:1056B000ADB1B3AFB3B6B3B4B8B2B3B3B3B6B1B2BE
:1056C000AFB2B3AFB0ADAFAFB3B2B0B2B0B1B1B1D2
:1056D000AFABABABA8A6A6A9A1A59D9EA29B9C9B88
:1056E0009C9E9E969A989A979597969692938E904E
:1056F0008F8C8D8B89877D1E131313149E8F949E20
:105700009D9EA19FA29F9FA3A4A4A19A9BA19C98A8
:105710009EA09EA1A4A2A3A4A7A8A8A8A5A3A3A94C
:10572000A8A9ABABABADAFB2ADB2AFABB0B0B0B29E
:10573000ADB0ACAFB2ADB2B3B3B4B2B3B6B2B6B350
:10574000B0ACB2B2B1B4B3B4B2AAABAEB4B0ADB057
:10575000B1B0B2B2B4B1B3B4B6B7B2B3B3B2B2B11E
:10576000B2B1B2B2B2AFB4B6B4B1B0B2B2B0AFA926
:10577000AFACABADA9A8ABA6A6A8A4A4A8A49F9FB4
:105780009B9D9B9F949A9A97959495949695908DAE
:105790008B8E8B8D8587821C980C0000004000400A
:1057A0001000000000800540100000000050004084
:1057B0001100000000900540110000000060004052
:1057C0001200000000A00540120000000070004020
:1057D0001300000000B0054013000000004002402C
:1057E0001400000000C005401400000000500240FA
:1057F0002E00000000D005402E0000000060024096
:105800002F00000000E005402F0000000070024063
:105810003000000000F005403000000000D00340E0
:105820004600000000000640460000000010064050
:1058300047000000002006404800000000300640FD
:105840007F0000000040064080000000005006403D
:1058500084000000006006408C0000000040004012
:1058600010000000008005401000000000500040C3
:105870001100000000900540110000000060004091
:105880001200000000A0054012000000007000405F
:105890001300000000B0054013000000004002406B
:1058A0001400000000C00540140000000050024039
:1058B0002E00000000D005402E00000000600240D5
:1058C0002F00000000E005402F00000000700240A3
:1058D0003000000000F005403000000000D0034020
:1058E0004300000000000640430000000010064096
:1058F0004400000000200640450000000030064043
:1059000058000000004006405900000000500640CA
:105910005C0000000060064064000000007006406B
:105920006C000000008006406D0000000090064002
:105930007F00000000400040008005400050004013
:10594000009005400060004000A00540007000404D
:1059500000B005400040024000C005400050024039
:1059600000D005400060024000E0054000700240A9
:1059700000F0054000D00340000006400010064043
:10598000001006400020064000200640003006407F
:1059900000300640004006400040064000500640EF
:1059A000005006400060064000600640007006405F
:1059B00000700640008006400080064000900640CF
:1059C0000090064000688909001C4E0E40420F00FE
:1059D00000201C0080841E0000802500999E360057
:1059E0000040380000093D0000803E0000004B00F0
:1059F000404B4C0000204E00808D5B0000C05D00DD
:105A00000080700000127A0000007D0080969800EF
:105A1000001BB7000080BB00C0E8CE00647ADA004B
:105A20000024F4000000FA0080A81201002D3101CA
:105A300000366E0140787D0140000000000000004B
:105A4000000100003E00080000000000000100000E
:105A5000A00000000200000000010000345401001A
:105A600000000000000100002B7006000000000094
:105A700000010000280000000000000000010000FC
:105A800027000100000000000001000020000000CD
:105A900000000000000100005000000002000000B3
:105AA000000100001AAC000000000000000100002E
:105AB000179409000000000000010000169805007E
:105AC00000000000000100001400000000000000C1
:105AD0000001000013800800000000000001000029
