:020000040000FA
:10000000D0080020010200001502000017020000C5
:10001000190200001902000019020000000000008F
:1000200000000000000000000000000019020000B5
:10003000190200000000000019020000190200006F
:100040001902000019020000190200001902000044
:100050001902000019020000190200001902000034
:100060001902000019020000190200001902000024
:100070001902000019020000190200001902000014
:100080001902000019020000190200001902000004
:1000900019020000190200001902000019020000F4
:1000A00019020000190200001902000019020000E4
:1000B00019020000190200001902000019020000D4
:1000C00019020000190200001902000019020000C4
:1000D00019020000190200001902000019020000B4
:1000E00019020000190200001902000019020000A4
:1000F0001902000019020000190200001902000094
:100100001902000019020000190200001902000083
:100110001902000019020000190200001902000073
:100120001902000019020000190200001902000063
:100130001902000019020000190200001902000053
:100140001902000019020000190200001902000043
:100150000000000000000000190200001902000069
:10016000190200001902000000000000190200003E
:100170001902000019020000190200001902000013
:100180001902000019020000190200001902000003
:1001900019020000190200001902000019020000F3
:1001A00019020000190200001902000019020000E3
:1001B00019020000190200001902000019020000D3
:1001C00019020000190200001902000019020000C3
:1001D00019020000190200001902000019020000B3
:1001E00019020000190200001902000019020000A3
:1001F0001902000019020000190200001902000093
:100200004EF68850CEF20000016841F470010160A2
:1002100000F004B8FEE7FEE7FEE7000000F002F899
:1002200000F054F80AA090E8000C82448344AAF13C
:100230000107DA4501D100F049F8AFF2090EBAE83A
:100240000F0013F0010F18BFFB1A43F0010318470A
:10025000E40F0000041000000A4410F8014B14F0F1
:100260000F0508BF10F8015B240908BF10F8014B07
:100270006D1E05D010F8013B6D1E01F8013BF9D150
:10028000641E03D0641E01F8015BFBD19142E4D3EC
:10029000704700000023002400250026103A28BFE4
:1002A00078C1FBD8520728BF30C148BF0B607047E8
:1002B000782900F09980632900F04581002070477B
:1002C0001FB500F06BFE1FBD10B510BD00F047F963
:1002D0001146FFF7F5FF00F08DFD00F065F903B45E
:1002E000FFF7F2FF03BC00F06DF90000024803497C
:1002F000014A034B70470000D0060020D0080020C0
:10030000D00600200FB41CB5074B06AA7B446946F3
:100310000090059800F0F5F80020694600F004F917
:100320001CBC5DF814FB0000190200002DE9F0412F
:100330000E460446002020622046E168884730B31C
:10034000252805D0D4E901219047206A401CF2E716
:10035000E168204600278847050018D0A5F1410034
:10036000192802D820354FF4006732462946204626
:100370002760FFF79DFF40B1012804D0F61D26F04D
:1003800007060836D8E7361DD6E72846DAE7206A9A
:10039000BDE8F08170B50C460546012A05D02878E5
:1003A000800600D5EA69002302E0012305E05B1C1A
:1003B000934202D2E05C0028F9D1A869E618C01A7D
:1003C000A861286A184428622846AFF3008004E038
:1003D000D5E9012114F8010B9047B442F8D328461F
:1003E000AFF3008070BD000070B504460D46214695
:1003F0001068AFF300802188090502D50F4A7A44BE
:1004000002E00E4A7A440E32002104F1240305E092
:1004100000F00F060009965D5E54491C0028F7D1D4
:1004200020780023000704D5702D02D009B10223E3
:1004300011322046BDE8704000F005B80A0E0000F9
:100440007047704770472DE9F0470D469946924630
:10045000044600F124080168880604D5E06921F00B
:100460001001216000E00120A84201DD471B00E0EF
:100470000027A1697A1902EB0900081AA061207807
:10048000C00602D42046AFF30080002608E0D4E97D
:1004900001211AF806009047206A401C761C206251
:1004A0004E45F4DB2078C0060AD52046AFF3008025
:1004B00006E0D4E9012130209047206A401C2062E8
:1004C000381EA7F10107F4DC07E0D4E9012118F890
:1004D00005009047206A401C2062281EA5F10105F6
:1004E000F3DC2046AFF300802078000602D502201E
:1004F000BDE8F0870120FBE701694A1C026108782A
:10050000704700B58FB0CDE9013100210591054953
:100510007944CDE9031011466846FFF707FF0FB095
:1005200000BD0000E5FFFFFF0A6802F8010B0A604A
:10053000704710B5436913B1AFF3008001E0FFF7D6
:1005400029FF012010BD127800F124010A70002259
:100550004A700122EDE711684FF0FF32E9E7754676
:1005600000F02CF8AE4605006946534620F007001F
:10057000854618B020B5FFF7B9FEBDE820404FF022
:1005800000064FF000074FF000084FF0000B21F07D
:100590000701AC46ACE8C009ACE8C009ACE8C0094A
:1005A000ACE8C0098D46704710B50446AFF3008033
:1005B0002046BDE81040FFF792BE0000004870479B
:1005C0006C06002001491820ABBEFEE726000200A1
:1005D0007047D0F8003412F0010F14BF0B438B4367
:1005E000C0F8003412F0020FD0F8202414BF1143D9
:1005F00022EA0101C0F82014704700002DE9F04FF5
:10060000574ED6F800C0574FDFF85C810CEA070C54
:10061000C44524D04FF0000C4FF001094FF0030AFD
:10062000C2F3411509FA0CF40C4211D0D0F8C4BF42
:100630004FEA4C040AFA04FE2BEA0E0BC0F8C4BFC2
:10064000D0F8C4BF05FA04F44BEA0404C0F8C44F60
:100650000CF1010C0CF0FF0CBCF1080FE2D3D0F848
:1006600000C512F0010F14BF4CEA010C2CEA010C7A
:10067000C0F800C5D0F804C512F0020F14BF4CEA50
:10068000010C2CEA010CC0F804C5D0F808C512F022
:10069000040F14BF4CEA010C2CEA010CC0F808C589
:1006A000D0F818C512F0080F14BF4CEA010C2CEA60
:1006B000010CC0F818C5D6F800C00CEA070CC445F8
:1006C00008D012F0100FD0F83C250CBF8A430A4323
:1006D000C0F83C25D0F80C2513F0010F14BF0A43D5
:1006E0008A43C0F80C25D0F8102513F0020F14BF70
:1006F0000A438A43C0F81025D0F8142513F0040FDC
:1007000014BF0A438A43C0F81425D0F81C2513F0FF
:10071000080F14BF0A438A43C0F81C2532683A40C8
:10072000424511D0D0F8442513F4007F0CBF8A4312
:100730000A43C0F84425D0F8402513F4407F14BF85
:100740000A438A43C0F84025D0F82825002B0CBF67
:10075000114322EA0101C0F82815BDE8F08F00001E
:1007600000E00F400000FF700000051050F821006D
:10077000704730B50C4605460022FFF72AFF214698
:100780002846BDE8304008230122FFF737BF30B5C7
:100790000C46054608230122FFF730FF2146284674
:1007A000BDE830400122FFF714BF40F82120704718
:1007B00030B40A4D2A680A4B9A421CBFD5F800C0D3
:1007C000002207D05CF8224043F82240521C9B2AAA
:1007D000F8D32B6043F8201030BC704708ED00E0E0
:1007E000000400202DE9F003AF4D02462868AF4B0E
:1007F0001840A0F18053B3F5A02359D002F0380976
:10080000DFF8AC82C2F38414B9F1100F25D0B9F12E
:10081000300F04BF47F230504FF400130DD04FF0AB
:100820003800904304BF4FF40040C30105D012F0DC
:10083000380F1CBF0020034613D09E4F12F4605F98
:100840004FF0000618BF00222CD057F83240444524
:100850007DD307EBC2025268E1E000234046152435
:10086000EBE7A4F10900122822D29348D5F87CC006
:100870004FF04C7350F824002CF01C0C072CA8BF30
:100880004CF0100CC5F87CC02E6D4FF4002C16F403
:10089000807FD2D1BCF1010C0AD02E6D16F4807F7E
:1008A000F8D0CAE712F0380F18BFB9F1100F04D012
:1008B000BDE8F0034FF000007047C2F30268DFF8B4
:1008C000FCC14FF0000257F83290E14503D307EB2B
:1008D000C202526803E0521C062AF4D33246C5F81D
:1008E000C020D5F8B020DFF8D8C102EA0C0242F0EF
:1008F0000042C5F8B020DFF8CCC1A4F109024C1EBB
:100900005CF828C0A444BCFBF1FCD5F8B010194336
:10091000C5F8B01008EBC80101EB41046A4902EBCD
:10092000420201EBC40101EB82046468C5F8644132
:10093000D5F864416FF0FF0808EB0C2C44EA0C0C6E
:10094000C5F864C151F82210D5F8602100E061E0DB
:1009500002F400021143C5F86011D5F86011D5F812
:100960006021C1F38921C2F30904D5F86421C2F3DF
:10097000042202F1010CD5F8642102F01F02521C7E
:10098000B0FBF2F04A09C2F100084443424301EBD4
:10099000481104EB5212484302EB9020B0FBFCF0EC
:1009A00041080846002257F832C0844503D307EBBC
:1009B000C200466802E0521C062AF4D3C5F8C060A3
:1009C000D5F8600110F4000F1DBFD5F8B00040F05D
:1009D0008040C5F8B000D5F8600104BF40F40000C5
:1009E000C5F860014FF40040D5F8682112F0010FFE
:1009F00002D1401E0028F7DC002808BF002148D0A3
:100A0000D5F8B000184340F0010040F01040C5F8A0
:100A1000B0003EE0521C062AFFF417AF3246C5F87C
:100A2000C020D5F8602122F40002C5F86021D5F875
:100A3000B020DFF898C002EA0C0242F00042C5F88C
:100A4000B020002908BF4FF0000C0AD0B0FBF1FC29
:100A5000BCF1000F18BFACF1010C0CF10101B0FBAF
:100A6000F1F10846002257F83240844203D307EBE5
:100A7000C200466802E0521C062AF4D3C5F8C060E2
:100A8000D5F8B00043EA8C22104340F00040C5F88E
:100A9000B000D5F8B00020F47000C5F8B000BDE893
:100AA000F00308467047000000E00F400000FF70B0
:100AB0000024F400DC110000C00F000040787D012C
:100AC00000FC0FE0B80F00002C100000FF0300EF47
:100AD000C0F307230749C0B2194401F07043C1F3C2
:100AE000130143EA411141EA800040F00070012205
:100AF0000260704700E60F40C0F307220849C0B209
:100B0000114401F07042C1F3130142EA411141EA7C
:100B1000800040F000700068002818BF0120704776
:100B200000EA0F404FF0E020016921F0010101616E
:100B300070474FF0E020016941F005010161704705
:100B40004FF0E020016941F002010161704710B5EA
:100B500001460F20FFF72CFE4FF0E020016941F025
:100B60000201016110BD4FF0E021401E4861704755
:100B700010B5044621464FF4D060FFF733FE01491B
:100B8000086010BD040000200A4908680BE009490C
:100B90000968814207D007490868F7EE000A70EE3D
:100BA000600AB0EE600AB5EEC00AF1EE10FAEED1BE
:100BB000704700000000002010B52D48FFF788FFA7
:100BC00000BF2B48FFF798FF0028FAD003212948DF
:100BD000FFF7CFFD0A23012203212648FFF70EFD70
:100BE0002348401CFFF774FF00BF2148401CFFF75B
:100BF00083FF0028F9D0FF211F48FFF7C8FD1C48DC
:100C0000801CFFF765FF00BF1948801CFFF774FFC9
:100C10000028F9D00F211948FFF7ABFD0A23012264
:100C20000F211648FFF7EAFC1148C01CFFF750FFE0
:100C300000BF0F48C01CFFF75FFF0028F9D0F0216C
:100C40000F48FFF796FD07210D48FFF7A0FD084864
:100C5000001DFFF73DFF00BF0548001DFFF74CFFDB
:100C60000028F9D003210748FFF791FD10BD0000CF
:100C7000080800F000D003400010064000200640A5
:100C8000003006400040064002480068401C014910
:100C9000086070470000002070B586B020A0006892
:100CA0000590204B0FCB01AC0FC40026002400BFE1
:100CB00031E005A8015D1C48FFF769FD05A8015D4D
:100CC00000221948FFF771FD0F211848FFF74EFD6C
:100CD00005460F2D18D00E2D02D101A8065D0BE0A0
:100CE0000D2D02D102A8065D06E00B2D02D103A84E
:100CF000065D01E004A8065D05A8015D0A48FFF74E
:100D000038FD304606B070BD05A8015D0648FFF706
:100D100030FD601CC4B2042CCBDB3046F2E700008F
:100D200010204080A80F0000003006400020064040
:100D300010B50446224607210148FFF736FD10BDD5
:100D40000030064010B504462246FF210148FFF757
:100D50002CFD10BD0010064010B528220421C02033
:100D600000F02DF810BD10B50446282205212046BC
:100D700000F025F810BD70B5054600242C4603E0B0
:100D80002078FFF7F0FF641C20780028F8D170BDB0
:100D900010B528220421382000F011F8282204215F
:100DA000062000F00CF8282204210F2000F007F89C
:100DB00040F6B8320421012000F001F810BD70B5F2
:100DC00006460D4614463046FFF7BCFF2846FFF79F
:100DD000AFFF00EE104AB8EE400AFFF7D5FE002044
:100DE000FFF7A6FF00EE104AB8EE400AFFF7CCFE70
:100DF00070BD00001FB54F48FFF7BAFEFFF7DCFEDD
:100E000000F0B2F8FFF7C4FF4BA0FFF7B4FF0020DB
:100E1000FFF7A9FF0220FFF7A6FF0420FFF7A3FFBB
:100E20000620FFF7A0FFFFF797FF47A0FFF7A3FFFC
:100E300000240020009001900290039078E0FFF7DA
:100E40002BFF0446312C05D0342C03D0372C01D095
:100E50002A2C04D1012203213D48FFF7A6FC322CA5
:100E600005D0352C03D0382C01D0302C04D10322EE
:100E700011463748FFF799FC332C05D0362C03D0A8
:100E8000392C01D0232C04D1032211463048FFF71E
:100E90008CFC412C05D0422C03D0432C01D0442C97
:100EA00004D1022203212A48FFF77FFC2CB93F24FA
:100EB000002203212648FFF778FC03212548FFF78D
:100EC00055FC012805D1012203212148FFF76DFCC3
:100ED00020E003211F48FFF749FC022805D1022228
:100EE00003211B48FFF761FC14E003211948FFF7B9
:100EF0003DFC28B9032211461548FFF756FC09E0CE
:100F000003211448FFF732FC20B9002203211048C6
:100F1000FFF74BFC234622460FA16846FFF7F2F984
:100F200028220421C020FFF74AFF6846FFF723FF6D
:100F300085E7000000B4C404454C4635322D4461B9
:100F40004C757A3A000000004B65793A20000000A9
:100F50000040064000D003404B65793A205B25589D
:100F60005D2D5B25635D000010B5FFF7DBFD0848D4
:100F700000680849B0FBF1F42046FFF7F4FD06488D
:100F8000FFF7E5FDFFF7DCFDFFF7D3FD10BD000027
:100F90000400002040420F00890C00004FF0407018
:100FA000E1EE100A704700003132334134353642E9
:100FB000373839432A30234400688909001C4E0E13
:100FC00040420F0000201C0080841E00008025008D
:100FD000999E36000040380000093D0000803E0028
:100FE00000004B00404B4C0000204E00808D5B0009
:100FF00000C05D000080700000127A0000007D00DB
:1010000080969800001BB7000080BB00C0E8CE00AF
:10101000647ADA000024F4000000FA0080A81201CB
:10102000002D310100366E0140787D014000000046
:1010300000000000000100003E0008000000000069
:1010400000010000A00000000200000000010000FC
:101050003454010000000000000100002B70060065
:101060000000000000010000280000000000000057
:101070000001000027000100000000000001000046
:1010800020000000000000000001000050000000EF
:1010900002000000000100001AAC00000000000087
:1010A000000100001794090000000000000100008A
:1010B0001698050000000000000100001400000068
:1010C0000000000000010000138008000000000084
:1010D00000010000A0000000080000000001000066
:1010E00010000000000000000001000028000000C7
:1010F00002000000000100004000000004000000A9
:10110000000100006000000000000000000100007D
:101110005D000C0000000000000100005000000015
:1011200000000000000100004E000200000000006E
:101130000001000041AC01000000000000010000BF
:101140003C00000000000000000100003A8009009F
:10115000000000000001000030000000000000005E
:101160000001000028000000000000000001000055
:1011700027000100000000000001000023600600BD
:1011800000000000000100002160080000000000D5
:10119000000100001E00000000000000000100002F
:1011A0001DC004000000000000010000500000000D
:1011B0000200000000010000180000000000000014
:1011C0000001000014000000000000000001000009
:1011D0006000000004000000000100000024F40092
:1011E00030003000005A62029100910000879303A2
:1011F000D200D20000B4C4041301130100E1F505CC
:1012000054015401000E2707950195013031323306
:10121000343536373839414243444546403058002A
:10122000303132333435363738396162636465665C
:101230004030780054120000000000206C060000CE
:1012400058020000641200006C06002064020000D6
:101250009402000001FF01FF01FF01FF01FF01FFF8
:041260000179000010
:0400000500000201F4
:00000001FF
